:100000000C9463000C948B000C948B000C948B006C
:100010000C948B000C948B000C948B000C948B0034
:100020000C948B000C948B000C948B000C948B0024
:100030000C948B000C948B000C948B000C948B0014
:100040000C94D80F0C948B000C94A60F0C94800F7A
:100050000C948B000C948B000C948B000C948B00F4
:100060000C9422100C948B00000000002500280046
:100070002B0000000000240027002A0000000000E0
:1000800023002600290004040404040404040202DA
:100090000202020203030303030301020408102007
:1000A0004080010204081020010204081020000012
:1000B0000008000201000003040700000000000027
:1000C00000004111301311241FBECFEFD8E0DEBF76
:1000D000CDBF23E0AEEBB1E001C01D92AC36B2075C
:1000E000E1F711E0A0E0B1E0E8E0F4E302C0059040
:1000F0000D92AE3BB107D9F710E0C2E6D0E004C0E4
:100100002197FE010E94FF17C136D107C9F70E944F
:1001100087110C94F7190C9400008CBD9DBD0895B7
:1001200008950895AF92BF92CF92DF92EF92FF921F
:100130000F931F93CF93DF936C017B018B01040F0F
:10014000151FEB015E01AE18BF08C017D10759F0AB
:100150006991D601ED91FC910190F081E02DC601ED
:100160000995892B79F7C501DF91CF911F910F91E7
:10017000FF90EF90DF90CF90BF90AF900895FC017B
:10018000538D448D252F30E0842F90E0821B930BFC
:10019000541710F0CF96089501970895FC01918DA2
:1001A000828D981761F0A28DAE0FBF2FB11D5D96A5
:1001B0008C91928D9F5F9F73928F90E008958FEF47
:1001C0009FEF0895FC01918D828D981731F0828DFB
:1001D000E80FF11D858D90E008958FEF9FEF089552
:1001E000FC01918D228D892F90E0805C9F4F821BB6
:1001F00091098F739927089584E892E00E94F00096
:1002000021E0892B09F420E0822F089580E090E01E
:10021000892B29F00E94FC0081110C9400000895A4
:10022000FC01A48DA80FB92FB11DA35ABF4F2C916B
:10023000848D90E001968F739927848FA689B78962
:100240002C93A089B1898C91837080648C93938D59
:10025000848D981306C00288F389E02D80818F7DFC
:1002600080830895EF92FF920F931F93CF93DF93B4
:10027000EC0181E0888F9B8D8C8D98131AC0E889E2
:10028000F989808185FF15C09FB7F894EE89FF89B1
:100290006083E889F98980818370806480839FBF4F
:1002A00081E090E0DF91CF911F910F91FF90EF904F
:1002B0000895F62E0B8D10E00F5F1F4F0F7311275F
:1002C000E02E8C8D8E110CC00FB607FCFACFE8899A
:1002D000F989808185FFF5CFCE010E941001F1CF11
:1002E000EB8DEC0FFD2FF11DE35AFF4FF0829FB70E
:1002F000F8940B8FEA89FB8980818062CFCFCF93FE
:10030000DF93EC01888D8823B9F0AA89BB89E8893D
:10031000F9898C9185FD03C0808186FD0DC00FB6E3
:1003200007FCF7CF8C9185FFF2CF808185FFEDCF61
:10033000CE010E941001E9CFDF91CF910895833063
:1003400081F028F4813099F08230A9F00895873047
:10035000A9F08830C9F08430B1F4809180008F7D9D
:1003600003C0809180008F7780938000089584B5CA
:100370008F7784BD089584B58F7DFBCF8091B000C9
:100380008F778093B00008958091B0008F7DF9CF72
:100390001F93CF93DF93282F30E0F901E255FF4FF1
:1003A0008491F901E656FF4FD491F901EA57FF4FC6
:1003B000C491CC23A9F0162F81110E949F01EC2F2C
:1003C000F0E0EE0FFF1FE859FF4FA591B4918FB7F2
:1003D000F894EC91111108C0D095DE23DC938FBF07
:1003E000DF91CF911F910895DE2BF8CFCF92DF924E
:1003F000EF92FF920F931F93CF93DF93909143035C
:100400009F3F81F48EBD00000DB407FEFDCFFEB40A
:100410008F2DDF91CF911F910F91FF90EF90DF9083
:10042000CF900895D82EF12CC7E0D0E001E010E085
:10043000FF0C60E0809143030E94C801B8010C2EBC
:1004400001C0660F0A94EAF76D21809141030E9472
:10045000C80161E0809143030E94C80120914203DA
:1004600030E0F901E255FF4F8491F901E656FF4F64
:10047000E490F901EA57FF4FC490CC2081F081113C
:100480000E949F01EC2DF0E0EE0FFF1FE458FF4F9C
:10049000A591B491EC91EE2211F06894F0F82197B7
:1004A00008F0C6CFB5CFCF93DF9390E0FC01E656BE
:1004B000FF4F24918A579F4FFC0184918823D1F0EC
:1004C00090E0880F991FFC01EE58FF4FA591B49161
:1004D000FC01E859FF4FC591D49161110EC09FB73F
:1004E000F8948C91E22FE0958E238C932881E2235F
:1004F000E8839FBFDF91CF9108958FB7F894EC9177
:10050000E22BEC938FBFF6CF3FB7F894809129028E
:1005100090912A02A0912B02B0912C0226B5A89BA3
:1005200005C02F3F19F00196A11DB11D3FBFBA2F85
:10053000A92F982F8827BC01CD01620F711D811D45
:10054000911D42E0660F771F881F991F4A95D1F7CA
:1005500008958F929F92AF92BF92CF92DF92EF92C7
:10056000FF924B015C010E9484026B017C010E949E
:1005700084026C197D098E099F09683E73408105CC
:100580009105A8F321E0821A9108A108B10888EE2C
:10059000C80E83E0D81EE11CF11C81149104A10453
:1005A000B10429F7FF90EF90DF90CF90BF90AF900C
:1005B0009F908F90089520910102260F3327331FBB
:1005C00021323105ECF420917A02FC0190E080E0C8
:1005D000243069F082E00895A09101022191AC01DC
:1005E0004F515E4FA40FB52FB11D2C930196861766
:1005F00098F380910102680F6093010280E00895F2
:1006000081E0089510927A0281E08093590210925D
:10061000540261E082E10E94C80161E083E10E942E
:10062000C801E9EBF0E080818E7F808380818D7F3F
:10063000808388E48093B80085E48093BC000895AB
:10064000CF93DF9391E09093E0018823B9F0C091BC
:10065000B800D091BA008091BC008A7B8093BC0026
:1006600060E082E10E94C80160E083E10E94C8016D
:100670000E940203D093BA00C093B800DF91CF91DB
:100680000895CF92DF92EF92FF920F931F93CF9333
:10069000DF93D82FC62F613208F098C00E948402E1
:1006A0006B017C0180917A0281116BC081E08093A3
:1006B0007A02809359029FEF90935802109257024A
:1006C0009C0F909356028093550280915502DD0F46
:1006D000D82BD093550280915402813009F078C014
:1006E000109254020E9484026B017C018091550299
:1006F0008093BB0080917C0290917D02A0917E024C
:10070000B0917F02892B8A2B8B2BA1F00E9484024F
:1007100000917C0210917D0220917E0230917F0237
:100720006C197D098E099F090617170728073907D5
:1007300008F448C08091BC0083FDD8CF85EC80933D
:10074000BC000E9484026B017C0180917A0281309E
:1007500009F440C0809157028C1710F4C0915702E1
:10076000E4E3F2E0AAE5B2E080E08C1355C08C2F00
:10077000DF91CF911F910F91FF90EF90DF90CF907D
:10078000089580917C0290917D02A0917E02B091AB
:100790007F02892B8A2B8B2B09F484CF0E94840241
:1007A00000917C0210917D0220917E0230917F02A7
:1007B0006C197D098E099F09061717072807390745
:1007C00008F070CF80917B020E942003C0E0CFCF61
:1007D00085EEB5CF80917C0290917D02A0917E0242
:1007E000B0917F02892B8A2B8B2B09F4AECF0E940C
:1007F000840200917C0210917D0220917E02309152
:100800007F026C197D098E099F09061717072807B3
:10081000390708F09ACFD6CF91919D938F5FA5CFDE
:100820000895E091330280913202E81730F4F0E04D
:10083000E65AFD4F808190E008958FEF9FEF089575
:1008400090913302809132022FEF3FEF981748F4D6
:10085000E92FF0E0E65AFD4F208130E09F5F909352
:100860003302C90108958091320290913302891BAD
:10087000990B0895CF92DF92EF92FF920F931F93FF
:10088000CF93DF937C01CB018A0120918302222345
:1008900089F0EB016B01C40ED51ECC15DD0569F0A6
:1008A0006991D701ED91FC910190F081E02DC70194
:1008B0000995F3CF642F0E94DB02C801DF91CF912D
:1008C0001F910F91FF90EF90DF90CF900895CF93FD
:1008D000DF931F92CDB7DEB7698320918302222375
:1008E000F9F020918002203258F021E030E0FC0144
:1008F0003383228390E080E00F90DF91CF910895C1
:1009000080918102E82FF0E0E054FE4F99819083BE
:100910008F5F809381028093800281E090E0ECCF32
:1009200061E0CE0101960E94DB02F7CFCF92DF9209
:10093000EF92FF920F931F93CF93DF93D09180029A
:1009400081E0D13208F09CC0C09182020E948402F2
:100950006B017C0180917A0281116CC082E08093EE
:100960007A0281E0809359028FEF809358021092AF
:100970005702D0935602A0ECB1E0E4E3F2E080E04D
:10098000D8138DC01092550280915502CC0FC82B00
:10099000C093550280915402813009F084C01092B6
:1009A00054020E9484026B017C0180915502809365
:1009B000BB0080917C0290917D02A0917E02B0915B
:1009C0007F02892B8A2B8B2BA1F00E94840200913D
:1009D0007C0210917D0220917E0230917F026C1981
:1009E0007D098E099F09061717072807390708F49C
:1009F00042C08091BC0083FDD8CF85EC8093BC00C1
:100A00000E9484026B017C0180917A02823009F499
:100A10004CC0809158028F3F09F469C08091580200
:100A2000803209F466C080915802803309F463C0B3
:100A300084E026C080917C0290917D02A0917E028C
:100A4000B0917F02892B8A2B8B2B09F483CF0E94D4
:100A5000840200917C0210917D0220917E023091EF
:100A60007F026C197D098E099F0906171707280751
:100A7000390708F06FCF80917B020E94200385E048
:100A8000109281021092800210928302DF91CF9126
:100A90001F910F91FF90EF90DF90CF9008959D915F
:100AA00091938F5F6DCF85EEA9CF80917C0290915D
:100AB0007D02A0917E02B0917F02892B8A2B8B2B25
:100AC00009F4A2CF0E94840200917C0210917D0261
:100AD00020917E0230917F026C197D098E099F0959
:100AE000061717072807390708F08ECFC4CF80E014
:100AF000C7CF82E0C5CF83E0C3CF90E080E0089508
:100B00000895CF93DF93D82FC62F809140038F3F56
:100B100059F580912D0390912E032091370331E0F8
:100B200030938302209382021092810210928002FD
:100B3000DC01ED91FC910190F081E02D6D2F099584
:100B400080912D0390912E03DC01ED91FC91019099
:100B5000F081E02D6C2F099580912D0390912E034B
:100B6000DF91CF910C949604809143038F3F21F441
:100B700082E591E00E948D0060E0809140030E9438
:100B8000C8018D2F8F770E94F6018C2F0E94F601ED
:100B900061E080914003DF91CF910C94C8018F9266
:100BA0009F92AF92BF92CF92DF92EF92FF92F82E78
:100BB000809140038F3F09F070C080912D03909188
:100BC0002E032091370331E0309383022093820279
:100BD0001092810210928002DC01ED91FC91019053
:100BE000F081E02D6F2D099580912D0390912E03BA
:100BF0000E94960463E0809137030E9441031092A3
:100C000033028093320280912D0390912E03DC01F8
:100C1000ED91FC910284F385E02D09954C01990F2B
:100C2000AA08BB08BA2CA92C982C882480912D03E3
:100C300090912E03DC01ED91FC910284F385E02D6F
:100C40000995092E000CAA0BBB0B882A992AAA2AFF
:100C5000BB2ABA2CA92C982C882480912D03909122
:100C60002E03DC01ED91FC910284F385E02D0995C2
:100C7000092E000CAA0BBB0B6C017D01C828D928DA
:100C8000EA28FB28C701B601FF90EF90DF90CF90D4
:100C9000BF90AF909F908F900895809143038F3FB6
:100CA00021F482E591E00E948D0060E08091400394
:100CB0000E94C8018F2D0E94F60180E00E94F6017B
:100CC00090E0B0E0A0E0CC24D82EE92EFA2E80E00F
:100CD0000E94F601C82AFE2CED2CDC2CCC2480E0EE
:100CE0000E94F601C82A61E0809140030E94C80179
:100CF000C9CF8F929F92AF92BF92CF92DF92EF9225
:100D0000FF920F931F938AEF0E94CF056115710523
:100D100020E88207910509F47DC0009144031091F9
:100D2000450330E020E0C72ED82EE92EFF24E7FC53
:100D3000FA94C01AD10AE20AF30A57E0959587950A
:100D4000779567955A95D1F7000F111F221F331F12
:100D50004B015C01801A910AA20AB30AA501940111
:100D6000A0914603B09147030E94AB164B015C0172
:100D7000FBE0B594A79497948794FA95D1F7A701CF
:100D80009601C701B6010E9479169B01AC01ACE047
:100D90005595479537952795AA95D1F7A091480382
:100DA000B09149030E94AB169B01AC01BEE0559582
:100DB000479537952795BA95D1F7280D391D4A1DC6
:100DC0005B1D20933C0330933D0340933E035093BF
:100DD0003F03A5E0B0E00E94BC1460587F4F8F4FE6
:100DE0009F4F672F782F892F992787FD9A950E940B
:100DF000891320E030E048EC52E40E947A151F91FC
:100E00000F91FF90EF90DF90CF90BF90AF909F90A9
:100E10008F90089560E070E080EC9FE7F0CFCF9373
:100E2000C82F809140038F3FA9F580912D039091A9
:100E30002E032091370331E0309383022093820206
:100E40001092810210928002DC01ED91FC910190E0
:100E5000F081E02D6C2F099580912D0390912E0348
:100E60000E94960461E0809137030E944103109232
:100E700033028093320280912D0390912E03DC0186
:100E8000ED91FC910284F385E02D0995C82F8C2FFC
:100E9000CF910895809143038F3F21F482E591E043
:100EA0000E948D0060E0809140030E94C8018C2F59
:100EB0000E94F60180E00E94F601C82F61E0809157
:100EC00040030E94C801E3CFCF93DF93C82F8091E6
:100ED00040038F3F09F046C080912D0390912E036F
:100EE0002091370331E030938302209382021092E5
:100EF000810210928002DC01ED91FC910190F08161
:100F0000E02D6C2F099580912D0390912E030E9466
:100F1000960462E0809137030E94410310923302ED
:100F20008093320280912D0390912E03DC01ED918C
:100F3000FC910284F385E02D0995C82F80912D0343
:100F400090912E03DC01ED91FC910284F385E02D5C
:100F5000099520E03C2FE901C82BD92BCE01DF9168
:100F6000CF910895809143038F3F21F482E591E072
:100F70000E948D0060E0809140030E94C8018C2F88
:100F80000E94F60180E00E94F601C82F80E00E94D6
:100F9000F601DC2FC82F61E0809140030E94C80158
:100FA000DDCF0E9464079827892798270895CF935B
:100FB000DF93809140038F3F09F022C110923302EA
:100FC0001092320210928102109280020E9402035B
:100FD00080E990E0909331028093300281E990E0C3
:100FE00090932F0280932E0280ED0E940F0790E0D5
:100FF000B0E0A0E08093380390933903A0933A03C4
:10100000B0933B0380369105A105B10509F047C1B6
:1010100066EB80EE0E9481056AE070E080E090E07F
:101020000E94A90283EF0E940F0780FDF5CF88E898
:101030000E94D10790934503809344038AE80E945D
:10104000D10790934703809346038CE80E94D10711
:1010500090934903809348038EE80E94D1079093B0
:101060004B0380934A0380E90E94D10790934D037C
:1010700080934C0382E90E94D10790934F038093A1
:101080004E0384E90E94D10790935103809350034B
:1010900086E90E94D107909353038093520388E915
:1010A0000E94D10790935503809354038AE90E94CC
:1010B000D10790935703809356038CE90E94D10780
:1010C00090935903809358038EE90E94D10790931F
:1010D0005B0380935A0381EA0E940F0780935C03AD
:1010E00081EE0E94D10790935E0380935D0383EEAF
:1010F0000E940F0780935F0384EE0E940F07C82FA2
:1011000085EE0E940F0790E1C902900111248F70B3
:10111000282B309361032093600386EE0E940F0713
:10112000C82F85EE0E940F0790E1C902E00111244B
:1011300090E024E0959587952A95E1F78C2B9D2BDF
:10114000909363038093620387EE0E940F0780935E
:1011500064038DEE80936603809167038F71806ACC
:101160008093670380916503807C8093650360E0D2
:1011700084EF0E94810560916703629566956770B0
:1011800082EF0E94810580916503682F677090E26D
:10119000699FB0011124282F269526952695277042
:1011A00094E0299F90011124622B87FB882780F906
:1011B000682B85EF0E94810580916603682F677018
:1011C00090E2699FB0011124282F26952695269537
:1011D000277094E0299F90011124622B82958695B7
:1011E00086958370682B84EF0E94810564E670E029
:1011F00080E090E00E94A90281E0DF91CF91089504
:1012000061E00E94C80161E0809140030E945302A6
:10121000809143038F3F09F034C0CFB7F894809199
:101220002D02811127C0E0E9F0E08491E4EAF0E0CA
:101230009491E82FF0E0EE0FFF1FEE58FF4FA591BD
:10124000B491EC91E92321F461E08AE00E94C801A5
:1012500061E08AE00E9453028CB580618CBD8CB540
:1012600080648CBD61E08DE00E94530261E08BE000
:101270000E94530280912D028F5F80932D02CFBF79
:10128000B3CE61E00E94530261E0809141030E946D
:10129000530260E0809142030E945302A5CE80E099
:1012A000ACCFCF93DF9387E780933703C1E2D3E0DE
:1012B000D0932E03C0932D030E94D707882311F1EA
:1012C00081E08093BE01C1E0C09383028AE48093F1
:1012D0008202109281021092800262E081E293E029
:1012E0000E94670460E481E293E00E94670481E267
:1012F00093E00E949604811102C0C093BF01DF9168
:10130000CF91089586E780933703D0932E03C0933F
:101310002D030E94D7078111D3CFD5CFFC010190B7
:101320000020E9F73197AF01481B590BBC0184E855
:1013300092E00C9492008F929F92AF92BF920F9383
:101340001F93CF93DF93CDB7DEB7A1970FB6F89475
:10135000DEBF0FBECDBF19A2423008F44AE08E01B5
:101360000F5D1F4F842E912CB12CA12CA50194014F
:101370000E948916E62FB901CA01EA30F4F4E05D53
:10138000D801EE938D01232B242B252B79F790E0A8
:1013900080E0109719F0CD010E948E09A1960FB63A
:1013A000F894DEBF0FBECDBFDF91CF911F910F919B
:1013B000BF90AF909F908F900895E95CE1CFCF935D
:1013C000DF930E948E09EC018DE391E00E948E096B
:1013D0008C0F9D1FDF91CF9108954F925F926F9276
:1013E0007F928F929F92AF92BF92CF92DF92EF92B5
:1013F000FF920F931F93CF936B017C01742EAC016E
:101400009B010E947416882399F080E491E0CF91AB
:101410001F910F91FF90EF90DF90CF90BF90AF9012
:101420009F908F907F906F905F904F900C948E095B
:1014300046015701E894B7F82FEF3FEF4FE75FE71A
:10144000C501B4010E94741681110DC02FEF3FEF4A
:101450004FE75FE7C501B4010E94821318161CF420
:1014600084E491E0D4CF2FEF3FEF4FE75FE4C70173
:10147000B6010E946F1618161CF488E491E0C7CFDD
:101480002FEF3FEF4FE75FECC701B6010E948213D9
:1014900087FDF3CF20E030E0A901C701B6010E942B
:1014A000821310E000E087FF0AC06DE284E892E05A
:1014B0000E9432018C01F7FAF094F7F8F094C0E042
:1014C00060E070E080E09FE37C1641F020E030E0D7
:1014D00040E251E40E947A15CF5FF6CFA701960152
:1014E0000E940E152B013C010E94EC154B015C0182
:1014F0004AE00E949B097C01E00EF11ECC23C1F161
:10150000C501B4010E9487139B01AC01C301B20164
:101510000E940D154B015C016EE284E892E00E948E
:101520003201E80EF91EC15018F120E030E040E22F
:1015300051E4C501B4010E94E8132B013C010E9453
:10154000EC154B01B12CA12C4AE0C501B4010E945D
:101550009B09E80EF91EC501B4010E9487139B0187
:10156000AC01C301B2010E940D154B015C01DBCF40
:10157000C701CF911F910F91FF90EF90DF90CF9017
:10158000BF90AF909F908F907F906F905F904F90A3
:1015900008952F923F924F925F926F927F928F9217
:1015A0009F92AF92BF92CF92DF92EF92FF920F93F2
:1015B0001F93CF93DF93CDB7DEB76F970FB6F89435
:1015C000DEBF0FBECDBF8091BE01882309F4BBC230
:1015D0000E947906609300017093010180930201DB
:1015E000909303010E9479068DEF0E946407B0E09A
:1015F000A0E0811500E89007A105B10509F4B1C389
:1016000080903C0390903D03A0903E03B0903F0338
:101610001CE2911A11E0A10AB1086C017D018EE073
:10162000CC0CDD1CEE1CFF1C8A95D1F78091600369
:1016300090916103092E000CAA0BBB0B24E1880FCB
:10164000991FAA1FBB1F2A95D1F7C81AD90AEA0AFF
:10165000FB0AA0916203B0916303A50194010E946B
:10166000AB16C61AD70AE80AF90A20E4D20EE11C22
:10167000F11C3FE0F594E794D794C7943A95D1F7DD
:10168000A0915F03B0E094010E94BC142B013C01C7
:101690006BE075946794579447946A95D1F780E806
:1016A000580E611C711CA09164030A2E000CBB0B28
:1016B0000E94AB16EAE09595879577956795EA9530
:1016C000D1F7A30192010E9479169B01AC01FAE0C7
:1016D0005595479537952795FA95D1F7405E5F4F19
:1016E000A0915D03B0915E030E94AB16705E8F4FB8
:1016F0009F4FAEE09595879577956795AA95D1F719
:10170000A70196010E9479166B017C01BFE09595B7
:10171000879577956795BA95D1F79B01AC010E94A3
:1017200079169B01AC0117E055954795379527959C
:101730001A95D1F7A0915C03B0E00E94BC1404E0BC
:1017400095958795779567950A95D1F7C61AD70A23
:10175000E80AF90AF7FE03C0C12CD12C7601C701B3
:10176000B601613071058105A9E19A0724F060E0B6
:1017700070E080E099E10CE0959587957795679505
:101780000A95D1F70E94891320E030E040E85AE33F
:101790000E94E81360930401709305018093060191
:1017A000909307010E94790687EF0E94CF056D870D
:1017B0007E878F87988B611571058048910509F4A4
:1017C000D5C280913C0390913D03A0913E03B0911E
:1017D0003F036C017D01FF0CCC08DC2C76019C01E1
:1017E000AD016C2D7C2D8C2D9C2D345F4140510919
:1017F00061097109810991092E8F332E2A013B015C
:101800004C01A22EB32E6A017B018C010E94B316FB
:10181000222E3B8B4C8B5D8B6E8B7F8B888F998FB1
:1018200030914D0320914C03932F990F990B492F21
:10183000592F692F792F892F0E94B3160CE00E942F
:10184000AB17298339874A875B876C87798B8A8BAB
:101850009F8F30914F0320914E03932F990F990B37
:10186000A22CBB88CC88DD88EE88FF88088D198D76
:10187000492F592F692F792F892F0E94B31608E01D
:101880000E94C417A980B984CA84DB84EC84F988D7
:101890000A891F8D0E94E11770588F4F9F4FE0916A
:1018A0004A03F0914B035F01D12CC12CE12CF12CA8
:1018B0008701E983BA82CB82DC82ED82FE820F83CC
:1018C0001887C12CD12CE12CF12C00E010E00E94F3
:1018D000B31601E20E94C417298339874A875B87C0
:1018E0006C87798B8F8F9A8BA0E00E94F31709F495
:1018F00042C23091550320915403932F990F990BB5
:10190000A22CBB88CC88DD88EE88FF88088D198DD5
:10191000492F592F692F792F892F0E94B316222E14
:101920003B8B4C8B5D8B6E8B7F8B888F998F30912F
:10193000530320915203932F990F990BAE8CB32C24
:10194000620173018401492F592F692F792F892F43
:101950000E94B31601E10E94AB17A22CBB88CC8871
:10196000DD88EE88FF88088D198D0E94E1175901E6
:101970006A017B01382E192F4D855E856F85788928
:1019800094E075956795579547959A95D1F780E0BE
:1019900090E0A0E1B0E0841B950BA60BB70B2C01E7
:1019A0003D01770C4408542C32019C01AD01642D9B
:1019B000742D842D942D0FE10E94AB17722E832E6F
:1019C000942E5D87B62FA72FF82FE92F3091510362
:1019D00020915003932F990F990B492F592F692F5D
:1019E000792F892F03E20E94AB17032D0E94E11784
:1019F00059016A017B018C01272D382D492D5D8508
:101A00006B2F7A2F8F2F9E2F0E94EA17E5E3AE2EC1
:101A1000FCE0BF2EC12CD12CE12CF12C00E010E019
:101A20000E94B316A980B984CA84DB84EC84F98847
:101A30000F8D1A890E940D172A8B398B4D87598378
:101A400069877A878B879C870DE00E94C417922E46
:101A5000832E742E652E562E472E382E292E309129
:101A60005B0320915A03932F990F990BA92CB82C43
:101A7000C72CD62CE52CF42C032D122D492F592FD1
:101A8000692F792F892F0E94B3160E94B31609E19E
:101A90000E94C417AA88B988CD84D980E984FA84C1
:101AA0000B851C850E94E11719012A013B014C019D
:101AB0003091590320915803932F990F990B492F77
:101AC000592F692F792F892F0E94B31603E10E94A5
:101AD000C41759016A017B018C019101A201B30174
:101AE000C4010E94E11708E00E94C41759016A016D
:101AF0007B01E82F192F3091570320915603932F24
:101B0000990F990B492F592F692F792F892F04E0AD
:101B10000E94AB170E2F0E94E1170E941B1620E0B7
:101B200030E040E85BE30E94E81320E030E048EC5E
:101B300052E40E947A156093080170930901809322
:101B40000A0190930B018091BF01882309F463C0BF
:101B500081E0809383028AE4809382021092810262
:101B60001092800263E081E293E00E94670481E2C8
:101B700093E00E94960462E08AE40E94410310927E
:101B8000330280933202823061F481E293E00E945A
:101B900020049B8F8A8F81E293E00E9420049D8F16
:101BA0008C8F6A8D7B8D84E0660F771F8A95E1F7B5
:101BB00077278C8D9D8D8F709927682B792B072E19
:101BC000000C880B990B0E9489136B017C018A8D94
:101BD00082958F7061E070E002C0660F771F8A9572
:101BE000E2F7072E000C880B990B0E9489139B01CA
:101BF000AC01C701B6010E94E8132CEE31E548E3C1
:101C00005DE30E94E81360930C0170930D018093D3
:101C10000E0190930F018091120100E4809FC0019A
:101C20001124826080937C0080917A00806480938C
:101C30007A0080917A0086FDFCCF909178008091A7
:101C400079008927982789279093110180931001A3
:101C50008CE491E00E948E09609100017091010175
:101C6000809102019091030142E00E94ED0983E519
:101C700091E00E948E0960910401709105018091AC
:101C800006019091070142E00E94ED098DE591E087
:101C90000E948E09609108017091090180910A01EA
:101CA00090910B0142E00E94ED0987E691E00E94CD
:101CB0008E0960910C0170910D0180910E0190913F
:101CC0000F0142E00E94ED0981E791E00E948E0938
:101CD000609110017091110190E080E04AE00E9453
:101CE0009B098AE791E00E948E098091BE018823BA
:101CF00021F081E891E00E948E098091BE01882345
:101D000041F08091BF01882321F08AE891E00E9490
:101D10008E098091BF01882321F08CE891E00E9418
:101D20008E0987E991E00E94DF0984E892E06F96CE
:101D30000FB6F894DEBF0FBECDBFDF91CF911F91DC
:101D40000F91FF90EF90DF90CF90BF90AF909F905A
:101D50008F907F906F905F904F903F902F900C945A
:101D60007F0160E070E080EC9FE714CD60E070E000
:101D700080EC9FE7DACE60E070E0CB01D6CE0F9327
:101D80001F93CF93DF93EC0188819981009759F0DD
:101D90002A813B812617370730F081E0DF91CF9110
:101DA0001F910F9108958B016F5F7F4F0E942A1939
:101DB000009759F0998388831B830A832C813D8186
:101DC000232B59F7FC011082E8CF80E0E7CFEF9298
:101DD000FF920F931F93CF93DF936115710541F429
:101DE00080E0DF91CF911F910F91FF90EF900895C8
:101DF00041155105B1F07B01EC010C811D81040FEF
:101E0000151FB8010E94BF0E882351F32881398124
:101E10008C819D81B701820F931F0E94F0191D8351
:101E20000C8381E0DECFFB0101900020E9F73197C0
:101E3000AF01461B570B0C94E70EEF92FF920F93E6
:101E40001F93CF93DF93EC017B018A01BA010E94BB
:101E5000BF0E28813981811114C02115310519F077
:101E6000C9010E94A118198218821D821C821B823E
:101E70001A82CE01DF91CF911F910F91FF90EF90C9
:101E800008951D830C83B701C9010E94F019F1CF99
:101E900085ED8093BC0080917C0290917D02A091A1
:101EA0007E02B0917F020796A11DB11D23E0B69579
:101EB000A795979587952A95D1F72091BC0024FD89
:101EC00003C010927A02089540917C0250917D02E5
:101ED00060917E0270917F02452B462B472B69F360
:101EE0000097A105B10541F025E32A95F1F700001F
:101EF0000197A109B109E1CF80917B020C942003E5
:101F00001F920F920FB60F9211242F933F934F936E
:101F10005F936F937F938F939F93AF93BF93EF9351
:101F2000FF9384E892E00E941001FF91EF91BF912E
:101F3000AF919F918F917F916F915F914F913F9161
:101F40002F910F900FBE0F901F9018951F920F9218
:101F50000FB60F9211242F938F939F93EF93FF93BC
:101F6000E0919402F09195028081E0919A02F091C3
:101F70009B0282FD1BC0908180919D028F5F8F73B9
:101F800020919E02821741F0E0919D02F0E0EC5713
:101F9000FD4F958F80939D02FF91EF919F918F91BF
:101FA0002F910F900FBE0F901F9018958081F4CF46
:101FB0001F920F920FB60F9211242F933F938F937E
:101FC0009F93AF93BF938091250290912602A09199
:101FD0002702B09128023091240223E0230F2D37ED
:101FE00058F50196A11DB11D20932402809325026E
:101FF00090932602A0932702B09328028091290291
:1020000090912A02A0912B02B0912C020196A11D61
:10201000B11D8093290290932A02A0932B02B093C2
:102020002C02BF91AF919F918F913F912F910F9073
:102030000FBE0F901F90189526E8230F0296A11D42
:10204000B11DD2CF1F920F920FB60F9211242F9372
:102050003F934F935F936F937F938F939F93AF9330
:10206000BF93EF93FF938091B900887F803609F486
:102070004AC0F0F5883209F4A7C018F5803109F498
:102080009BC0B8F4882309F4F9C0883009F494C0DF
:10209000FF91EF91BF91AF919F918F917F916F9140
:1020A0005F914F913F912F910F900FBE0F901F9016
:1020B0001895883109F488C0803251F7809358020E
:1020C00014C0803409F49DC040F48033B9F38833E0
:1020D000F9F68093580285ECB0C0803509F485C0CC
:1020E000883509F496C0883499F60E94480FD0CFFD
:1020F000883909F48CC038F5883729F050F48836CF
:1021000011F0803729F683E080937A02109223023F
:1021100057C0883809F47BC0803919F0803809F03D
:10212000B7CF80912302803208F071C0E091230282
:1021300081E08E0F809323028091BB00F0E0ED5F81
:10214000FD4F80833DC0803B39F0E0F4803A09F4D4
:1021500079C0883A09F09CCF84E080937A0210928B
:10216000020210920102E0913002F09131020995D1
:102170008091010281110FC081E0809301021092D1
:10218000E10109C0803C09F4A6CF883C09F4A3CF43
:10219000883B09F07DCFE091020281E08E0F8093B1
:1021A0000202F0E0EF51FE4F80818093BB009091DE
:1021B00002028091010229C0809155028093BB00E8
:1021C00085EC8093BC0064CF9091570280915602B9
:1021D000981758F5E091570281E08E0F80935702CF
:1021E000F0E0EC5CFD4F8081E9CFE091570281E0A7
:1021F0008E0F809357028091BB00F0E0EC5CFD4FA6
:10220000808390915702809156029817C8F285E812
:10221000D8CFE091570281E08E0F809357028091D2
:10222000BB00F0E0EC5CFD4F80838091590281118E
:102230005CCF81E08093540284EA8093BC001092CA
:102240007A0226CF85EC8093BC0010927A028091AE
:102250002302803230F4E0912302F0E0ED5FFD4F85
:1022600010826091230270E0E0912E02F0912F0223
:1022700083E092E00995109223020ACF109258024F
:1022800034CFE4E8F2E01382128288EE93E0A0E01B
:10229000B0E084839583A683B7832DE131E0318359
:1022A000208325EC30E03587248724EC30E0378725
:1022B000268720EC30E0318B208B21EC30E0338B13
:1022C000228B22EC30E0358B248B26EC30E0378BF0
:1022D000268B118E128E138E148EE1E2F3E01382A0
:1022E000128284839583A683B7838FE291E09183E2
:1022F0008083EDE2F3E01582148217821682118644
:1023000010868FEF838B848B858B868B0895CF937C
:10231000DF93CDB7DEB765970FB6F894DEBF0FBE7B
:10232000CDBF789484B5826084BD84B5816084BD5E
:1023300085B5826085BD85B5816085BD80916E0063
:10234000816080936E001092810080918100826094
:1023500080938100809181008160809381008091D1
:1023600080008160809380008091B10084608093C0
:10237000B1008091B00081608093B00080917A00BC
:10238000846080937A0080917A00826080937A00E2
:1023900080917A00816080937A0080917A008068D1
:1023A00080937A001092C10060E083E00E94C8012F
:1023B00061E082E00E94530261E084E00E945302E7
:1023C00061E086E00E94530261E087E00E945302D0
:1023D00061E088E00E94530261E089E00E945302BC
:1023E00061E08AE00E94530261E08BE00E945302A8
:1023F00061E08CE00E94530261E08DE00E94530294
:1024000061E08EE00E94530261E08FE00E9453027F
:1024100061E081E10E94530261E085E00E94530285
:1024200061E085E00E94C80161E083E00E94530200
:1024300060E083E00E94C80183E080931201E09194
:102440009402F091950282E08083E0919002F091F5
:1024500091021082E0919202F09193028FEC8083BE
:1024600010929C02E0919802F091990286E080839C
:10247000E0919602F0919702808180618083E091E3
:102480009602F0919702808188608083E0919602A5
:10249000F0919702808180688083E0919602F091AC
:1024A000970280818F7D808381E090E00E94A61456
:1024B000882309F48AC08AE991E00E94DF0990E04C
:1024C00080E00E94A614F82E84E68F1508F47DC0E3
:1024D00089EA91E00E94DF0960E085E00E94C8017E
:1024E0006DE270E080E090E00E94A902198A188AEB
:1024F0001B8A1A8A1D8A1C8A44E050E068EB71E04E
:10250000CE0140960E941D0F84E66FE371E0F8163D
:1025100011F066EB71E0CE0140960E94130F89E046
:102520006FE371E08F1510F066EB71E0CE0140961D
:102530000E94130F1B861A861D861C861F861E8608
:102540004AE08E010F5F1F4FB8018F2D90E00E946F
:102550005813F80101900020E9F73197AF01401BB3
:10256000510BB801CE010A960E941D0F4E855F8562
:102570006A857B85CE0140960E94E70E8A859B8501
:10258000009711F00E94A1184C895D8968897989AA
:1025900084E892E00E9492008DE391E00E948E090F
:1025A00062E370E080E090E00E94A90261E085E0D3
:1025B0000E94C80160E081E090E00E94AE1488892A
:1025C0009989009711F00E94A1180E9451090E9458
:1025D000C90A6EE170E080E090E00E94A90261E02B
:1025E00083E00E94C80165E070E080E090E00E9416
:1025F000A90260E083E00E94C80165E070E080E02D
:1026000090E00E94A90261E083E00E94C8016AE0B4
:1026100070E080E090E00E94A90268E873E180E049
:1026200090E00E94A9020E9451090E94C90A61E03B
:1026300083E00E94C8016AE070E080E090E00E94C0
:10264000A90260E083E00E94C8016AE070E080E0D7
:1026500090E00E94A90261E083E00E94C801DDCF02
:102660008091310390913203009739F0DC01ED91B4
:10267000FC910280F381E02D0995809133039091C4
:102680003403009739F0DC01ED91FC910280F38175
:10269000E02D09958091350390913603009739F02C
:1026A000DC01ED91FC910280F381E02D0994089505
:1026B000BB27FB015527AA27880F991FAA1FA4171C
:1026C00010F0A41B83955051B9F7A05DAA3308F010
:1026D000A95DA193009779F7B111B1931192CB0144
:1026E0000C947213DC01FC01672F71917723E1F7E1
:1026F000329704C07C916D9370836291AE17BF07CF
:10270000C8F308950E94C41308F481E00895E89482
:1027100009C097FB3EF490958095709561957F4F29
:102720008F4F9F4F9923A9F0F92F96E9BB279395D7
:10273000F695879577956795B795F111F8CFFAF4E7
:10274000BB0F11F460FF1BC06F5F7F4F8F4F9F4F18
:1027500016C0882311F096E911C0772321F09EE876
:10276000872F762F05C0662371F096E8862F70E0DC
:1027700060E02AF09A95660F771F881FDAF7880FB6
:102780009695879597F90895990F0008550FAA0B0C
:10279000E0E8FEEF16161706E807F907C0F0121674
:1027A0001306E407F50798F0621B730B840B950B77
:1027B00039F40A2661F0232B242B252B21F40895CC
:1027C0000A2609F4A140A6958FEF811D811D089569
:1027D0000E94FB130C946C140E945E1438F00E944B
:1027E000651420F0952311F00C9455140C945B148F
:1027F00011240C94A0140E947D1470F3959FC1F3D2
:10280000950F50E0551F629FF001729FBB27F00D9E
:10281000B11D639FAA27F00DB11DAA1F649F6627F3
:10282000B00DA11D661F829F2227B00DA11D621F42
:10283000739FB00DA11D621F839FA00D611D221FFC
:10284000749F3327A00D611D231F849F600D211DE0
:10285000822F762F6A2F11249F5750409AF0F1F063
:1028600088234AF0EE0FFF1FBB1F661F771F881FCC
:1028700091505040A9F79E3F510580F00C9455149B
:102880000C94A0145F3FE4F3983ED4F386957795BB
:102890006795B795F795E7959F5FC1F7FE2B880F72
:1028A000911D9695879597F9089597F99F6780E808
:1028B00070E060E008959FEF80EC089500240A9492
:1028C0001616170618060906089500240A9412160B
:1028D0001306140605060895092E0394000C11F43E
:1028E000882352F0BB0F40F4BF2B11F460FF04C0EB
:1028F0006F5F7F4F8F4F9F4F089557FD9058440F44
:10290000551F59F05F3F71F04795880F97FB991F4E
:1029100061F09F3F79F0879508951216130614060B
:10292000551FF2CF4695F1DF08C016161706180698
:10293000991FF1CF86957105610508940895E89473
:10294000BB2766277727CB0197F90895F999FECF22
:1029500092BD81BDF89A992780B50895262FF999DF
:10296000FECF1FBA92BD81BD20BD0FB6F894FA9A72
:10297000F99A0FBE019608950E94FE14A59F900D2E
:10298000B49F900DA49F800D911D112408952F9246
:102990003F924F925F926F927F928F929F92AF92EF
:1029A000BF92CF92DF92EF92FF920F931F93CF933C
:1029B000DF93CDB7DEB7CA1BDB0B0FB6F894DEBFD3
:1029C0000FBECDBF09942A88398848885F846E84F9
:1029D0007D848C849B84AA84B984C884DF80EE8043
:1029E000FD800C811B81AA81B981CE0FD11D0FB64C
:1029F000F894DEBF0FBECDBFED010895A29FB001D8
:102A0000B39FC001A39F700D811D1124911DB29F22
:102A1000700D811D1124911D08955058BB27AA27C0
:102A20000E9425150C946C140E945E1438F00E94CC
:102A3000651420F039F49F3F19F426F40C945B14CC
:102A40000EF4E095E7FB0C945514E92F0E947D14D9
:102A500058F3BA17620773078407950720F079F4D3
:102A6000A6F50C949F140EF4E0950B2EBA2FA02D12
:102A70000B01B90190010C01CA01A0011124FF272B
:102A8000591B99F0593F50F4503E68F11A16F04026
:102A9000A22F232F342F4427585FF3CF4695379525
:102AA0002795A795F0405395C9F77EF41F16BA0BEA
:102AB000620B730B840BBAF09150A1F0FF0FBB1F98
:102AC000661F771F881FC2F70EC0BA0F621F731FE1
:102AD000841F48F4879577956795B795F7959E3F3E
:102AE00008F0B0CF9395880F08F09927EE0F9795CF
:102AF000879508950E948E150C946C140E9465149D
:102B000058F00E945E1440F029F45F3F29F00C94C5
:102B1000551451110C94A0140C945B140E947D1454
:102B200068F39923B1F3552391F3951B550BBB27FC
:102B3000AA2762177307840738F09F5F5F4F220F41
:102B4000331F441FAA1FA9F335D00E2E3AF0E0E838
:102B500032D091505040E695001CCAF72BD0FE2F82
:102B600029D0660F771F881FBB1F26173707480716
:102B7000AB07B0E809F0BB0B802DBF01FF279358CE
:102B80005F4F3AF09E3F510578F00C9455140C9429
:102B9000A0145F3FE4F3983ED4F38695779567954C
:102BA000B795F7959F5FC9F7880F911D9695879503
:102BB00097F90895E1E0660F771F881FBB1F621722
:102BC00073078407BA0720F0621B730B840BBA0BE0
:102BD000EE1F88F7E09508950E94851488F09F57AE
:102BE00098F0B92F9927B751B0F0E1F0660F771F31
:102BF000881F991F1AF0BA95C9F714C0B13091F027
:102C00000E949F14B1E008950C949F14672F782FB1
:102C10008827B85F39F0B93FCCF3869577956795EB
:102C2000B395D9F73EF490958095709561957F4F57
:102C30008F4F9F4F089597FB16F40E945F160C94D8
:102C40002216E894F92F96EBFF2381F01216130653
:102C50001406440B9395F695879577956795579548
:102C60004040FF23B9F71BC099270895882351F4EA
:102C70009850D2F7872B762F652F542F432F322F62
:102C800020E0B1F3121613061406440B88233AF021
:102C90009A95440F551F661F771F881FCAF7552343
:102CA0004AF4440F551F11F460FF04C06F5F7F4F5B
:102CB0008F4F9F4F880F9695879597F90895909518
:102CC00080957095609550954095309521953F4F32
:102CD0004F4F5F4F6F4F7F4F8F4F9F4F08950E9411
:102CE000C41308F48FEF08950E94C413880B990B46
:102CF0000895DB018F939F930E94BC14BF91AF9105
:102D0000A29F800D911DA39F900DB29F900D112445
:102D10000895A1E21A2EAA1BBB1BFD010DC0AA1F1C
:102D2000BB1FEE1FFF1FA217B307E407F50720F034
:102D3000A21BB30BE40BF50B661F771F881F991FAF
:102D40001A9469F760957095809590959B01AC01F8
:102D5000BD01CF010895B7FF0C94BC140E94BC14B0
:102D6000821B930B0895DF93CF931F930F939A9D2C
:102D7000F02D219FF00D8B9DF00D8A9DE02DF10D22
:102D8000039FF00D029FE00DF11D4E9DE00DF11D22
:102D90005E9DF00D4F9DF00D7F936F93BF92AF92AC
:102DA0005F934F93D5010E94FE148B01AC01D701B4
:102DB0000E94FE14EB01E80FF91FD6010E940217D2
:102DC0002F913F91D6010E94FE14C60FD71FE81F16
:102DD000F91FAF91BF910E9402172F913F910E945E
:102DE000FE14C60FD71FE81FF91FD6010E94FE145C
:102DF000E60FF71F9801BE01CF010F911F91CF91F0
:102E0000DF9108950E94FE14460F571FC81FD91F57
:102E100008F431960895689401C0E894F92FF12BD5
:102E200012F00C943F17A0E0B0E0E9E1F7E10C9458
:102E3000CD14092E059422F40E949B17112392F4BD
:102E4000F0E80F26FFEFE094F09400951095B09411
:102E5000C094D094A194BF0ACF0ADF0AEF0AFF0AF8
:102E60000F0B1F0B0E944A1707FC0E949B17CDB740
:102E7000DEB7ECE00C94E914689401C0E8948F92FA
:102E80009F92CF93DF930E944A17DF91CF919F903B
:102E90008F90089588249924F401E401B0E49F936D
:102EA000AA279A158B049C04ED05FE05CF05D007D3
:102EB000A10798F4AD2FDC2FCF2FFE2FE92D982CF2
:102EC000892E982F872F762F652F542F432F322F3F
:102ED0002227B85031F7BF9127C01B2EBF91BB27C7
:102EE000220F331F441F551F661F771F881F991F0E
:102EF000881C991CEE1FFF1FCC1FDD1FAA1FBB1FC4
:102F00008A149B04EC05FD05CE05DF05A007B1077B
:102F100048F08A189B08EC09FD09CE09DF09A00BCF
:102F2000B10B21601A94E1F62EF49401AF01BE01B9
:102F3000CD01000C08956095709580959095309521
:102F40004095509521953F4F4F4F5F4F6F4F7F4FAB
:102F50008F4F9F4F0895002E083090F0982F872FA5
:102F6000762F652F542F432F322F22270850F4CF6E
:102F7000220F331F441F551F661F771F881F991F7D
:102F80000A95B2F7002D089597FD1094002E083091
:102F900098F00850232F342F452F562F672F782F66
:102FA000892F912DF4CF15949795879577956795EF
:102FB00057954795379527950A95AAF71124002D1F
:102FC00008952A0D3B1D4C1D5D1D6E1D7F1D801F2C
:102FD000911F08952A193B094C095D096E097F0963
:102FE000800B910B08950024A7FD00942A1730054B
:102FF0004005500560057005800590050895EE0FA9
:10300000FF1F0590F491E02D09940F931F93CF9328
:10301000DF938230910510F482E090E0E0916A0342
:10302000F0916B0330E020E0B0E0A0E0309799F43D
:103030002115310509F44AC0281B390B243031050C
:10304000D8F58A819B816115710589F1FB01938314
:103050008283FE0111C04081518102811381481792
:103060005907E0F04817590799F4109761F0129644
:103070000C93129713961C933296CF01DF91CF9148
:103080001F910F91089500936A0310936B03F4CF7F
:103090002115310551F04217530738F0A901DB0122
:1030A0009A01BD01DF01F801C1CFEF01F9CF909383
:1030B0006B0380936A03CDCFFE01E20FF31F819370
:1030C00091932250310939832883D7CF2091680307
:1030D00030916903232B41F42091150130911601A1
:1030E00030936903209368032091130130911401F8
:1030F0002115310541F42DB73EB74091170150918C
:103100001801241B350BE0916803F0916903E21765
:10311000F307A0F42E1B3F0B2817390778F0AC01FA
:103120004E5F5F4F2417350748F04E0F5F1F5093D7
:10313000690340936803819391939FCFF0E0E0E0AF
:103140009CCFCF93DF930097E9F0FC013297138275
:103150001282A0916A03B0916B03ED0130E020E090
:103160001097A1F420813181820F931F2091680371
:10317000309169032817390709F061C0F09369039A
:10318000E0936803DF91CF910895EA01CE17DF073E
:10319000E8F54A815B819E0141155105B1F7E901CE
:1031A000FB83EA8349915991C40FD51FEC17FD07A2
:1031B00061F4808191810296840F951FE9019983C2
:1031C0008883828193819B838A83F0E0E0E012967A
:1031D0008D919C9113970097B9F52D913C91119782
:1031E000CD010296820F931F2091680330916903ED
:1031F0002817390739F6309751F510926B03109262
:103200006A03B0936903A0936803BCCFD383C283DE
:1032100040815181840F951FC817D90761F44E5F13
:103220005F4F88819981480F591F518340838A815C
:103230009B81938382832115310509F0B0CFF093F0
:103240006B03E0936A039ECFFD01DC01C0CF1382C4
:103250001282D7CFB0E0A0E0E0E3F9E10C94C9140A
:103260008C01009751F4CB010E9405188C01C80114
:10327000CDB7DEB7E0E10C94E514FC01E60FF71FD3
:103280009C0122503109E217F30708F49DC0D901CF
:10329000CD91DC911197C617D70798F0C530D105AD
:1032A00030F3CE0104978617970708F3C61BD70B98
:1032B0002297C193D1936D937C93CF010E94A11863
:1032C000D6CF5B01AC1ABD0A4C018C0E9D1EA0919D
:1032D0006A03B0916B03512C412CF12CE12C109717
:1032E00031F580916803909169038815990509F07B
:1032F0005CC04616570608F058C0809113019091A3
:103300001401009741F48DB79EB740911701509179
:103310001801841B950BE817F90708F055C0F093C6
:103320006903E0936803F90171836083A0CF8D91F5
:103330009C91119712966C90129713967C9013970C
:10334000A815B90559F56C0142E0C40ED11CCA1488
:10335000DB0420F1AC014A195B09DA0112961597DA
:1033600080F06282738251834083D9016D937C9394
:10337000E114F10471F0D7011396FC93EE931297C8
:1033800076CF22968C0F9D1FF90191838083F301E4
:10339000EFCFF0936B03E0936A0369CF48165906A9
:1033A00008F42C017D01D3019ACFCB010E940518AE
:1033B0007C01009749F0AE01B8010E94E719C801ED
:1033C0000E94A118870153CF10E000E050CFFB010D
:1033D000DC0102C001900D9241505040D8F7089591
:1033E000FB01DC0101900D920020E1F7089510E04F
:1033F000C2E6D0E004C0FE010E94FF172196C3364A
:08340000D107C9F7F894FFCFD2
:103408000000CA4300004A4300807C45000080BF9A
:1034180000000100006C03800000000000320192EF
:1034280000BF007F01F000CE00E20000000000674E
:10343800043A047D0510043304200411040D0A0025
:103448006E616E00696E66006F7666007B2274227C
:103458003A5B002C305D2C2268223A5B002C305DF0
:103468002C2270223A5B002C305D2C226C223A5BB5
:10347800002C315D2C2262223A002C2273223A5B06
:103488000022424D4532383022002C00224D41584E
:10349800343430303922005D7D00454550524F4D5F
:1034A8002E72656164283129006368616E6E656CEF
:0E34B800203C3D203130300041542B430000B9
:00000001FF
