:100000000C945D000C9485000C9485000C94850084
:100010000C9485000C9485000C9485000C9485004C
:100020000C9485000C9485000C9485000C9485003C
:100030000C9485000C9485000C9485000C9485002C
:100040000C9431090C9485000C94FF080C94D90889
:100050000C9485000C9485000C9485000C9485000C
:100060000C947B090C94850000000008000201003C
:100070000003040700000000000000000000000072
:10008000250028002B0000000000240027002A0083
:10009000040404040404040402020202020203032E
:1000A0000303030301020408102040800102040836
:1000B00010200102040810209A0A11241FBECFEF5D
:1000C000D8E0DEBFCDBF23E0AEEAB1E001C01D92B3
:1000D000A032B207E1F711E0A0E0B1E0E8E7F2E218
:1000E00002C005900D92AE3AB107D9F710E0CDE508
:1000F000D0E004C02197FE010E94420FCC35D10709
:10010000C9F70E94D30A0C943A110C940000809114
:10011000010290910202891B990B089590E0FC0165
:10012000EC55FF4F249180579F4FFC018491882309
:1001300099F090E0880F991FFC01EA57FF4FA591B5
:10014000B491FC01E458FF4F859194918FB7F894D6
:10015000EC91E22BEC938FBF0895AF92BF92CF92B8
:10016000DF92EF92FF920F931F93CF93DF936C0177
:100170007B018B01040F151FEB015E01AE18BF0858
:10018000C017D10759F06991D601ED91FC9101900A
:10019000F081E02DC6010995892B79F7C501DF9122
:1001A000CF911F910F91FF90EF90DF90CF90BF9074
:1001B000AF900895FC01538D448D252F30E0842F9E
:1001C00090E0821B930B541710F0CF96089501977F
:1001D0000895FC01918D828D981761F0A28DAE0F6C
:1001E000BF2FB11D5D968C91928D9F5F9F73928FF3
:1001F00090E008958FEF9FEF0895FC01918D828D1F
:10020000981731F0828DE80FF11D858D90E00895EB
:100210008FEF9FEF0895FC01918D228D892F90E043
:10022000805C9F4F821B91098F739927089583E704
:1002300092E00E940B0121E0892B09F420E0822F3B
:10024000089580E090E0892B29F00E941701811128
:100250000C9400000895FC01A48DA80FB92FB11DC6
:10026000A35ABF4F2C91848D90E001968F739927EC
:10027000848FA689B7892C93A089B1898C918370CA
:1002800080648C93938D848D981306C00288F389C3
:10029000E02D80818F7D80830895EF92FF920F93F0
:1002A0001F93CF93DF93EC0181E0888F9B8D8C8D22
:1002B00098131AC0E889F989808185FF15C09FB716
:1002C000F894EE89FF896083E889F98980818370D9
:1002D000806480839FBF81E090E0DF91CF911F9188
:1002E0000F91FF90EF900895F62E0B8D10E00F5FA9
:1002F0001F4F0F731127E02E8C8D8E110CC00FB67F
:1003000007FCFACFE889F989808185FFF5CFCE0116
:100310000E942B01F1CFEB8DEC0FFD2FF11DE35A65
:10032000FF4FF0829FB7F8940B8FEA89FB89808199
:100330008062CFCFCF93DF93EC01888D8823B9F013
:10034000AA89BB89E889F9898C9185FD03C08081E0
:1003500086FD0DC00FB607FCF7CF8C9185FFF2CF5D
:10036000808185FFEDCFCE010E942B01E9CFDF9187
:10037000CF91089590E0FC01E859FF4F2491FC01D2
:10038000EC55FF4F3491FC01E057FF4FE491EE2311
:10039000C9F0222339F0233001F1A8F4213019F1FA
:1003A000223029F1F0E0EE0FFF1FE458FF4FA59136
:1003B000B4918FB7F894EC91611126C030953E232B
:1003C0003C938FBF08952730A9F02830C9F024301E
:1003D00049F7809180008F7D03C0809180008F77E6
:1003E00080938000DFCF84B58F7784BDDBCF84B569
:1003F0008F7DFBCF8091B0008F778093B000D2CFFC
:100400008091B0008F7DF9CF3E2BDACF3FB7F894C3
:100410008091FD019091FE01A091FF01B091000239
:1004200026B5A89B05C02F3F19F00196A11DB11D4F
:100430003FBFBA2FA92F982F8827BC01CD01620F8B
:10044000711D811D911D42E0660F771F881F991F46
:100450004A95D1F708958F929F92AF92BF92CF9213
:10046000DF92EF92FF924B015C010E9406026B014A
:100470007C010E9406026C197D098E099F09683E65
:10048000734081059105A8F321E0821A9108A10823
:10049000B10888EEC80E83E0D81EE11CF11C81145F
:1004A0009104A104B10429F7FF90EF90DF90CF9061
:1004B000BF90AF909F908F9008952091D301260F09
:1004C0003327331F21323105ECF420914902FC011E
:1004D00090E080E0243069F082E00895A091D3019B
:1004E0002191AC014F545E4FA40FB52FB11D2C9339
:1004F0000196861798F38091D301680F6093D3011A
:1005000080E0089581E008951092490281E080938F
:1005100048021092230261E082E10E94BA0161E088
:1005200083E10E94BA01E9EBF0E080818E7F808355
:1005300080818D7F808388E48093B80085E48093F8
:10054000BC000895CF93DF9391E09093B00188238E
:10055000B9F0C091B800D091BA008091BC008A7BFC
:100560008093BC0060E082E10E94BA0160E083E118
:100570000E94BA010E948402D093BA00C093B800CE
:10058000DF91CF9108958F929F92AF92BF92CF92B9
:10059000DF92EF92FF920F931F93CF93DF93D0914F
:1005A0007202D13208F0D7C0182FC09171020E9498
:1005B00006026B017C018091490281116BC082E0CF
:1005C00080934902109348028FEF80934702109264
:1005D0004602D0934502A1E5B2E0E5E2F2E080E018
:1005E000D81391C01092240280912402CC0FC82B02
:1005F000C093240280912302813009F088C01092B8
:1006000023020E9406026B017C01809124028093E8
:10061000BB0080914B0290914C02A0914D02B09191
:100620004E02892B8A2B8B2BA1F00E94060200918F
:100630004B0210914C0220914D0230914E026C19E8
:100640007D098E099F09061717072807390708F43F
:1006500042C08091BC0083FDD8CF85EC8093BC0064
:100660000E9406026B017C0180914902823009F4EC
:1006700050C0809147028F3F09F46FC080914702BC
:10068000803209F46CC080914702803309F469C05C
:1006900084E026C080914B0290914C02A0914D02C3
:1006A000B0914E02892B8A2B8B2B09F484CF0E94A8
:1006B000060280904B0290904C02A0904D02B090A8
:1006C0004E026C197D098E099F0986169706A806A9
:1006D000B90608F070CF80914A020E94A20285E01C
:1006E000109250021092720210924F02DF91CF913D
:1006F0001F910F91FF90EF90DF90CF90BF90AF9040
:100700009F908F9008959D9191938F5F69CF85EE13
:10071000A5CF80914B0290914C02A0914D02B091D7
:100720004E02892B8A2B8B2B09F49ECF0E94060246
:1007300000914B0210914C0220914D0230914E02DB
:100740006C197D098E099F090617170728073907B5
:1007500008F08ACFC0CF81E0C3CF80E0C1CF82E074
:10076000BFCF83E0BDCF089508950895E0910202C0
:1007700080910102E81730F4F0E0ED5FFD4F8081D9
:1007800090E008958FEF9FEF08959091020280917D
:1007900001022FEF3FEF981748F4E92FF0E0ED5FEB
:1007A000FD4F208130E09F5F90930202C9010895C0
:1007B000CF92DF92EF92FF920F931F93CF93DF932D
:1007C0007C01CB018A0120914F02222389F0EB01A9
:1007D0006B01C40ED51ECC15DD0569F06991D701FA
:1007E000ED91FC910190F081E02DC7010995F3CFC7
:1007F000642F0E945D02C801DF91CF911F910F917C
:10080000FF90EF90DF90CF900895CF93DF931F92EA
:10081000CDB7DEB7698320914F022223F9F02091F2
:100820007202203258F021E030E0FC013383228351
:1008300090E080E00F90DF91CF9108958091500279
:10084000E82FF0E0EF5AFD4F998190838F5F8093FE
:1008500050028093720281E090E0ECCF61E0CE0123
:1008600001960E945D02F7CF682F80E193E00C941F
:10087000050490E080E008958F929F92AF92BF921E
:10088000CF92DF92EF92FF920F931F93CF93DF935C
:100890007C01D62F0E9406024B015C018091490227
:1008A000811167C0CD2F81E0809349028093480277
:1008B0009FEF90934702109246029D0F909345023E
:1008C0008093240280912402EE0CFF1C8E298093D9
:1008D000240280912302813009F083C01092230208
:1008E0000E9406026B017C01809124028093BB0070
:1008F00080914B0290914C02A0914D02B0914E021A
:10090000892B8A2B8B2BA1F00E94060280904B0230
:1009100090904C02A0904D02B0904E026C197D094F
:100920008E099F0986169706A806B90608F442C0E4
:100930008091BC0083FDD8CF85EC8093BC000E94E1
:1009400006026B017C0180914902813009F44BC0A1
:10095000809146028D1710F4C0914602E5E2F2E064
:10096000A3E0B2E080E08C1751F191919D938F5FED
:10097000FACF80914B0290914C02A0914D02B09120
:100980004E02892B8A2B8B2B09F488CF0E940602FA
:1009900000914B0210914C0220914D0230914E0279
:1009A000681979098A099B09061717072807390763
:1009B00008F074CF80914A020E94A202C0E0109217
:1009C0000202C09301028C2FDF91CF911F910F91F2
:1009D000FF90EF90DF90CF90BF90AF909F908F905F
:1009E000089585EEAACF80914B0290914C02A09180
:1009F0004D02B0914E02892B8A2B8B2B09F4A3CF89
:100A00000E94060280904B0290904C02A0904D02F2
:100A1000B0904E026C197D098E099F0986169706C3
:100A2000A806B90608F08FCFC5CFCF93DF9391E02A
:100A300090934F0290E490937102109250021092A2
:100A40007202682F80E193E00E94050481E00E9419
:100A5000C30264E670E080E090E00E942B0263E055
:100A600070E080E490E00E943C048091010290914B
:100A70000202891B990B03973CF461E070E080E06F
:100A800090E00E942B02F1CF80E193E00E94C50329
:100A9000D82F80E0C82F80E193E00E94C5038C0F1F
:100AA0009D1F8C7FDF91CF910895CF93109202020A
:100AB0001092010210925002109272020E9484025F
:100AC00083EB93E09093D2018093D10184EB93E088
:100AD0009093D6018093D501C1E0C0934F0280E48A
:100AE0008093710287EE90E00E94340481E00E94BE
:100AF000C30262E370E080E090E00E942B0261E0BC
:100B000070E080E490E00E943C04809101029091AA
:100B10000202891B990B019731F480E193E00E9456
:100B2000C503C093AE01C1E0C0934F028AE4809335
:100B30007102109250021092720282E090E00E94C4
:100B4000340480E490E00E94340481E00E94C302F7
:100B5000811102C0C093AF01CF910895FC010190B3
:100B60000020E9F73197AF01481B590BBC0183E71F
:100B700092E00C94AD008F929F92AF92BF920F9330
:100B80001F93CF93DF93CDB7DEB7A1970FB6F8943D
:100B9000DEBF0FBECDBF19A2423008F44AE08E017D
:100BA0000F5D1F4F842E912CB12CA12CA501940117
:100BB0000E94200FE62FB901CA01EA30F4F4E05D8B
:100BC000D801EE938D01232B242B252B79F790E070
:100BD00080E0109719F0CD010E94AE05A1960FB6E6
:100BE000F894DEBF0FBECDBFDF91CF911F910F9163
:100BF000BF90AF909F908F900895E95CE1CFCF9325
:100C0000DF930E94AE05EC0189E391E00E94AE05FE
:100C10008C0F9D1FDF91CF9108954F925F926F923D
:100C20007F928F929F92AF92BF92CF92DF92EF927C
:100C3000FF920F931F93CF936B017C01742EAC0135
:100C40009B010E941B0F882399F08CE391E0CF91C8
:100C50001F910F91FF90EF90DF90CF90BF90AF90DA
:100C60009F908F907F906F905F904F900C94AE0507
:100C700046015701E894B7F82FEF3FEF4FE75FE7E2
:100C8000C501B4010E941B0F81110DC02FEF3FEF72
:100C90004FE75FE7C501B4010E94970C18161CF4DA
:100CA00080E491E0D4CF2FEF3FEF4FE75FE4C7013F
:100CB000B6010E94160F18161CF484E491E0C7CF09
:100CC0002FEF3FEF4FE75FECC701B6010E94970C93
:100CD00087FDF3CF20E030E0A901C701B6010E94F3
:100CE000970C10E000E087FF0AC06DE283E792E016
:100CF0000E944D018C01F7FAF094F7F8F094C0E0EF
:100D000060E070E080E09FE37C1641F020E030E09E
:100D100040E251E40E94750ECF5FF6CFA701960125
:100D20000E94090E2B013C010E94E70E4B015C0161
:100D30004AE00E94BB057C01E00EF11ECC23C1F10C
:100D4000C501B4010E949C0C9B01AC01C301B2011E
:100D50000E94080E4B015C016EE283E792E00E9464
:100D60004D01E80EF91EC15018F120E030E040E2DC
:100D700051E4C501B4010E94FD0C2B013C010E940D
:100D8000E70E4B01B12CA12C4AE0C501B4010E9431
:100D9000BB05E80EF91EC501B4010E949C0C9B0125
:100DA000AC01C301B2010E94080E4B015C01DBCF14
:100DB000C701CF911F910F91FF90EF90DF90CF90DF
:100DC000BF90AF909F908F907F906F905F904F906B
:100DD0000895CF92DF92EF92FF920F931F93CF93DC
:100DE000DF938091AE018823C1F183EF0E94150546
:100DF000BC0190E080E00E949C0C22E538EB4FE2C1
:100E00005BE30E94FD0C26E636E64BE352E40E94CB
:100E1000080E60930001709301018093020190938A
:100E2000030185EF0E941505BC0190E080E00E945F
:100E30009C0C20E030E04AEF5AE30E94FD0C20E0D9
:100E400030E040EC50E40E94080E6093040170937F
:100E5000050180930601909307018091AF018823DB
:100E600009F45FC081E080934F028AE480937102AD
:100E7000109250021092720283E090E00E943404BB
:100E800081E00E94C30262E070E08AE490E00E9488
:100E90003C048091010290910202891B990B0297F8
:100EA00051F480E193E00E94C503EC0180E193E0FE
:100EB0000E94C5038C01BE0184E0660F771F8A95EE
:100EC000E1F777270F701127602B712B072E000C8D
:100ED000880B990B0E949E0C6B017C01C295CF7010
:100EE00061E070E002C0660F771FCA95E2F7072E37
:100EF000000C880B990B0E949E0C9B01AC01C70152
:100F0000B6010E94FD0C2CEE31E548E35DE30E9442
:100F1000FD0C609308017093090180930A0190937E
:100F20000B0180910E0120E4829FC0011124826098
:100F300080937C0080917A00806480937A00809115
:100F40007A0086FDFCCF9091780080917900892706
:100F50009827892790930D0180930C0188E491E0F4
:100F60000E94AE0560910001709101018091020123
:100F70009091030142E00E940D068FE491E00E94EF
:100F8000AE05609104017091050180910601909178
:100F9000070142E00E940D0689E591E00E94AE053E
:100FA000609108017091090180910A0190910B01F3
:100FB00042E00E940D0683E691E00E94AE0560913A
:100FC0000C0170910D0190E080E04AE00E94BB05A9
:100FD0008CE691E00E94AE058091AE01882321F05D
:100FE00083E791E00E94AE058091AE01882341F035
:100FF0008091AF01882321F08BE791E00E94AE053C
:101000008091AF01882321F08DE791E00E94AE0529
:1010100088E891E00E94FF0583E792E0DF91CF919D
:101020001F910F91FF90EF90DF90CF900C949A0159
:101030000F931F93CF93DF93EC01888199810097E1
:1010400059F02A813B812617370730F081E0DF9184
:10105000CF911F910F9108958B016F5F7F4F0E9479
:101060006D10009759F0998388831B830A832C8124
:101070003D81232B59F7FC011082E8CF80E0E7CFB8
:10108000EF92FF920F931F93CF93DF93611571053A
:1010900041F480E0DF91CF911F910F91FF90EF908D
:1010A000089541155105B1F07B01EC010C811D81C2
:1010B000040F151FB8010E941808882351F32881D6
:1010C00039818C819D81B701820F931F0E9433115A
:1010D0001D830C8381E0DECFFB0101900020E9F746
:1010E0003197AF01461B570B0C944008EF92FF92CB
:1010F0000F931F93CF93DF93EC017B018A01BA0119
:101100000E94180828813981811114C021153105E8
:1011100019F0C9010E94E40F198218821D821C82F5
:101120001B821A82CE01DF91CF911F910F91FF9008
:10113000EF9008951D830C83B701C9010E943311FC
:10114000F1CF85ED8093BC0080914B0290914C02D1
:10115000A0914D02B0914E020796A11DB11D23E052
:10116000B695A795979587952A95D1F72091BC00BC
:1011700024FD03C010924902089540914B02509102
:101180004C0260914D0270914E02452B462B472B2D
:1011900069F30097A105B10541F025E32A95F1F720
:1011A00000000197A109B109E1CF80914A020C9496
:1011B000A2021F920F920FB60F9211242F933F930A
:1011C0004F935F936F937F938F939F93AF93BF934F
:1011D000EF93FF9383E792E00E942B01FF91EF9141
:1011E000BF91AF919F918F917F916F915F914F913F
:1011F0003F912F910F900FBE0F901F9018951F9247
:101200000F920FB60F9211242F938F939F93EF930A
:10121000FF93E0918302F09184028081E091890242
:10122000F0918A0282FD1BC0908180918C028F5FB9
:101230008F7320918D02821741F0E0918C02F0E0D3
:10124000ED58FD4F958F80938C02FF91EF919F9108
:101250008F912F910F900FBE0F901F901895808146
:10126000F4CF1F920F920FB60F9211242F933F933A
:101270008F939F93AF93BF938091F9019091FA015F
:10128000A091FB01B091FC013091F80123E0230F04
:101290002D3758F50196A11DB11D2093F8018093BB
:1012A000F9019093FA01A093FB01B093FC018091A6
:1012B000FD019091FE01A091FF01B0910002019605
:1012C000A11DB11D8093FD019093FE01A093FF012C
:1012D000B0930002BF91AF919F918F913F912F9159
:1012E0000F900FBE0F901F90189526E8230F0296BF
:1012F000A11DB11DD2CF1F920F920FB60F921124D4
:101300002F933F934F935F936F937F938F939F930D
:10131000AF93BF93EF93FF938091B900887F80369E
:1013200009F44AC0F0F5883209F4A7C018F58031F5
:1013300009F49BC0B8F4882309F4F9C0883009F493
:1013400094C0FF91EF91BF91AF919F918F917F9149
:101350006F915F914F913F912F910F900FBE0F9022
:101360001F901895883109F488C0803251F7809316
:10137000470214C0803409F49DC040F48033B9F3AF
:101380008833F9F68093470285ECB0C0803509F4C4
:1013900085C0883509F496C0883499F60E94A10862
:1013A000D0CF883909F48CC038F5883729F050F44B
:1013B000883611F0803729F683E080934902109235
:1013C000F70157C0883809F47BC0803919F080389C
:1013D00009F0B7CF8091F701803208F071C0E09139
:1013E000F70181E08E0F8093F7018091BB00F0E060
:1013F000E952FE4F80833DC0803B39F0E0F4803AF3
:1014000009F479C0883A09F09CCF84E080934902BE
:101410001092D4011092D301E091D101F091D20148
:1014200009958091D30181110FC081E08093D30190
:101430001092B10109C0803C09F4A6CF883C09F4A0
:10144000A3CF883B09F07DCFE091D40181E08E0FDE
:101450008093D401F0E0EF54FE4F80818093BB0075
:101460009091D4018091D30129C08091240280936E
:10147000BB0085EC8093BC0064CF909146028091C4
:101480004502981758F5E091460281E08E0F80934F
:101490004602F0E0EB5DFD4F8081E9CFE09146022E
:1014A00081E08E0F809346028091BB00F0E0EB5DFF
:1014B000FD4F808390914602809145029817C8F2B3
:1014C00085E8D8CFE091460281E08E0F80934602F6
:1014D0008091BB00F0E0EB5DFD4F8083809148027E
:1014E00081115CCF81E08093230284EA8093BC0069
:1014F0001092490226CF85EC8093BC0010924902DD
:101500008091F701803230F4E091F701F0E0E95288
:10151000FE4F10826091F70170E0E091D501F091EB
:10152000D60187ED91E009951092F7010ACF10924C
:10153000470234CFE3E7F2E01382128288EE93E0B1
:10154000A0E0B0E084839583A683B78329E131E0EE
:101550003183208325EC30E03587248724EC30E08C
:101560003787268720EC30E0318B208B21EC30E070
:10157000338B228B22EC30E0358B248B26EC30E051
:10158000378B268B118E128E138E148EE0E1F3E0D2
:101590001382128284839583A683B7838BE291E0C2
:1015A000918380830895CF93DF93CDB7DEB765979E
:1015B0000FB6F894DEBF0FBECDBF789484B58260BD
:1015C00084BD84B5816084BD85B5826085BD85B5E7
:1015D000816085BD80916E00816080936E00109265
:1015E00081008091810082608093810080918100E0
:1015F0008160809381008091800081608093800071
:101600008091B10084608093B1008091B0008160CE
:101610008093B00080917A00846080937A008091FA
:101620007A00826080937A0080917A008160809352
:101630007A0080917A00806880937A001092C100CD
:1016400060E083E00E94BA0182E00E948E0084E0A4
:101650000E948E0086E00E948E0087E00E948E002D
:1016600088E00E948E0089E00E948E008AE00E943D
:101670008E008BE00E948E008CE00E948E008DE038
:101680000E948E008EE00E948E008FE00E948E00ED
:1016900081E10E948E0085E00E948E0061E085E07D
:1016A0000E94BA0183E00E948E0060E083E00E9405
:1016B000BA0183E080930E01E0918302F0918402ED
:1016C00082E08083E0917F02F09180021082E091BD
:1016D0008102F09182028FEC808310928B02E09164
:1016E0008702F091880286E08083E0918502F09184
:1016F0008602808180618083E0918502F09186027C
:10170000808188608083E0918502F09186028081EB
:1017100080688083E0918502F091860280818F7DD0
:10172000808381E090E00E94BB0D882309F48AC089
:101730008BE891E00E94FF0590E080E00E94BB0DE5
:10174000F82E84E68F1508F47DC08AE991E00E94A6
:10175000FF0560E085E00E94BA016DE270E080E084
:1017600090E00E942B02198A188A1B8A1A8A1D8A05
:101770001C8A44E050E069EA71E0CE0140960E9484
:10178000760884E66BE371E0F81611F067EA71E021
:10179000CE0140960E946C0889E06BE371E08F15E2
:1017A00010F067EA71E0CE0140960E946C081B863B
:1017B0001A861D861C861F861E864AE08E010F5FD4
:1017C0001F4FB8018F2D90E00E946D0CF801019021
:1017D0000020E9F73197AF01401B510BB801CE0152
:1017E0000A960E9476084E855F856A857B85CE01C4
:1017F00040960E9440088A859B85009711F00E94C0
:10180000E40F4C895D896889798983E792E00E94B9
:10181000AD0089E391E00E94AE0562E370E080E0F4
:1018200090E00E942B0261E085E00E94BA0160E036
:1018300081E090E00E94C30D88899989009711F09A
:101840000E94E40F0E9455050E94E9066EE170E0D7
:1018500080E090E00E942B0261E083E00E94BA01E8
:1018600065E070E080E090E00E942B0260E083E0A1
:101870000E94BA0165E070E080E090E00E942B02D7
:1018800061E083E00E94BA016AE070E080E090E0ED
:101890000E942B0268E873E180E090E00E942B0236
:1018A0000E9455050E94E90661E083E00E94BA01AA
:1018B0006AE070E080E090E00E942B0260E083E04C
:1018C0000E94BA016AE070E080E090E00E942B0282
:1018D00061E083E00E94BA01DDCFBB27FB01552701
:1018E000AA27880F991FAA1FA41710F0A41B83957D
:1018F0005051B9F7A05DAA3308F0A95DA1930097F4
:1019000079F7B111B1931192CB010C94870CDC01E2
:10191000FC01672F71917723E1F7329704C07C9126
:101920006D9370836291AE17BF07C8F308950E944C
:10193000D90C08F481E00895E89409C097FB3EF4BF
:1019400090958095709561957F4F8F4F9F4F99230C
:10195000A9F0F92F96E9BB279395F695879577958A
:101960006795B795F111F8CFFAF4BB0F11F460FF4A
:101970001BC06F5F7F4F8F4F9F4F16C0882311F0A2
:1019800096E911C0772321F09EE8872F762F05C0B6
:10199000662371F096E8862F70E060E02AF09A9551
:1019A000660F771F881FDAF7880F9695879597F946
:1019B0000895990F0008550FAA0BE0E8FEEF1616E0
:1019C0001706E807F907C0F012161306E407F50733
:1019D00098F0621B730B840B950B39F40A2661F0A7
:1019E000232B242B252B21F408950A2609F4A1404A
:1019F000A6958FEF811D811D08950E94100D0C94F6
:101A0000810D0E94730D38F00E947A0D20F095230D
:101A100011F00C946A0D0C94700D11240C94B50DFA
:101A20000E94920D70F3959FC1F3950F50E0551FE2
:101A3000629FF001729FBB27F00DB11D639FAA2723
:101A4000F00DB11DAA1F649F6627B00DA11D661F72
:101A5000829F2227B00DA11D621F739FB00DA11D93
:101A6000621F839FA00D611D221F749F3327A00D4D
:101A7000611D231F849F600D211D822F762F6A2FE9
:101A800011249F5750409AF0F1F088234AF0EE0F4E
:101A9000FF1FBB1F661F771F881F91505040A9F77B
:101AA0009E3F510580F00C946A0D0C94B50D5F3F7C
:101AB000E4F3983ED4F3869577956795B795F795B7
:101AC000E7959F5FC1F7FE2B880F911D969587952F
:101AD00097F9089597F99F6780E870E060E00895AE
:101AE0009FEF80EC089500240A9416161706180636
:101AF0000906089500240A94121613061406050612
:101B00000895092E0394000C11F4882352F0BB0FA2
:101B100040F4BF2B11F460FF04C06F5F7F4F8F4F05
:101B20009F4F089557FD9058440F551F59F05F3F40
:101B300071F04795880F97FB991F61F09F3F79F0EF
:101B400087950895121613061406551FF2CF469571
:101B5000F1DF08C0161617061806991FF1CF8695F3
:101B60007105610508940895E894BB2766277727D7
:101B7000CB0197F90895F999FECF92BD81BDF89AEE
:101B8000992780B50895262FF999FECF1FBA92BDE7
:101B900081BD20BD0FB6F894FA9AF99A0FBE01964E
:101BA00008952F923F924F925F926F927F928F9201
:101BB0009F92AF92BF92CF92DF92EF92FF920F93DC
:101BC0001F93CF93DF93CDB7DEB7CA1BDB0B0FB6E6
:101BD000F894DEBF0FBECDBF09942A8839884888A3
:101BE0005F846E847D848C849B84AA84B984C88439
:101BF000DF80EE80FD800C811B81AA81B981CE0F30
:101C0000D11D0FB6F894DEBF0FBECDBFED01089514
:101C10005058BB27AA270E94200E0C94810D0E94C9
:101C2000730D38F00E947A0D20F039F49F3F19F4BB
:101C300026F40C94700D0EF4E095E7FB0C946A0DFD
:101C4000E92F0E94920D58F3BA17620773078407B1
:101C5000950720F079F4A6F50C94B40D0EF4E095F8
:101C60000B2EBA2FA02D0B01B90190010C01CA0156
:101C7000A0011124FF27591B99F0593F50F4503E01
:101C800068F11A16F040A22F232F342F4427585FF3
:101C9000F3CF469537952795A795F0405395C9F70B
:101CA0007EF41F16BA0B620B730B840BBAF09150C3
:101CB000A1F0FF0FBB1F661F771F881FC2F70EC062
:101CC000BA0F621F731F841F48F487957795679535
:101CD000B795F7959E3F08F0B0CF9395880F08F021
:101CE0009927EE0F9795879508950E94890E0C9479
:101CF000810D0E947A0D58F00E94730D40F029F476
:101D00005F3F29F00C946A0D51110C94B50D0C94A1
:101D1000700D0E94920D68F39923B1F3552391F34E
:101D2000951B550BBB27AA2762177307840738F04A
:101D30009F5F5F4F220F331F441FAA1FA9F335D0A7
:101D40000E2E3AF0E0E832D091505040E695001C5B
:101D5000CAF72BD0FE2F29D0660F771F881FBB1F15
:101D6000261737074807AB07B0E809F0BB0B802DF3
:101D7000BF01FF2793585F4F3AF09E3F510578F01F
:101D80000C946A0D0C94B50D5F3FE4F3983ED4F3C8
:101D9000869577956795B795F7959F5FC9F7880FF3
:101DA000911D9695879597F90895E1E0660F771F45
:101DB000881FBB1F621773078407BA0720F0621BD6
:101DC000730B840BBA0BEE1F88F7E09508950E9401
:101DD0009A0D88F09F5798F0B92F9927B751B0F016
:101DE000E1F0660F771F881F991F1AF0BA95C9F79F
:101DF00014C0B13091F00E94B40DB1E008950C947C
:101E0000B40D672F782F8827B85F39F0B93FCCF32E
:101E1000869577956795B395D9F73EF4909580951B
:101E2000709561957F4F8F4F9F4F08950E94D90CF9
:101E300008F48FEF08950E94D90C880B990B089530
:101E4000A1E21A2EAA1BBB1BFD010DC0AA1FBB1FBE
:101E5000EE1FFF1FA217B307E407F50720F0A21B30
:101E6000B30BE40BF50B661F771F881F991F1A949D
:101E700069F760957095809590959B01AC01BD01C7
:101E8000CF010895EE0FFF1F0590F491E02D099406
:101E90000F931F93CF93DF938230910510F482E06C
:101EA00090E0E0911E03F0911F0330E020E0B0E0ED
:101EB000A0E0309799F42115310509F44AC0281B98
:101EC000390B24303105D8F58A819B816115710564
:101ED00089F1FB0193838283FE0111C0408151810E
:101EE0000281138148175907E0F04817590799F400
:101EF000109761F012960C93129713961C933296DA
:101F0000CF01DF91CF911F910F91089500931E0390
:101F100010931F03F4CF2115310551F042175307D9
:101F200038F0A901DB019A01BD01DF01F801C1CF41
:101F3000EF01F9CF90931F0380931E03CDCFFE01D5
:101F4000E20FF31F81939193225031093983288343
:101F5000D7CF20911C0330911D03232B41F42091F6
:101F600011013091120130931D0320931C03209125
:101F70000F01309110012115310541F42DB73EB705
:101F80004091130150911401241B350BE0911C0367
:101F9000F0911D03E217F307A0F42E1B3F0B281747
:101FA000390778F0AC014E5F5F4F2417350748F0D2
:101FB0004E0F5F1F50931D0340931C038193919319
:101FC0009FCFF0E0E0E09CCFCF93DF930097E9F064
:101FD000FC01329713821282A0911E03B0911F035D
:101FE000ED0130E020E01097A1F420813181820FD3
:101FF000931F20911C0330911D032817390709F006
:1020000061C0F0931D03E0931C03DF91CF9108950D
:10201000EA01CE17DF07E8F54A815B819E01411591
:102020005105B1F7E901FB83EA8349915991C40F46
:10203000D51FEC17FD0761F4808191810296840F12
:10204000951FE90199838883828193819B838A8389
:10205000F0E0E0E012968D919C9113970097B9F50E
:102060002D913C911197CD010296820F931F2091E3
:102070001C0330911D032817390739F6309751F5A5
:1020800010921F0310921E03B0931D03A0931C0314
:10209000BCCFD383C28340815181840F951FC81761
:1020A000D90761F44E5F5F4F88819981480F591FAE
:1020B000518340838A819B819383828321153105DB
:1020C00009F0B0CFF0931F03E0931E039ECFFD01F4
:1020D000DC01C0CF13821282D7CFB0E0A0E0E3E7EB
:1020E000F0E10C94D30D8C01009751F4CB010E94C8
:1020F000480F8C01C801CDB7DEB7E0E10C94EF0DBD
:10210000FC01E60FF71F9C0122503109E217F3078B
:1021100008F49DC0D901CD91DC911197C617D7075E
:1021200098F0C530D10530F3CE0104978617970794
:1021300008F3C61BD70B2297C193D1936D937C9361
:10214000CF010E94E40FD6CF5B01AC1ABD0A4C014F
:102150008C0E9D1EA0911E03B0911F03512C412C8B
:10216000F12CE12C109731F580911C0390911D0307
:102170008815990509F05CC04616570608F058C046
:1021800080910F0190911001009741F48DB79EB797
:102190004091130150911401841B950BE817F90726
:1021A00008F055C0F0931D03E0931C03F9017183FF
:1021B0006083A0CF8D919C91119712966C9012978D
:1021C00013967C901397A815B90559F56C0142E058
:1021D000C40ED11CCA14DB0420F1AC014A195B09FE
:1021E000DA011296159780F06282738251834083E0
:1021F000D9016D937C93E114F10471F0D70113962A
:10220000FC93EE93129776CF22968C0F9D1FF901C7
:1022100091838083F301EFCFF0931F03E0931E03BC
:1022200069CF4816590608F42C017D01D3019ACFD5
:10223000CB010E94480F7C01009749F0AE01B80124
:102240000E942A11C8010E94E40F870153CF10E0B9
:1022500000E050CFFB01DC0102C001900D92415023
:102260005040D8F70895FB01DC0101900D92002049
:08227000E1F70895F894FFCF97
:102278000000CA4300004A43000080BF000001007C
:102288000020038000000000004D01AD00DA009A34
:10229800010B01E900FD00000000000504D8033926
:1022A80004B5038700C503B6030D0A006E616E000E
:1022B800696E66006F7666007B2274223A5B002C9A
:1022C800305D2C2268223A5B002C305D2C226C2277
:1022D8003A5B002C315D2C2262223A002C227322B8
:1022E8003A5B0022534854323122002C00224D41DF
:1022F80058343430303922005D7D00454550524F06
:102308004D2E72656164283129006368616E6E65BF
:0E2318006C203C3D203130300041542B4300FE
:00000001FF
