:100000000C9441010C9469010C9469010C947510D5
:100010000C9475100C9475100C9469010C94690182
:100020000C9469010C9469010C9469010C946901A8
:100030000C9469010C9469010C9469010C94690198
:100040000C942B100C9469010C94F90F0C94D30FA1
:100050000C9469010C9469010C9469010C94690178
:100060000C94ED100C9469014572726F72207265E8
:100070006164696E672068756D69646974792100CF
:10008000250048756D69646974793A2000C2B043EF
:100090000054656D70657261747572653A20004533
:1000A00072726F722072656164696E672074656D2B
:1000B0007065726174757265210000000000240093
:1000C00027002A00000000080002010000030407C6
:1000D00000000000000000002D2D2D2D2D2D2D2DB8
:1000E0002D2D2D2D2D2D2D2D2D2D2D2D2D2D2D2D40
:1000F0002D2D2D2D2D2D2D2D2D2D2D2D002500526D
:1001000065736F6C7574696F6E3A20200025004D21
:10011000696E2056616C75653A2020200025004DDF
:1001200061782056616C75653A20202000556E6913
:100130007175652049443A20202000447269766533
:1001400072205665723A20200053656E736F7220DC
:10015000547970653A200048756D69646974792036
:1001600053656E736F72002D2D2D2D2D2D2D2D2D80
:100170002D2D2D2D2D2D2D2D2D2D2D2D2D2D2D2DAF
:100180002D2D2D2D2D2D2D2D2D2D2D00C2B04300CB
:100190005265736F6C7574696F6E3A202000C2B03F
:1001A00043004D696E2056616C75653A2020200031
:1001B000C2B043004D61782056616C75653A2020CD
:1001C0002000556E697175652049443A2020200051
:1001D000447269766572205665723A202000536534
:1001E0006E736F7220547970653A200054656D709B
:1001F000657261747572652053656E736F72002D40
:100200002D2D2D2D2D2D2D2D2D2D2D2D2D2D2D2D1E
:100210002D2D2D2D2D2D2D2D2D2D2D2D2D2D2D2D0E
:100220002D2D2D00444854787820556E69666965F7
:10023000642053656E736F72204578616D706C65D4
:100240000000000000230026002900000000002517
:100250000028002B00040404040404040402020225
:1002600002020203030303030301020408102040F7
:100270008001020408102001020408102000081266
:10028000651611241FBECFEFD8E0DEBFCDBF12E050
:10029000A0E0B1E0E0ECF3E302C005900D92A632DD
:1002A000B107D9F724E0A6E2B2E001C01D92AE3951
:1002B000B207E1F711E0C0E4D1E004C02197FE01EC
:1002C0000E949918CF33D107C9F70E94EB130C9401
:1002D000D3190C940000AF92BF92CF92DF92EF92AD
:1002E000FF920F931F93CF93DF936C017B018B01E0
:1002F000040F151FEB015E01AE18BF08C017D10730
:1003000059F06991D601ED91FC910190F081E02DB9
:10031000C6010995892B79F7C501DF91CF911F910E
:100320000F91FF90EF90DF90CF90BF90AF90089526
:10033000FC01538D448D252F30E0842F90E0821BEB
:10034000930B541710F0CF96089501970895FC0170
:10035000918D828D981761F0A28DAE0FBF2FB11DC8
:100360005D968C91928D9F5F9F73928F90E0089520
:100370008FEF9FEF0895FC01918D828D981731F0DA
:10038000828DE80FF11D858D90E008958FEF9FEF2E
:100390000895FC01918D228D892F90E0805C9F4F04
:1003A000821B91098F73992708958CE293E00E9434
:1003B000C90121E0892B09F420E0822F089580E013
:1003C00090E0892B29F00E94D50181110C94000046
:1003D0000895FC01A48DA80FB92FB11DA35ABF4FDA
:1003E0002C91848D90E001968F739927848FA68934
:1003F000B7892C93A089B1898C91837080648C9388
:10040000938D848D981306C00288F389E02D808136
:100410008F7D80830895EF92FF920F931F93CF9368
:10042000DF93EC0181E0888F9B8D8C8D98131AC02F
:10043000E889F989808185FF15C09FB7F894EE8916
:10044000FF896083E889F989808183708064808373
:100450009FBF81E090E0DF91CF911F910F91FF90BE
:10046000EF900895F62E0B8D10E00F5F1F4F0F7366
:100470001127E02E8C8D8E110CC00FB607FCFACF21
:10048000E889F989808185FFF5CFCE010E94E901D5
:10049000F1CFEB8DEC0FFD2FF11DE35AFF4FF082F2
:1004A0009FB7F8940B8FEA89FB8980818062CFCF58
:1004B0000F931F93CF93DF938C01D0E0C0E0F8013E
:1004C000EC0FFD1F6491662341F08CE293E00E94E3
:1004D0000B02892B11F02196F2CFCE01DF91CF9143
:1004E0001F910F910895CF93DF93EC01888D88239E
:1004F000B9F0AA89BB89E889F9898C9185FD03C087
:10050000808186FD0DC00FB607FCF7CF8C9185FF6B
:10051000F2CF808185FFEDCFCE010E94E901E9CFC6
:10052000DF91CF910895833081F028F4813099F0E4
:100530008230A9F008958730A9F08830C9F084305E
:10054000B1F4809180008F7D03C0809180008F770F
:1005500080938000089584B58F7784BD089584B515
:100560008F7DFBCF8091B0008F778093B00008958E
:100570008091B0008F7DF9CFCF93DF93282F30E0AB
:10058000F901EC53FF4F8491F901E759FD4FD491E4
:10059000F901EB5AFD4FC491CC23A1F081110E94C7
:1005A0009302EC2FF0E0EE0FFF1FEF5BFD4FA591E4
:1005B000B491EC91ED2381E090E009F480E0DF91CB
:1005C000CF91089580E090E0FACF1F93CF93DF930F
:1005D000282F30E0F901EC53FF4F8491F901E759DE
:1005E000FD4FD491F901EB5AFD4FC491CC23A9F0F2
:1005F000162F81110E949302EC2FF0E0EE0FFF1FE7
:10060000E55BFD4FA591B4918FB7F894EC91111172
:1006100008C0D095DE23DC938FBFDF91CF911F916F
:100620000895DE2BF8CFCF93DF9390E0FC01E759DC
:10063000FD4F24918B5A9D4FFC0184918823C9F072
:1006400090E0880F991FFC01E654FF4FA591B491EB
:10065000FC01E55BFD4FC591D49161110DC09FB7C1
:10066000F8948C91209582238C9388812823288369
:100670009FBFDF91CF910895623051F49FB7F894F6
:100680003C91822F809583238C93E8812E2BEFCF92
:100690008FB7F894EC912E2B2C938FBFEACF9F92BB
:1006A000AF92BF92CF92DF92EF92FF920F931F9380
:1006B000CF93DF93D8E0C0E093E0E92EF12C2BE15B
:1006C000C22ED12C0BEE10E0AC2EB12CB594A79419
:1006D000CA2D9FB6F89461E082E00E941303C7011F
:1006E0000197F1F760E082E00E941303C6010197D1
:1006F000F1F782E00E94BC02892B09F0C068C801B2
:100700000197F1F79FBED150F9F68C2FDF91CF9171
:100710001F910F91FF90EF90DF90CF90BF90AF901F
:100720009F9008953FB7F8948091CD029091CE02AA
:10073000A091CF02B091D00226B5A89B05C02F3F53
:1007400019F00196A11DB11D3FBFBA2FA92F982FF7
:100750008827BC01CD01620F711D811D911D42E0F2
:10076000660F771F881F991F4A95D1F708958F92BA
:100770009F92AF92BF92CF92DF92EF92FF924B0186
:100780005C010E9492036B017C010E9492036C1930
:100790007D098E099F09683E734081059105A8F384
:1007A00021E0821A9108A108B10888EEC80E83E002
:1007B000D81EE11CF11C81149104A104B10429F795
:1007C000FF90EF90DF90CF90BF90AF909F908F9071
:1007D00008952091D7033091D8032817390771F471
:1007E0009091D5038091D603981741F0E091D503FD
:1007F000F0E0E457FD4F808190E008958FEF9FEF88
:1008000008950895EF92FF920F931F93CF93DF9374
:10081000DC015C96ED90FC905D97E114F10479F4B5
:1008200081E090E013969C938E93129790E080E085
:10083000DF91CF911F910F91FF90EF900895519606
:10084000ED91FC91529750968C915097982F9095DE
:100850000FB75E962C915E97122F127021FD609556
:10086000F8942081112319F1282B2083E701219787
:10087000F1F728E0462F50E0308160FF1AC0382B96
:100880003083E7012197F1F7BA01759567952150FB
:1008900089F7112381F08081892380830FBF5C96C3
:1008A0008D919C910197F1F781E090E0C1CF2923D0
:1008B000DCCF3923E5CF9081892BEFCF2091D7036F
:1008C0003091D8032817390761F48091D60320911D
:1008D000D50390E0805C9F4F821B91098F7399270D
:1008E000089590E080E008952091D7033091D803D7
:1008F00028173907B9F49091D5038091D60398173A
:1009000089F0E091D503F0E0E457FD4F808120911C
:10091000D50330E02F5F3F4F2F7333272093D5034C
:1009200090E008958FEF9FEF0895E091D703F09145
:10093000D803E817F90769F4A389B4899C918589DC
:10094000809589238C931092D8031092D70381E06D
:10095000089580E00895AF92BF92CF92DF92EF9218
:10096000FF920F931F93CF93DF93D82FB62EC8E03B
:100970009BEEE92EF12C2FE0C22ED12CAFB6F894CD
:1009800061E08B2D0E9413030D2F10E0D0FF1BC0E0
:10099000C6010197F1F760E08B2D0E941303C70198
:1009A0000197F1F7AFBE15950795D02FC15031F7DC
:1009B000DF91CF911F910F91FF90EF90DF90CF903B
:1009C000BF90AF900895C7010197F1F760E08B2DBC
:1009D0000E941303C601E4CFFC0183898B3051F4DC
:1009E00080E492E4AFE0B0E0FB0184A395A3A6A36A
:1009F000B7A3089580E894E8AEE1B0E0F5CFCF92D8
:100A0000DF92EF92FF92CF93DF93DC011796CC91A8
:100A10001797D0E06111DC2F18962C91189730E0D1
:100A2000220F331F2F5B3D4F50E040E0F9018591CD
:100A30009491FC01F080BA0190E080E0EF2DEC236E
:100A4000ED1310C04F5F5F4F1D96CD90DD90ED9080
:100A5000FC9050976C157D058E059F0538F36FEF60
:100A60007FEFCB01DF91CF91FF90EF90DF90CF90A0
:100A700008958F929F92AF92BF92CF92DF92EF92A2
:100A8000FF920F931F93CF93DF93CDB7DEB7C05480
:100A9000D1400FB6F894DEBF0FBECDBF2FB7F8948C
:100AA0004091D8025091D9026091DA027091DB0234
:100AB0002FBFFC0101851285238534856A017B01E6
:100AC000C01AD10AE20AF30A97018601003D1740D5
:100AD00021053105B0F4FC018189C05CDE4F0FB601
:100AE000F894DEBF0FBECDBFDF91CF911F910F9164
:100AF000FF90EF90DF90CF90BF90AF909F908F903E
:100B000008958C01FC0141875287638774871482A2
:100B1000138212821182108262E085810E94130387
:100B200061E070E080E090E00E94B70361E0F801CE
:100B300085810E94130360E0F80185810E94E5022F
:100B4000F80186818551823028F58BE291E1019789
:100B5000F1F762E0F80185810E941303F8018289B0
:100B600090E08230910538F0880F991F880F991F07
:100B700005970197F1F7F89460E0C8010E94FF041F
:100B80006F3F7F4F8F4F9F4F61F4F801118A789428
:100B900080E0A3CF64E170E080E090E00E94B703C2
:100BA000D8CF61E0C8010E94FF046F3F7F4F8F4F95
:100BB0009F4F59F3CE0101967C015E019FEBA91A6C
:100BC0009EEFB90A670160E0C8010E94FF04F601C8
:100BD000608371838283938361E0C8010E94FF0474
:100BE000F6016483758386839783F8E0CF0ED11C6A
:100BF000CA14DB0441F7789430E020E0F7018080EC
:100C00009180A280B3804481558166817781FFEF16
:100C10008F169F06AF06BF0631F04F3F8FEF580784
:100C20006807780719F4F801118AB2CFF90183E057
:100C3000F595E7958A95E1F7E00FF11F8081880F20
:100C400084169506A606B706F0F080832F5F3F4F07
:100C5000F8E0EF0EF11C2832310581F6F8014481ED
:100C600020818181280F3327331F8281280F311D76
:100C70008381820F932F911D99274817190699F6A2
:100C800081E0818B2ACF8160E0CF1F93CF93DF93E8
:100C9000C1E0C0934802882399F1D091B800109127
:100CA000BA008091BC008A7B8093BC0060E082E146
:100CB0000E94E50260E083E10E94E50210920203D7
:100CC000C09301031092DC0261E082E10E94E50220
:100CD00061E083E10E94E5028091B9008E7F8093FC
:100CE000B9008091B9008D7F8093B90088E480932A
:100CF000B80085E48093BC001093BA00D093B8008C
:100D0000DF91CF911F9108958F929F92AF92BF92E2
:100D1000CF92DF92EF92FF920F931F93CF93DF93C7
:100D2000D0912B03D13208F0D7C0182FC0912A03DD
:100D30000E9492036B017C018091020381116BC0C0
:100D400082E080930203109301038FEF80930003EE
:100D50001092FF02D093FE02AAE0B3E0EEEDF2E0C3
:100D600080E0D81391C01092DD028091DD02CC0F9B
:100D7000C82BC093DD028091DC02813009F088C06D
:100D80001092DC020E9492036B017C018091DD02D3
:100D90008093BB008091040390910503A09106030A
:100DA000B0910703892B8A2B8B2BA1F00E94920311
:100DB000009104031091050320910603309107036D
:100DC0006C197D098E099F0906171707280739072F
:100DD00008F442C08091BC0083FDD8CF85EC80939D
:100DE000BC000E9492036B017C018091020382305F
:100DF00009F450C0809100038F3F09F46FC08091C7
:100E00000003803209F46CC080910003803309F440
:100E100069C084E026C08091040390910503A091ED
:100E20000603B0910703892B8A2B8B2B09F484CFFF
:100E30000E9492038090040390900503A090060303
:100E4000B09007036C197D098E099F0986169706D5
:100E5000A806B90608F070CF809103030E944506EA
:100E600085E01092090310922B0310920803DF9182
:100E7000CF911F910F91FF90EF90DF90CF90BF9097
:100E8000AF909F908F9008959D9191938F5F69CFC0
:100E900085EEA5CF8091040390910503A0910603F0
:100EA000B0910703892B8A2B8B2B09F49ECF0E94CC
:100EB00092030091040310910503209106033091E1
:100EC00007036C197D098E099F0906171707280764
:100ED000390708F08ACFC0CF81E0C3CF80E0C1CF0F
:100EE00082E0BFCF83E0BDCF20916902260F332778
:100EF000331F21323105ECF420910203FC0190E014
:100F000080E0243069F082E00895A0916902219187
:100F1000AC01475B5D4FA40FB52FB11D2C9301961B
:100F2000861798F380916902680F6093690280E0E8
:100F3000089581E00895E091470280914602E81704
:100F400030F4F0E0EA5DFD4F808190E008958FEF8E
:100F50009FEF089590914702809146022FEF3FEF57
:100F6000981748F4E92FF0E0EA5DFD4F208130E06A
:100F70009F5F90934702C901089580914602909126
:100F80004702891B990B0895CF92DF92EF92FF924F
:100F90000F931F93CF93DF937C01CB018A012091A4
:100FA0000803222389F0EB016B01C40ED51ECC157A
:100FB000DD0569F06991D701ED91FC910190F08117
:100FC000E02DC7010995F3CF642F0E947407C80173
:100FD000DF91CF911F910F91FF90EF90DF90CF9015
:100FE0000895CF93DF931F92CDB7DEB76983209129
:100FF00008032223F9F020912B03203258F021E03E
:1010000030E0FC013383228390E080E00F90DF9199
:10101000CF91089580910903E82FF0E0E65FFC4F3F
:10102000998190838F5F8093090380932B0381E0E4
:1010300090E0ECCF61E0CE0101960E947407F7CFFB
:1010400090E080E00895FC019081962768E08CE8AC
:10105000969508F498276A95D9F79083089562E0E9
:101060008CEC0E94AB0462E084E40C94AB04089521
:1010700061E083E00E94E50265E070E080E090E0DE
:101080000E94B70360E083E00E94E50265E070E043
:1010900080E090E00E94B70361E083E00E94E502F7
:1010A0006AE070E080E090E00C94B70308951F932D
:1010B000CF93DF93C82F61E00E9413038BE198E088
:1010C0000197F1F71FB7F89460E08C2F0E9413038B
:1010D00083E090E00197F1F7D0E58C2F0E94BC02ED
:1010E000892B59F41FBFD9EC8C2F0E94BC02892B8D
:1010F00011F4D150C9F780E004C0D15071F71FBF7F
:1011000081E0DF91CF911F910895FC0101900020B3
:10111000E9F73197AF01481B590BBC018CE293E012
:101120000C946B01CF93DF930E945802EC018CE981
:1011300091E00E9485088C0F9D1FDF91CF9108954B
:101140008F929F92AF92BF920F931F93CF93DF9393
:10115000CDB7DEB7A1970FB6F894DEBF0FBECDBFF7
:1011600019A2423008F44AE08E010F5D1F4F842E11
:10117000912CB12CA12CA50194010E947718E62F87
:10118000B901CA01EA30F4F4E05DD801EE938D01B3
:10119000232B242B252B79F790E080E0109719F072
:1011A000CD010E948508A1960FB6F894DEBF0FBE50
:1011B000CDBFDF91CF911F910F91BF90AF909F90C6
:1011C0008F900895E95CE1CFCF92DF92EF92FF928A
:1011D000CF93DF936B017C016DE28CE293E00E9480
:1011E0000B02EC0166277727CB016C197D098E096C
:1011F0009F094AE00E94A0088C0F9D1FDF91CF91AC
:10120000FF90EF90DF90CF900895CF93DF9397FFFB
:101210000CC00E94E408EC018CE991E00E94850872
:101220008C0F9D1FDF91CF9108954AE00E94A00886
:10123000F2CF4F925F926F927F928F929F92AF9276
:10124000BF92CF92DF92EF92FF926B017C01AC01D3
:101250009B010E947218882381F08FE991E0FF9032
:10126000EF90DF90CF90BF90AF909F908F907F9046
:101270006F905F904F900C94850846015701E89459
:10128000B7F82FEF3FEF4FE75FE7C501B4010E94CA
:10129000721881110DC02FEF3FEF4FE75FE7C501D7
:1012A000B4010E941A1718161CF483EA91E0D7CFF4
:1012B0002FEF3FEF4FE75FE4C701B6010E94001830
:1012C00018161CF487EA91E0CACF2FEF3FEF4FE7E3
:1012D0005FECC701B6010E941A1787FDF3CF20E02B
:1012E00030E0A901C701B6010E941A17B12CA12C48
:1012F00087FF0AC06DE28CE293E00E940B025C0162
:10130000F7FAF094F7F8F0942AE037ED43EA5BE35C
:10131000C701B6010E94AE162B013C010E941F17A7
:101320006B017C010E944E179B01AC01C301B2010D
:101330000E94AD162B013C014AE0C701B6010E9494
:10134000A0087C01EA0CFB1C6EE28CE293E00E9498
:101350000B02E80EF91E20E030E040E251E4C30148
:10136000B2010E9405182B013C010E941F174B017E
:10137000B12CA12C4AE0C501B4010E94A008E80EDE
:10138000F91EC501B4010E944E179B01AC01C301B7
:10139000B2010E94AD1620E030E040E251E40E942C
:1013A00005180E941F1790E080E04AE00E94A00804
:1013B0008E0D9F1DFF90EF90DF90CF90BF90AF906C
:1013C0009F908F907F906F905F904F900895CF93F4
:1013D000DF930E948508EC018CE991E00E9485086A
:1013E0008C0F9D1FDF91CF9108950C948508CF92AB
:1013F000DF92EF92FF920F931F93CF93DF93EB0156
:10140000FB01349620E2DF011D922A95E9F744E2C0
:1014100050E060E070E0488359836A837B83FC017D
:1014200045815681678170854C835D836E837F83A0
:101430004CE050E060E070E0488759876A877B871E
:101440002FB7F8944091D8025091D9026091DA02F6
:101450007091DB022FBF488B598B6A8B7B8B03818A
:101460001481C8010E943905882349F0F80186815A
:101470008B3028F08D3040F08551823070F160E083
:1014800070E080EC9FE71BC0618170E090E080E03D
:101490000E9450172DEC3CEC4CEC5DE30E940518CB
:1014A0006B017C01F801608170E090E080E00E94B7
:1014B00050179B01AC01C701B6010E94AE166C8BA0
:1014C0007D8B8E8B9F8B81E0DF91CF911F910F9150
:1014D000FF90EF90DF90CF90089560817181762723
:1014E0006727762790E080E00E944E172DEC3CECB9
:1014F0004CEC5DE30E940518E2CF8F929F92AF9271
:10150000BF92EF92FF921F93CF93DF93EB01FB010A
:10151000349620E2DF011D922A95E9F744E250E07B
:1015200060E070E0488359836A837B83FC014581D6
:101530005681678170854C835D836E837F834DE028
:1015400050E060E070E0488759876A877B872FB753
:10155000F8944091D8025091D9026091DA027091CA
:10156000DB022FBF488B598B6A8B7B8BE380F48027
:10157000C7010E943905882341F0F70186818C302C
:1015800009F455C038F48B30E1F060E070E080EC95
:101590009FE73EC085518230C0F71281612F70E015
:1015A000762F662766277F778381682B90E080E01F
:1015B0000E944E172DEC3CEC4CEC5DE30E940518AC
:1015C00051C0628170E090E080E00E944E174B01B4
:1015D0005C01F701138117FF0AC0AC019B0160E0B9
:1015E00070E080E89FEB0E94AD164B015C011F701C
:1015F000612F70E090E080E00E9450172DEC3CECF1
:101600004CEC5DE30E940518A50194010E94AE1602
:101610006C8B7D8B8E8B9F8B81E0DF91CF911F91A7
:10162000FF90EF90BF90AF909F908F9008951281A0
:10163000612F70E090E080E00E944E174B015C014A
:10164000F70163816F7070E090E080E00E945017B6
:101650002DEC3CEC4CEC5DE30E940518A5019401D7
:101660000E94AE1617FFD4CF9058D2CF4F925F9200
:101670006F927F928F929F92AF92BF92CF92DF92A2
:10168000EF92FF920F931F93CF93DF93CDB7DEB707
:10169000AD970FB6F894DEBF0FBECDBF80914F045B
:1016A0008FA382E991E09EA38DA380915004909135
:1016B000510499A788A78091520490915304A09156
:1016C0005404B09155048AA79BA7ACA7BDA7BE013F
:1016D0006F5F7F4FCE0185960E947D0A6D897E895E
:1016E0008F89988D9B01AC010E947218882309F4A0
:1016F00023C18FE990E00E949208809158048FA343
:1017000084E891E09EA38DA38091590490915A049E
:1017100099A788A780915B0490915C04A0915D04D7
:10172000B0915E048AA79BA7ACA7BDA7BE016F5F5F
:101730007F4FCE0185960E94F7096D897E898F893A
:10174000988D9B01AC010E947218811102C182E840
:1017500090E00E9458026D897E898F89988D0E9441
:10176000190980E890E00E94920867E771E080E044
:1017700090E00E94B7038091D302882309F459C0F6
:101780008091340481113DC081E08093340482E073
:101790000E945708811135C062E08CEC0E94AB04B6
:1017A00062E08EEB0E94AB0410923304CE0185966A
:1017B0007C014E019EE2890E911CB12CA12C0E944D
:1017C0004F03F70181937F01A80EB11C682F83E3BB
:1017D00094E00E9423088E149F0489F78DA19EA196
:1017E0008F3F980771F0AB2861F0209133042111ED
:1017F00008C0803525E0920721F09093380480934B
:1018000037046091370470913804072E000C880B60
:10181000990B0E94501720E030E040E85DE30E9401
:10182000051860930401709305018093060190935D
:1018300007018091D702882309F4FBC081E08093DF
:1018400008038AE480932A031092090310922B0361
:1018500063E089EC93E00E94F10781E00E94840636
:101860000E9492034B015C0180910203811174C0BC
:1018700081E080930203809301039FEF9093000324
:101880001092FF028093FE028093DD028091DD02C0
:1018900084698093DD028091DC02813009F0F7C019
:1018A0001092DC020E9492034B015C018091DD02E8
:1018B0008093BB008091040390910503A0910603DF
:1018C000B0910703892B8A2B8B2BA1F00E949203E6
:1018D0004090040350900503609006037090070346
:1018E000681979098A099B09461657066806790618
:1018F00008F453C08091BC0083FDD8CF85EC809361
:10190000BC000E9492034B015C0180910203813074
:1019100009F4BFC08091FF02823008F0DCC08091E2
:10192000FF02EEEDF2E0A6E2B2E090E09817D1F10E
:1019300021912D939F5FFACF81E990E00E94580298
:101940006D897E898F89988D0E9419098DE890E0B4
:10195000D2CE88E690E007CF8091040390910503F2
:10196000A0910603B0910703892B8A2B8B2B09F4D6
:101970007BCF0E9492034090040350900503609037
:10198000060370900703681979098A099B094616AE
:1019900057066806790608F067CF809103030E9416
:1019A000450680E01092470280934602823051F44F
:1019B00089EC93E00E94AA078C0189EC93E00E94D5
:1019C000AA076C01B80184E0660F771F8A95E1F7DA
:1019D00077278FE0C822DD246C297D29072E000C93
:1019E000880B990B0E9450176B017C0102950F70B8
:1019F00061E070E002C0660F771F0A95E2F7072EDC
:101A0000000C880B990B0E9450179B01AC01C70179
:101A1000B6010E9405182CEE31E548E35DE30E9413
:101A2000051860931C0170931D0180931E01909313
:101A30001F0180913A01E0E48E9FC0011124826071
:101A400080937C0080917A00806480937A008091FA
:101A50007A0086FDFCCF8091780090917900909378
:101A60002101809320011BE18CE293E00E94C901D7
:101A7000892B99F1115089F18CE293E00E94A70122
:101A800068EC70E080E090E00E94B703EDCF85EE57
:101A900036CF8091040390910503A0910603B09185
:101AA0000703892B8A2B8B2B09F42FCF0E949203DB
:101AB0004090040350900503609006037090070364
:101AC000681979098A099B09461657066806790636
:101AD00008F01BCF62CF82E024CF8BEA91E00E9416
:101AE000F5098DEA91E00E94F5096091200170915D
:101AF000210190E080E04AE00E94A00882EB91E0A2
:101B00000E94F5094AE060E070E0CB010E94A00865
:101B10008AED91E00E94F5098091D102882309F4B1
:101B2000A7C08BEB91E00E94F509609100017091D4
:101B3000010180910201909103010E94190981EC39
:101B400091E00E94F5096091140170911501809156
:101B50001601909117010E94190987EC91E00E94EB
:101B6000F509609118017091190180911A01909105
:101B70001B010E9419098DEC91E00E94F50983ED8B
:101B800091E00E94F5098091D7028823B1F084EE9C
:101B900091E00E94F50960911C0170911D018091F6
:101BA0001E0190911F010E9419098AEE91E00E9486
:101BB000F50980EF91E00E94F5098BEF91E00E941A
:101BC000F5096091040170910501809106019091E1
:101BD00007010E94190983E092E00E94F5096091D3
:101BE00008017091090180910A0190910B010E94F6
:101BF000190983E092E00E94F50960910C0170914F
:101C00000D0180910E0190910F010E94190983E04E
:101C100092E00E94F509609110017091110180918C
:101C20001201909113010E94190985E092E00E942F
:101C3000F50987E092E00E94E7098CE293E00E94B8
:101C40007302AD960FB6F894DEBF0FBECDBFDF9125
:101C5000CF911F910F91FF90EF90DF90CF90BF90A9
:101C6000AF909F908F907F906F905F904F9008956E
:101C70008091D202882309F486CF8BEB91E00E94F9
:101C8000F50960910001709101018091020190912C
:101C900003010E94190981EC91E00E94F50960910D
:101CA00014017091150180911601909117010E9405
:101CB00019098DEC91E00E94F5098CED91E061CF5E
:101CC000CF93DF93EB01FC0183894BE050E06FE0A1
:101CD00072E08C30C1F058F44BE050E069E072E003
:101CE0008B3089F04BE050E061E272E00CC04BE0D9
:101CF00050E065E172E0853131F04BE050E06BE19E
:101D000072E0863179F7CE010E94C4191B86DF91FB
:101D1000CF9108950F931F93CF93DF938C01EB0125
:101D200088E2DB011D928A95E9F7F80183819481AD
:101D30000E94600E81E090E0A0E0B0E08C879D877B
:101D4000AE87BF87F80185819681A781B085888B92
:101D5000998BAA8BBB8B8CE090E0A0E0B0E08C8BE1
:101D60009D8BAE8BBF8BBE01838194810E94EC045E
:101D7000D8011396ED91FC9183898C3009F441C010
:101D800078F48B3009F1188E198E1A8E1B8E1C8EEA
:101D90001D8E1E8E1F8E18A219A21AA21BA22CC065
:101DA0008551823080F780E090E0A8ECB2E4888F23
:101DB000998FAA8FBB8F1C8E1D8E1E8E1F8E8DEC51
:101DC0009CECACECBDE314C080E090E0A0EAB2E48F
:101DD000888F998FAA8FBB8F80E090E0A0EAB1E452
:101DE0008C8F9D8FAE8FBF8F80E090E0A0EAB0E433
:101DF00088A399A3AAA3BBA3DF91CF911F910F91B1
:101E0000089580E090E0AEEBB2E4E2CF0F931F9331
:101E1000CF93DF938C01EB0188E2DB011D928A9561
:101E2000E9F7F801838194810E94600E81E090E0DF
:101E3000A0E0B0E08C879D87AE87BF87F8018581E1
:101E40009681A781B085888B998BAA8BBB8B8DE0FF
:101E500090E0A0E0B0E08C8B9D8BAE8BBF8BBE0181
:101E6000838194810E94EC04D8011396ED91FC913A
:101E700083898C3091F178F48B30B1F0188E198E03
:101E80001A8E1B8E1C8E1D8E1E8E1F8E18A219A2DE
:101E90001AA21BA21DC08531A9F1863179F780E015
:101EA00090E0AAEFB2E432C080E090E0A8E4B2E4AF
:101EB000888F998FAA8FBB8F1C8E1D8E1E8E1F8EB2
:101EC00080E090E0A0E0B0E488A399A3AAA3BBA31C
:101ED000DF91CF911F910F91089580E090E0A0E7EE
:101EE000B2E4888F998FAA8FBB8F80E090E0A0EA40
:101EF000B1EC8C8F9D8FAE8FBF8F80E090E0A0E023
:101F0000BFE3E2CF80E090E0A0EAB2E4888F998F4F
:101F1000AA8FBB8F80E090E0A0E2B2EC8C8F9D8F07
:101F2000AE8FBF8F8DEC9CECACECBDE3CDCF85EDDF
:101F30008093BC008091040390910503A091060357
:101F4000B09107030796A11DB11D23E0B695A79593
:101F5000979587952A95D1F72091BC0024FD03C061
:101F6000109202030895409104035091050360917B
:101F7000060370910703452B462B472B69F3009707
:101F8000A105B10541F02AE22A95F1F700C00197B9
:101F9000A109B109E1CF809103030C9445060C948B
:101FA0003B190C943B191F920F920FB60F921124FC
:101FB0002F933F934F935F936F937F938F939F9351
:101FC000AF93BF93EF93FF938CE293E00E94E901FC
:101FD000FF91EF91BF91AF919F918F917F916F9101
:101FE0005F914F913F912F910F900FBE0F901F90D7
:101FF00018951F920F920FB60F9211242F938F9363
:102000009F93EF93FF93E0913C03F0913D03808118
:10201000E0914203F091430382FD1BC090818091C7
:1020200045038F5F8F7320914603821741F0E09143
:102030004503F0E0E45DFC4F958F80934503FF91ED
:10204000EF919F918F912F910F900FBE0F901F9046
:1020500018958081F4CF1F920F920FB60F92112422
:102060002F933F938F939F93AF93BF938091D80209
:102070009091D902A091DA02B091DB023091CC02AA
:1020800023E0230F2D3758F50196A11DB11D209394
:10209000CC028093D8029093D902A093DA02B09335
:1020A000DB028091CD029091CE02A091CF02B0913F
:1020B000D0020196A11DB11D8093CD029093CE0256
:1020C000A093CF02B093D002BF91AF919F918F9117
:1020D0003F912F910F900FBE0F901F90189526E8FB
:1020E000230F0296A11DB11DD2CF1F920F920FB6E2
:1020F0000F9211242F933F934F935F936F937F938E
:102100008F939F93AF93BF93EF93FF93E091D70388
:10211000F091D803309749F0A685B7858585968DCF
:1021200091FF14C09C918923A1F4FF91EF91BF917D
:10213000AF919F918F917F916F915F914F913F915F
:102140002F910F900FBE0F901F9018959C9189238F
:1021500061F7A389B4899C918589809589238C93A3
:10216000868997890197F1F7608D718DA685B7856E
:10217000558538E020E0CB010197F1F7822F90E000
:1021800095958795282F4C91452309F0206831506B
:1021900091F7868D81FD20958091D60390E0019680
:1021A0008F7399273091D503381799F0A091D603F2
:1021B000B0E0A457BD4F2C938093D603828D938DAE
:1021C0000197F1F7A389B4898C919589892B8C9318
:1021D000ACCF868D8160868FF1CF1F920F920FB6A4
:1021E0000F9211242F933F934F935F936F937F939D
:1021F0008F939F93AF93BF93EF93FF938091B90019
:10220000887F803609F44AC0F0F5883209F4A5C009
:1022100018F5803109F499C0B8F4882309F4F5C0A1
:10222000883009F492C0FF91EF91BF91AF919F91D7
:102230008F917F916F915F914F913F912F910F906F
:102240000FBE0F901F901895883109F486C0803218
:1022500051F78093000314C0803409F49BC040F40C
:102260008033B9F38833F9F68093000385ECAEC070
:10227000803509F483C0883509F494C0883499F610
:102280000E94970FD0CF883909F48AC038F5883773
:1022900029F050F4883611F0803729F683E08093D6
:1022A000020310928B0255C0883809F479C0803936
:1022B00019F0803809F0B7CF80918B02803208F096
:1022C0006FC0E0918B0281E08E0F80938B02809132
:1022D000BB00F0E0E559FD4F80833BC0803B39F007
:1022E000D0F4803A09F477C0883A09F09CCF84E0B2
:1022F0008093020310926A0210926902F0E0E0E01B
:1023000009958091690281110FC081E08093690273
:102310001092490209C0803C09F4A8CF883C09F416
:10232000A5CF883B09F07FCFE0916A0281E08E0F54
:1023300080936A02F0E0E75BFD4F80818093BB00F1
:1023400090916A028091690229C08091DD02809398
:10235000BB0085EC8093BC0066CF9091FF0280911A
:10236000FE02981758F5E091FF0281E08E0F8093EE
:10237000FF02F0E0E252FD4F8081E9CFE091FF02E1
:1023800081E08E0F8093FF028091BB00F0E0E2526B
:10239000FD4F80839091FF028091FE029817C8F252
:1023A00085E8D8CFE091FF0281E08E0F8093FF0295
:1023B0008091BB00F0E0E252FD4F808380910103E9
:1023C00081115ECF81E08093DC0284EA8093BC00BF
:1023D0001092020328CF85EC8093BC001092020378
:1023E00080918B02803230F4E0918B02F0E0E5596D
:1023F000FD4F108260918B0270E08BE692E0F0E07E
:10240000E0E0099510928B020ECF1092000338CFB6
:10241000CF92DF92EF92FF9210922F0310922E0331
:1024200098EEC92E93E0D92EE12CF12CC092300306
:10243000D0923103E0923203F09233038EE491E0C4
:1024400090932D0380932C0385EC90E090933903B7
:102450008093380384EC90E090933B0380933A039D
:1024600080EC90E090933D0380933C0381EC90E0FE
:1024700090933F0380933E0382EC90E0909341035E
:102480008093400386EC90E0909343038093420353
:10249000109245031092460310924703109248038E
:1024A0001092CC031092CB03C092CD03D092CE03F6
:1024B000E092CF03F092D00380E691E09093CA03BC
:1024C0008093C9031092640410926304109266040E
:1024D0001092650410926804109267048FEF809345
:1024E000720480937304809374048093750429E3C9
:1024F00034E08EE080933E0486E180933F04E7E77A
:10250000F2E0E491E0934004E3E6F2E0E491E0934A
:10251000410440E85EE360E070E04093460450937D
:102520004704609348047093490480934C0482E903
:1025300091E090934E0480934D0430935104209386
:1025400050048FEF9FEFDC0180935204909353046B
:10255000A0935404B093550444E851E050935704B9
:102560004093560430935A042093590480935B049B
:1025700090935C04A0935D04B0935E0410923304C6
:1025800010923404109236041092350410923804DC
:102590001092370460E082E00E94130360E082E062
:1025A0000E94E50210922D0410922E041092300425
:1025B00010922F04109232041092310460E084E0F3
:1025C0000E94130360E084E00E94E5021092270459
:1025D0001092280410922A041092290410922C04BC
:1025E00010922B0460E086E00E94130360E086E016
:1025F0000E94E502109221041092220410922404F9
:1026000010922304109226041092250460E087E0C3
:102610000E94130360E087E00E94E5021092050427
:1026200010920404C0920604D0920704E0920804B9
:10263000F092090482E791E09093030480930204EE
:10264000109219041092180410921B0410921A048C
:1026500010921D0410921C0410921F0410921E046C
:10266000609120046E7F6D7F609320046695617099
:1026700081E068278BE00E94E50261E08BE00E9428
:102680001303E4E7F2E0E491E0931204E0E6F2E001
:10269000E491F0E0EE0FFF1FE55BFD4F8591949113
:1026A000909314048093130460E08AE00E94130363
:1026B0008091200481FD04C061E08AE00E94E5026F
:1026C0008AE080930E04E3E7F2E0E491E0930F04E4
:1026D000EFE5F2E0E491F0E0EE0FFF1FEF5BFD4F5E
:1026E0008591949190931104809310041092DD03CE
:1026F0001092DC038DE991E090931F0480931E04F7
:102700002DEB30E030931904209318042BE931E0CD
:1027100030931B0420931A042CE231E030931D0403
:1027200020931C04209168002160209368002BE610
:1027300030E0309316042093150424E0209317040E
:102740000197F1F78091D7039091D80324E082306C
:102750009207E1F0009711F00E9495048091200407
:102760008E7F809320041092D6031092D50382E0CE
:1027700094E09093D8038093D703E0911504F091EF
:102780001604808190911704892B808388EF8093B1
:10279000DE0382E094E09093DA038093D90381E032
:1027A0008093DB0388E38093FA038FEF8093FB032E
:1027B0008093FC038093FD038093FE038093FF03CB
:1027C00080930004809301041092DF03FF90EF9048
:1027D000DF90CF900895CF93DF93CDB7DEB7EA9720
:1027E0000FB6F894DEBF0FBECDBF789484B582607B
:1027F00084BD84B5816084BD85B5826085BD85B5A5
:10280000816085BD80916E00816080936E00109222
:10281000810080918100826080938100809181009D
:10282000816080938100809180008160809380002E
:102830008091B10084608093B1008091B00081608C
:102840008093B00080917A00846080937A008091B8
:102850007A00826080937A0080917A008160809310
:102860007A0080917A00806880937A001092C1008B
:1028700089E0E1E4F1E0DE01D29601900D928A95C3
:10288000E1F78E010E5C1F4F7E018BE3E80EF11C19
:1028900061E0F80181918F010E941303E016F106B7
:1028A000B9F760E083E00E94E50261E085E00E9404
:1028B000E50283E080933A01E0913C03F0913D030F
:1028C00082E08083E0913803F09139031082E09137
:1028D0003A03F0913B038FEC808310924403E09124
:1028E0004003F091410386E08083E0913E03F09144
:1028F0003F03808180618083E0913E03F0913F033C
:10290000808188608083E0913E03F0913F03808165
:1029100080688083E0913E03F0913F0380818F7D4A
:10292000808362E080913E040E9413032FB7F894E5
:102930008091D8029091D902A091DA02B091DB0285
:102940002FBF805D9740A109B10980934204909305
:102950004304A0934404B093450487E380934B045D
:1029600084E292E00E94920880914F048BA782E952
:1029700091E09AA789A780915004909151049DA756
:102980008CA78091520490915304A0915404B0916B
:1029900055048EA79FA7A8ABB9ABBE016F5F7F4F51
:1029A000CE0189960E94060F8FEF91E00E94920857
:1029B0008CEE91E00E9492088EED91E00E94580208
:1029C000CE0101960E94E70980ED91E00E94580235
:1029D0006D857E858F8598890E94050982EC91E03E
:1029E0000E94580269897A898B899C890E9405090D
:1029F00084EB91E00E945802698D7A8D8B8D9C8DBD
:102A00000E94190980EB91E00E94920882EA91E00D
:102A10000E9458026D8D7E8D8F8D98A10E9419099C
:102A20008EE991E00E94920880E991E00E945802AC
:102A300069A17AA18BA19CA10E9419098CE891E05F
:102A40000E94920887E691E00E94920880915804C3
:102A50008BA784E891E09AA789A780915904909167
:102A60005A049DA78CA780915B0490915C04A0916F
:102A70005D04B0915E048EA79FA7A8ABB9ABBE0161
:102A80006F5F7F4FCE0189960E948A0E87E591E0A5
:102A90000E94920889E491E00E945802CE010196BA
:102AA0000E94E7098BE391E00E9458026D857E85C4
:102AB0008F8598890E9405098DE291E00E94580255
:102AC00069897A898B899C890E9405098FE191E047
:102AD0000E945802698D7A8D8B8D9C8D0E941909F8
:102AE0008DE191E00E9492088FE091E00E945802EF
:102AF0006D8D7E8D8F8D98A10E9419098DE091E0DA
:102B00000E9492088FEF90E00E94580269A17AA17A
:102B10008BA19CA10E9419098DEF90E00E94920860
:102B200088ED90E00E94920882E00E94570881118F
:102B300049C062E083E30E94AB04109233048E012B
:102B4000075D1F4F6E01F1E3CF0ED11CF12CE12C7C
:102B50000E944F03F80181938F01E80EF11C682F4A
:102B600083E394E00E942308C016D10689F7809180
:102B70003304811127C0EF2829F181E08093D3022B
:102B800082E00E945708811114C062E08CEC0E9420
:102B9000AB0462E08EE40E94AB0462E08FEF0E941F
:102BA000AB0462E080E00E94AB0462E08FE50E942B
:102BB000AB041092340482E00E945708811102C0D5
:102BC0000E942F0811E0109308038AE480932A03DF
:102BD0001092090310922B0362E089EC93E00E94AB
:102BE000F10760E489EC93E00E94F10781E00E9424
:102BF0008406811102C01093D7020E94360B6EE149
:102C000070E080E090E00E94B7030E94380800E086
:102C100010E068E873E180E090E00E94B7030E9452
:102C2000360B0E9438088091D302882349F0109215
:102C3000340482E00E945708811102C00E942F08CC
:102C40008091D402882379F010922E0484E00E94AF
:102C50005708811108C064E08CEC0E94AB0464E06A
:102C600084E40E94AB048091D502882379F010920D
:102C7000280486E00E945708811108C066E08CECA9
:102C80000E94AB0466E084E40E94AB048091D6020B
:102C9000882379F01092220487E00E94570881115E
:102CA00008C067E08CEC0E94AB0467E084E40E94FB
:102CB000AB040115110509F4ACCF0E94D50188239E
:102CC00009F4A7CF0E940000A4CFCF93DF93C09157
:102CD000DC03D091DD03209751F082E791E09983E6
:102CE0008883CE010E949504CE010E943B1982E7A1
:102CF00091E0909303048093020482E094E00E94A8
:102D000095048091630490916404009739F0DC018C
:102D1000ED91FC910280F381E02D0995809165048D
:102D200090916604009739F0DC01ED91FC910280EE
:102D3000F381E02D099580916704909168040097D4
:102D400049F0DC01ED91FC910280F381E02DDF91EF
:102D5000CF910994DF91CF9108955058BB27AA27AE
:102D60000E94C5160C94C6170E94B81738F00E942E
:102D7000BF1720F039F49F3F19F426F40C94B517CF
:102D80000EF4E095E7FB0C94AF17E92F0E94D717DC
:102D900058F3BA17620773078407950720F079F490
:102DA000A6F50C94F9170EF4E0950B2EBA2FA02D72
:102DB0000B01B90190010C01CA01A0011124FF27E8
:102DC000591B99F0593F50F4503E68F11A16F040E3
:102DD000A22F232F342F4427585FF3CF46953795E2
:102DE0002795A795F0405395C9F77EF41F16BA0BA7
:102DF000620B730B840BBAF09150A1F0FF0FBB1F55
:102E0000661F771F881FC2F70EC0BA0F621F731F9D
:102E1000841F48F4879577956795B795F7959E3FFA
:102E200008F0B0CF9395880F08F09927EE0F97958B
:102E3000879508950E948B1708F481E008950E94F9
:102E4000DF1788F09F5798F0B92F9927B751B0F046
:102E5000E1F0660F771F881F991F1AF0BA95C9F71E
:102E600014C0B13091F00E94F917B1E008950C94AC
:102E7000F917672F782F8827B85F39F0B93FCCF35F
:102E8000869577956795B395D9F73EF4909580959B
:102E9000709561957F4F8F4F9F4F0895E89409C0BB
:102EA00097FB3EF490958095709561957F4F8F4F7D
:102EB0009F4F9923A9F0F92F96E9BB279395F69593
:102EC000879577956795B795F111F8CFFAF4BB0F11
:102ED00011F460FF1BC06F5F7F4F8F4F9F4F16C075
:102EE000882311F096E911C0772321F09EE8872FFF
:102EF000762F05C0662371F096E8862F70E060E0BB
:102F00002AF09A95660F771F881FDAF7880F969533
:102F1000879597F90895990F0008550FAA0BE0E8D7
:102F2000FEEF16161706E807F907C0F0121613068B
:102F3000E407F50798F0621B730B840B950B39F4CB
:102F40000A2661F0232B242B252B21F408950A2631
:102F500009F4A140A6958FEF811D811D089597F971
:102F60009F6780E870E060E008959FEF80EC08952F
:102F700000240A9416161706180609060895002458
:102F80000A9412161306140605060895092E0394D2
:102F9000000C11F4882352F0BB0F40F4BF2B11F446
:102FA00060FF04C06F5F7F4F8F4F9F4F089557FDA5
:102FB0009058440F551F59F05F3F71F04795880FA7
:102FC00097FB991F61F09F3F79F08795089512163E
:102FD00013061406551FF2CF4695F1DF08C01616EA
:102FE00017061806991FF1CF86957105610508949B
:102FF0000895E894BB2766277727CB0197F90895B2
:103000000E948B1708F48FEF08950E9418180C94F3
:10301000C6170E94B81738F00E94BF1720F09523FA
:1030200011F00C94AF170C94B51711240C94FA17E7
:103030000E94D71770F3959FC1F3950F50E0551F6D
:10304000629FF001729FBB27F00DB11D639FAA27FD
:10305000F00DB11DAA1F649F6627B00DA11D661F4C
:10306000829F2227B00DA11D621F739FB00DA11D6D
:10307000621F839FA00D611D221F749F3327A00D27
:10308000611D231F849F600D211D822F762F6A2FC3
:1030900011249F5750409AF0F1F088234AF0EE0F28
:1030A000FF1FBB1F661F771F881F91505040A9F755
:1030B0009E3F510580F00C94AF170C94FA175F3FB8
:1030C000E4F3983ED4F3869577956795B795F79591
:1030D000E7959F5FC1F7FE2B880F911D9695879509
:1030E00097F908950E948B17880B990B0895A1E218
:1030F0001A2EAA1BBB1BFD010DC0AA1FBB1FEE1F72
:10310000FF1FA217B307E407F50720F0A21BB30BBC
:10311000E40BF50B661F771F881F991F1A9469F738
:1031200060957095809590959B01AC01BD01CF0194
:103130000895EE0FFF1F0590F491E02D09940F9371
:103140001F93CF93DF938230910510F482E090E0DB
:10315000E0919C04F0919D0430E020E0B0E0A0E01C
:10316000309799F42115310509F44AC0281B390B11
:1031700024303105D8F58A819B816115710589F16B
:10318000FB0193838283FE0111C040815181028142
:10319000138148175907E0F04817590799F4109719
:1031A00061F012960C93129713961C933296CF01EE
:1031B000DF91CF911F910F91089500939C0410937C
:1031C0009D04F4CF2115310551F04217530738F013
:1031D000A901DB019A01BD01DF01F801C1CFEF01B7
:1031E000F9CF90939D0480939C04CDCFFE01E20F14
:1031F000F31F819391932250310939832883D7CFCC
:1032000020919A0430919B04232B41F420913D019D
:1032100030913E0130939B0420939A0420913B010E
:1032200030913C012115310541F42DB73EB7409155
:103230003F0150914001241B350BE0919A04F0911D
:103240009B04E217F307A0F42E1B3F0B2817390746
:1032500078F0AC014E5F5F4F2417350748F04E0FF2
:103260005F1F50939B0440939A04819391939FCF47
:10327000F0E0E0E09CCFCF93DF930097E9F0FC0112
:10328000329713821282A0919C04B0919D04ED01AB
:1032900030E020E01097A1F420813181820F931F4C
:1032A00020919A0430919B042817390709F061C0D6
:1032B000F0939B04E0939A04DF91CF910895EA0183
:1032C000CE17DF07E8F54A815B819E014115510564
:1032D000B1F7E901FB83EA8349915991C40FD51FE6
:1032E000EC17FD0761F4808191810296840F951F90
:1032F000E90199838883828193819B838A83F0E0AB
:10330000E0E012968D919C9113970097B9F52D915D
:103310003C911197CD010296820F931F20919A0440
:1033200030919B042817390739F6309751F51092E0
:103330009D0410929C04B0939B04A0939A04BCCF6C
:10334000D383C28340815181840F951FC817D90749
:1033500061F44E5F5F4F88819981480F591F5183F7
:1033600040838A819B81938382832115310509F0F3
:10337000B0CFF0939D04E0939C049ECFFD01DC014F
:10338000C0CF13821282D7CFFB01DC0141505040E5
:1033900048F001900D920020C9F701C01D924150E4
:1033A0005040E0F7089511E0C0E4D1E004C0FE0110
:1033B0000E9499182196C134D107C9F7F894FFCF1C
:1033C0000000CA430000CA430000CA430000CA43C9
:1033D0000000CA4300004A4300807C45000080BFD3
:1033E0000000000080BF000080BF000080BF000020
:1033F00080BF000080BF000080BF0100009E0480ED
:103400000008090C0D0E0F110503000000000B024F
:103410006B0198017302C901A701BB010000000004
:10342000F107C40720080104BD07AA079B07000095
:10343000000002046B01200801045E047404E90327
:10344000000000003708D10F5608F7098A0E000067
:1034500000003708CF0F56087D0A060F0D0A006ED0
:10346000616E00696E66006F7666007B00226222E4
:103470003A002C226E756D223A22002C2274223AD8
:10348000002C2268223A002C2270223A002C22734F
:10349000223A0022424D453238302200225348540D
:1034A000323122002C226C223A002C2261223A0076
:1034B000224D4158343430303922002C226473229A
:1034C0003A5B002C005D007D0044485431310044DB
:1034D0004854313200444854323100444854323266
:0634E000004448543F00C7
:00000001FF
