:100000000C945D000C9485000C9485000C94850084
:100010000C9485000C9485000C9485000C9485004C
:100020000C9485000C9485000C9485000C9485003C
:100030000C9485000C9485000C9485000C9485002C
:100040000C94CB080C9485000C9499080C947308BC
:100050000C9485000C9485000C9485000C9485000C
:100060000C9415090C9485000000000800020100A2
:100070000003040700000000000000000000000072
:10008000250028002B0000000000240027002A0083
:10009000040404040404040402020202020203032E
:1000A0000303030301020408102040800102040836
:1000B0001020010204081020340A11241FBECFEFC3
:1000C000D8E0DEBFCDBF11E0A0E0B1E0E4EAFBE1A3
:1000D00002C005900D92A83EB107D9F723E0A8EE23
:1000E000B1E001C01D92A835B207E1F710E0CDE5FF
:1000F000D0E004C02197FE010E94CA0DCC35D10783
:10010000C9F70E946D0A0C94D00D0C9400008091E8
:100110003D0290913E02891B990B089590E0FC01ED
:10012000EC55FF4F249180579F4FFC018491882309
:1001300099F090E0880F991FFC01EA57FF4FA591B5
:10014000B491FC01E458FF4F859194918FB7F894D6
:10015000EC91E22BEC938FBF0895AF92BF92CF92B8
:10016000DF92EF92FF920F931F93CF93DF936C0177
:100170007B018B01040F151FEB015E01AE18BF0858
:10018000C017D10759F06991D601ED91FC9101900A
:10019000F081E02DC6010995892B79F7C501DF9122
:1001A000CF911F910F91FF90EF90DF90CF90BF9074
:1001B000AF900895FC01538D448D252F30E0842F9E
:1001C00090E0821B930B541710F0CF96089501977F
:1001D0000895FC01918D828D981761F0A28DAE0F6C
:1001E000BF2FB11D5D968C91928D9F5F9F73928FF3
:1001F00090E008958FEF9FEF0895FC01918D828D1F
:10020000981731F0828DE80FF11D858D90E00895EB
:100210008FEF9FEF0895FC01918D228D892F90E043
:10022000805C9F4F821B91098F73992708958FEAF5
:1002300092E00E940B0121E0892B09F420E0822F3B
:10024000089580E090E0892B29F00E941701811128
:100250000C9400000895FC01A48DA80FB92FB11DC6
:10026000A35ABF4F2C91848D90E001968F739927EC
:10027000848FA689B7892C93A089B1898C918370CA
:1002800080648C93938D848D981306C00288F389C3
:10029000E02D80818F7D80830895EF92FF920F93F0
:1002A0001F93CF93DF93EC0181E0888F9B8D8C8D22
:1002B00098131AC0E889F989808185FF15C09FB716
:1002C000F894EE89FF896083E889F98980818370D9
:1002D000806480839FBF81E090E0DF91CF911F9188
:1002E0000F91FF90EF900895F62E0B8D10E00F5FA9
:1002F0001F4F0F731127E02E8C8D8E110CC00FB67F
:1003000007FCFACFE889F989808185FFF5CFCE0116
:100310000E942B01F1CFEB8DEC0FFD2FF11DE35A65
:10032000FF4FF0829FB7F8940B8FEA89FB89808199
:100330008062CFCFCF93DF93EC01888D8823B9F013
:10034000AA89BB89E889F9898C9185FD03C08081E0
:1003500086FD0DC00FB607FCF7CF8C9185FFF2CF5D
:10036000808185FFEDCFCE010E942B01E9CFDF9187
:10037000CF91089590E0FC01E859FF4F2491FC01D2
:10038000EC55FF4F3491FC01E057FF4FE491EE2311
:10039000C9F0222339F0233001F1A8F4213019F1FA
:1003A000223029F1F0E0EE0FFF1FE458FF4FA59136
:1003B000B4918FB7F894EC91611126C030953E232B
:1003C0003C938FBF08952730A9F02830C9F024301E
:1003D00049F7809180008F7D03C0809180008F77E6
:1003E00080938000DFCF84B58F7784BDDBCF84B569
:1003F0008F7DFBCF8091B0008F778093B000D2CFFC
:100400008091B0008F7DF9CF3E2BDACF3FB7F894C3
:100410008091390290913A02A0913B02B0913C0246
:1004200026B5A89B05C02F3F19F00196A11DB11D4F
:100430003FBFBA2FA92F982F8827BC01CD01620F8B
:10044000711D811D911D42E0660F771F881F991F46
:100450004A95D1F708958F929F92AF92BF92CF9213
:10046000DF92EF92FF924B015C010E9406026B014A
:100470007C010E9406026C197D098E099F09683E65
:10048000734081059105A8F321E0821A9108A10823
:10049000B10888EEC80E83E0D81EE11CF11C81145F
:1004A0009104A104B10429F7FF90EF90DF90CF9061
:1004B000BF90AF909F908F90089520910F02260FCC
:1004C0003327331F21323105ECF420918502FC01E2
:1004D00090E080E0243069F082E00895A0910F025E
:1004E0002191AC0143515E4FA40FB52FB11D2C9348
:1004F0000196861798F380910F02680F60930F02A0
:1005000080E0089581E008951092850281E0809353
:10051000840210925F0261E082E10E94BA0161E010
:1005200083E10E94BA01E9EBF0E080818E7F808355
:1005300080818D7F808388E48093B80085E48093F8
:10054000BC000895CF93DF9391E09093EC01882352
:10055000B9F0C091B800D091BA008091BC008A7BFC
:100560008093BC0060E082E10E94BA0160E083E118
:100570000E94BA010E948402D093BA00C093B800CE
:10058000DF91CF9108958F929F92AF92BF92CF92B9
:10059000DF92EF92FF920F931F93CF93DF93D0914F
:1005A000AE02D13208F0D7C0182FC091AD020E9420
:1005B00006026B017C018091850281116BC082E093
:1005C00080938502109384028FEF809383021092B0
:1005D0008202D0938102ADE8B2E0E1E6F2E080E091
:1005E000D81391C01092600280916002CC0FC82B8A
:1005F000C093600280915F02813009F088C0109240
:100600005F020E9406026B017C0180916002809370
:10061000BB008091870290918802A0918902B091DD
:100620008A02892B8A2B8B2BA1F00E940602009153
:100630008702109188022091890230918A026C19F8
:100640007D098E099F09061717072807390708F43F
:1006500042C08091BC0083FDD8CF85EC8093BC0064
:100660000E9406026B017C0180918502823009F4B0
:1006700050C0809183028F3F09F46FC08091830244
:10068000803209F46CC080918302803309F469C020
:1006900084E026C08091870290918802A09189020F
:1006A000B0918A02892B8A2B8B2B09F484CF0E946C
:1006B00006028090870290908802A0908902B090F4
:1006C0008A026C197D098E099F0986169706A8066D
:1006D000B90608F070CF809186020E94A20285E0E0
:1006E00010928C021092AE0210928B02DF91CF9189
:1006F0001F910F91FF90EF90DF90CF90BF90AF9040
:100700009F908F9008959D9191938F5F69CF85EE13
:10071000A5CF8091870290918802A0918902B09123
:100720008A02892B8A2B8B2B09F49ECF0E9406020A
:1007300000918702109188022091890230918A02EB
:100740006C197D098E099F090617170728073907B5
:1007500008F08ACFC0CF81E0C3CF80E0C1CF82E074
:10076000BFCF83E0BDCF089508950895E0913E0284
:1007700080913D02E81730F4F0E0E15CFD4F8081AC
:1007800090E008958FEF9FEF089590913E02809141
:100790003D022FEF3FEF981748F4E92FF0E0E15CBE
:1007A000FD4F208130E09F5F90933E02C901089584
:1007B000CF92DF92EF92FF920F931F93CF93DF932D
:1007C0007C01CB018A0120918B02222389F0EB016D
:1007D0006B01C40ED51ECC15DD0569F06991D701FA
:1007E000ED91FC910190F081E02DC7010995F3CFC7
:1007F000642F0E945D02C801DF91CF911F910F917C
:10080000FF90EF90DF90CF900895CF93DF931F92EA
:10081000CDB7DEB7698320918B022223F9F02091B6
:10082000AE02203258F021E030E0FC013383228315
:1008300090E080E00F90DF91CF91089580918C023D
:10084000E82FF0E0E357FD4F998190838F5F80930D
:100850008C028093AE0281E090E0ECCF61E0CE01AB
:1008600001960E945D02F7CF682F8CE493E00C9410
:10087000050490E080E008958F929F92AF92BF921E
:10088000CF92DF92EF92FF920F931F93CF93DF935C
:100890007C01D62F0E9406024B015C0180918502EB
:1008A000811167C0CD2F81E08093850280938402FF
:1008B0009FEF90938302109282029D0F909381028A
:1008C0008093600280916002EE0CFF1C8E29809361
:1008D000600280915F02813009F083C010925F0254
:1008E0000E9406026B017C01809160028093BB0034
:1008F0008091870290918802A0918902B0918A022A
:10090000892B8A2B8B2BA1F00E94060280908702F4
:1009100090908802A0908902B0908A026C197D099B
:100920008E099F0986169706A806B90608F442C0E4
:100930008091BC0083FDD8CF85EC8093BC000E94E1
:1009400006026B017C0180918502813009F44BC065
:10095000809182028D1710F4C0918202E1E6F2E0EC
:10096000AFE3B2E080E08C1751F191919D938F5FDE
:10097000FACF8091870290918802A0918902B0916C
:100980008A02892B8A2B8B2B09F488CF0E940602BE
:1009900000918702109188022091890230918A0289
:1009A000681979098A099B09061717072807390763
:1009B00008F074CF809186020E94A202C0E01092DB
:1009C0003E02C0933D028C2FDF91CF911F910F917A
:1009D000FF90EF90DF90CF90BF90AF909F908F905F
:1009E000089585EEAACF8091870290918802A09108
:1009F0008902B0918A02892B8A2B8B2B09F4A3CF11
:100A00000E9406028090870290908802A09089023E
:100A1000B0908A026C197D098E099F098616970687
:100A2000A806B90608F08FCFC5CFCF93DF9391E02A
:100A300090938B0290E49093AD0210928C021092EE
:100A4000AE02682F8CE493E00E94050481E00E94CE
:100A5000C30264E670E080E090E00E942B0263E055
:100A600070E080E490E00E943C0480913D0290910F
:100A70003E02891B990B03973CF461E070E080E033
:100A800090E00E942B02F1CF8CE493E00E94C5031A
:100A9000D82F80E0C82F8CE493E00E94C5038C0F10
:100AA0009D1F8C7FDF91CF910895CF9310923E02CE
:100AB00010923D0210928C021092AE020E948402AB
:100AC00083EB93E090930E0280930D0284EB93E00E
:100AD0009093120280931102C1E0C0938B0280E4D4
:100AE0008093AD0287EE90E00E94340481E00E9482
:100AF000C30262E370E080E090E00E942B0261E0BC
:100B000070E080E490E00E943C0480913D0290916E
:100B10003E02891B990B019731F48CE493E00E940B
:100B2000C503C093E901C1E0C0938B028AE48093BE
:100B3000AD0210928C021092AE0282E090E00E9410
:100B4000340480E490E00E94340481E00E94C302F7
:100B5000811102C0C093EB01CF910895FC01019077
:100B60000020E9F73197AF01481B590BBC018FEA10
:100B700092E00C94AD008F929F92AF92BF920F9330
:100B80001F93CF93DF93CDB7DEB7A1970FB6F8943D
:100B9000DEBF0FBECDBF19A2423008F44AE08E017D
:100BA0000F5D1F4F842E912CB12CA12CA501940117
:100BB0000E94A80DE62FB901CA01EA30F4F4E05D05
:100BC000D801EE938D01232B242B252B79F790E070
:100BD00080E0109719F0CD010E94AE05A1960FB6E6
:100BE000F894DEBF0FBECDBFDF91CF911F910F9163
:100BF000BF90AF909F908F900895E95CE1CF0C94E7
:100C0000AE054F925F926F927F928F929F92AF92BA
:100C1000BF92CF92DF92EF92FF920F931F93CF93E9
:100C20006B017C01742EAC019B010E94A30D8823F3
:100C300099F087E391E0CF911F910F91FF90EF9092
:100C4000DF90CF90BF90AF909F908F907F906F90EC
:100C50005F904F900C94AE0546015701E894B7F8A9
:100C60002FEF3FEF4FE75FE7C501B4010E94A30DEF
:100C700081110DC02FEF3FEF4FE75FE7C501B401D2
:100C80000E94D90B18161CF48BE391E0D4CF2FEF00
:100C90003FEF4FE75FE4C701B6010E94310D181620
:100CA0001CF48FE391E0C7CF2FEF3FEF4FE75FECEE
:100CB000C701B6010E94D90B87FDF3CF20E030E0D9
:100CC000A901C701B6010E94D90B10E000E087FF1F
:100CD0000AC06DE28FEA92E00E944D018C01F7FAA2
:100CE000F094F7F8F094C0E060E070E080E09FE3FB
:100CF0007C1641F020E030E040E251E40E94DE0B3F
:100D0000CF5FF6CFA70196010E946D0B2B013C012E
:100D10000E94500C4B015C014AE00E94BB057C0123
:100D2000E00EF11ECC23C1F1C501B4010E947F0C7D
:100D30009B01AC01C301B2010E946C0B4B015C0131
:100D40006EE28FEA92E00E944D01E80EF91EC1505A
:100D500018F120E030E040E251E4C501B4010E9406
:100D6000360D2B013C010E94500C4B01B12CA12CE3
:100D70004AE0C501B4010E94BB05E80EF91EC50199
:100D8000B4010E947F0C9B01AC01C301B2010E941F
:100D90006C0B4B015C01DBCFC701CF911F910F9111
:100DA000FF90EF90DF90CF90BF90AF909F908F908B
:100DB0007F906F905F904F900895CF92DF92EF9267
:100DC000FF920F931F93CF93DF938091E9018823C4
:100DD000C1F183EF0E941505BC0190E080E00E9404
:100DE0007F0C22E538EB4FE25BE30E94360D26E6EE
:100DF00036E64BE352E40E946C0B60930001709363
:100E00000101809302019093030185EF0E94150573
:100E1000BC0190E080E00E947F0C20E030E04AEFCF
:100E20005AE30E94360D20E030E040EC50E40E948E
:100E30006C0B6093040170930501809306019093FD
:100E400007018091EB01882309F45FC081E0809362
:100E50008B028AE48093AD0210928C021092AE0253
:100E600083E090E00E94340481E00E94C30262E0CB
:100E700070E08AE490E00E943C0480913D029091F1
:100E80003E02891B990B029751F48CE493E00E9477
:100E9000C503EC018CE493E00E94C5038C01BE0104
:100EA00084E0660F771F8A95E1F777270F70112787
:100EB000602B712B072E000C880B990B0E94810C64
:100EC0006B017C01C295CF7061E070E002C0660FDB
:100ED000771FCA95E2F7072E000C880B990B0E942A
:100EE000810C9B01AC01C701B6010E94360D2CEEAE
:100EF00031E548E35DE30E94360D60930C01709389
:100F00000D0180930E0190930F018091120120E456
:100F1000829FC0011124826080937C0080917A00BE
:100F2000806480937A0080917A0086FDFCCF909156
:100F3000780080917900892798278927909311015B
:100F40008093100183E491E00E94FF05609100010D
:100F500070910101809102019091030142E00E9491
:100F600001068AE491E00E94FF058FE491E00E946F
:100F7000FF05609104017091050180910601909137
:100F8000070142E00E94010685E591E00E94FF050D
:100F90008AE591E00E94FF056091080170910901C6
:100FA00080910A0190910B0142E00E94010680E6C7
:100FB00091E00E94FF0585E691E00E94FF056091A7
:100FC0000C0170910D0180910E0190910F0142E092
:100FD0000E9401068BE691E00E94FF0580E791E008
:100FE0000E94FF05609110017091110190E080E076
:100FF0004AE00E94BB0580ED91E00E94FF0585E775
:1010000091E00E94FF058091E801882301F18BE7C0
:1010100091E00E94FF058091EB01882349F182ED68
:1010200091E00E94FF0582EE91E00E94AE0585EE00
:1010300091E00E94AE058FEA92E0DF91CF911F917F
:101040000F91FF90EF90DF90CF900C949A018091D8
:10105000E901882319F087E991E0DBCF8091EA016B
:10106000882319F08DEA91E0D4CF82EC91E0D1CFC2
:101070008DED91E0D6CF85ED8093BC008091870205
:1010800090918802A0918902B0918A020796A11DD1
:10109000B11D23E0B695A795979587952A95D1F729
:1010A0002091BC0024FD03C0109285020895409158
:1010B0008702509188026091890270918A02452BC3
:1010C000462B472B69F30097A105B10541F025E3B5
:1010D0002A95F1F700000197A109B109E1CF8091AC
:1010E00086020C94A2021F920F920FB60F92112447
:1010F0002F933F934F935F936F937F938F939F9320
:10110000AF93BF93EF93FF938FEA92E00E942B017E
:10111000FF91EF91BF91AF919F918F917F916F91CF
:101120005F914F913F912F910F900FBE0F901F90A5
:1011300018951F920F920FB60F9211242F938F9331
:101140009F93EF93FF93E091BF02F091C0028081E3
:10115000E091C502F091C60282FD1BC09081809192
:10116000C8028F5F8F732091C902821741F0E0910E
:10117000C802F0E0E155FD4F958F8093C802FF91C2
:10118000EF919F918F912F910F900FBE0F901F9015
:1011900018958081F4CF1F920F920FB60F921124F1
:1011A0002F933F938F939F93AF93BF93809135027B
:1011B00090913602A0913702B091380230913402FA
:1011C00023E0230F2D3758F50196A11DB11D209363
:1011D00034028093350290933602A0933702B09385
:1011E00038028091390290913A02A0913B02B0916D
:1011F0003C020196A11DB11D8093390290933A02E1
:10120000A0933B02B0933C02BF91AF919F918F910D
:101210003F912F910F900FBE0F901F90189526E8C9
:10122000230F0296A11DB11DD2CF1F920F920FB6B0
:101230000F9211242F933F934F935F936F937F935C
:101240008F939F93AF93BF93EF93FF938091B900D8
:10125000887F803609F44AC0F0F5883209F4A7C0C7
:1012600018F5803109F49BC0B8F4882309F4F9C05B
:10127000883009F494C0FF91EF91BF91AF919F9195
:101280008F917F916F915F914F913F912F910F902F
:101290000FBE0F901F901895883109F488C08032D6
:1012A00051F78093830214C0803409F49DC040F448
:1012B0008033B9F38833F9F68093830285ECB0C0AC
:1012C000803509F485C0883509F496C0883499F6CC
:1012D0000E943B08D0CF883909F48CC038F5883794
:1012E00029F050F4883611F0803729F683E0809396
:1012F00085021092330257C0883809F47BC08039C8
:1013000019F0803809F0B7CF80913302803208F0AD
:1013100071C0E091330281E08E0F8093330280919F
:10132000BB00F0E0ED5EFD4F80833DC0803B39F0B7
:10133000E0F4803A09F479C0883A09F09CCF84E05F
:10134000809385021092100210920F02E0910D021C
:10135000F0910E02099580910F0281110FC081E07A
:1013600080930F021092ED0109C0803C09F4A6CFD2
:10137000883C09F4A3CF883B09F07DCFE0911002AF
:1013800081E08E0F80931002F0E0E351FE4F8081E8
:101390008093BB009091100280910F0229C0809130
:1013A00060028093BB0085EC8093BC0064CF909179
:1013B000820280918102981758F5E091820281E0C3
:1013C0008E0F80938202F0E0EF59FD4F8081E9CFCC
:1013D000E091820281E08E0F809382028091BB00B7
:1013E000F0E0EF59FD4F808390918202809181025D
:1013F0009817C8F285E8D8CFE091820281E08E0F7D
:10140000809382028091BB00F0E0EF59FD4F808312
:101410008091840281115CCF81E080935F0284EA35
:101420008093BC001092850226CF85EC8093BC008F
:101430001092850280913302803230F4E0913302C1
:10144000F0E0ED5EFD4F10826091330270E0E091BC
:101450001102F091120283E192E009951092330299
:101460000ACF1092830234CFEFEAF2E013821282A5
:1014700088EE93E0A0E0B0E084839583A683B783F1
:1014800027E131E03183208325EC30E03587248764
:1014900024EC30E03787268720EC30E0318B208B3E
:1014A00021EC30E0338B228B22EC30E0358B248B27
:1014B00026EC30E0378B268B118E128E138E148E15
:1014C000ECE4F3E01382128284839583A683B783CE
:1014D00089E291E0918380830895789484B5826055
:1014E00084BD84B5816084BD85B5826085BD85B5C8
:1014F000816085BD80916E00816080936E00109246
:1015000081008091810082608093810080918100C0
:101510008160809381008091800081608093800051
:101520008091B10084608093B1008091B0008160AF
:101530008093B00080917A00846080937A008091DB
:101540007A00826080937A0080917A008160809333
:101550007A0080917A00806880937A001092C100AE
:1015600060E083E00E94BA0182E00E948E0084E085
:101570000E948E0086E00E948E0087E00E948E000E
:1015800088E00E948E0089E00E948E008AE00E941E
:101590008E008BE00E948E008CE00E948E008DE019
:1015A0000E948E008EE00E948E008FE00E948E00CE
:1015B00081E10E948E0085E00E948E0061E085E05E
:1015C0000E94BA0183E00E948E0060E083E00E94E6
:1015D000BA0183E080931201E091BF02F091C00252
:1015E00082E08083E091BB02F091BC021082E09126
:1015F000BD02F091BE028FEC80831092C702E09191
:10160000C302F091C40286E08083E091C102F091B0
:10161000C202808180618083E091C102F091C202A8
:10162000808188608083E091C102F091C202808154
:1016300080688083E091C102F091C20280818F7D39
:1016400080830E9455050E94DD066EE170E080E017
:1016500090E00E942B0261E083E00E94BA0165E005
:1016600070E080E090E00E942B0260E083E00E9446
:10167000BA0165E070E080E090E00E942B0261E03A
:1016800083E00E94BA016AE070E080E090E00E948E
:101690002B0268E873E180E090E00E942B020E9438
:1016A00055050E94DD0661E083E00E94BA016AE010
:1016B00070E080E090E00E942B0260E083E00E94F6
:1016C000BA016AE070E080E090E00E942B0261E0E5
:1016D00083E00E94BA01DDCF5058BB27AA270E94A1
:1016E000840B0C94F70C0E94E90C38F00E94F00C6B
:1016F00020F039F49F3F19F426F40C94E60C0EF414
:10170000E095E7FB0C94E00CE92F0E94080D58F3DC
:10171000BA17620773078407950720F079F4A6F5D6
:101720000C942A0D0EF4E0950B2EBA2FA02D0B0170
:10173000B90190010C01CA01A0011124FF27591B16
:1017400099F0593F50F4503E68F11A16F040A22F1C
:10175000232F342F4427585FF3CF4695379527958D
:10176000A795F0405395C9F77EF41F16BA0B620B8C
:10177000730B840BBAF09150A1F0FF0FBB1F661FD3
:10178000771F881FC2F70EC0BA0F621F731F841F16
:1017900048F4879577956795B795F7959E3F08F03C
:1017A000B0CF9395880F08F09927EE0F97958795FE
:1017B00008950E94BC0C08F481E008950E94F20B89
:1017C0000C94F70C0E94F00C58F00E94E90C40F0C9
:1017D00029F45F3F29F00C94E00C51110C942B0D6F
:1017E0000C94E60C0E94080D68F39923B1F355237D
:1017F00091F3951B550BBB27AA2762177307840724
:1018000038F09F5F5F4F220F331F441FAA1FA9F3B9
:1018100035D00E2E3AF0E0E832D091505040E695A7
:10182000001CCAF72BD0FE2F29D0660F771F881F08
:10183000BB1F261737074807AB07B0E809F0BB0BFB
:10184000802DBF01FF2793585F4F3AF09E3F51050F
:1018500078F00C94E00C0C942B0D5F3FE4F3983E71
:10186000D4F3869577956795B795F7959F5FC9F7F8
:10187000880F911D9695879597F90895E1E0660F79
:10188000771F881FBB1F621773078407BA0720F0F2
:10189000621B730B840BBA0BEE1F88F7E09508955B
:1018A0000E94100D88F09F5798F0B92F9927B751D3
:1018B000B0F0E1F0660F771F881F991F1AF0BA95F4
:1018C000C9F714C0B13091F00E942A0DB1E008951B
:1018D0000C942A0D672F782F8827B85F39F0B93F0D
:1018E000CCF3869577956795B395D9F73EF49095A7
:1018F0008095709561957F4F8F4F9F4F0895E89425
:1019000009C097FB3EF490958095709561957F4F47
:101910008F4F9F4F9923A9F0F92F96E9BB279395F5
:10192000F695879577956795B795F111F8CFFAF405
:10193000BB0F11F460FF1BC06F5F7F4F8F4F9F4F36
:1019400016C0882311F096E911C0772321F09EE894
:10195000872F762F05C0662371F096E8862F70E0FA
:1019600060E02AF09A95660F771F881FDAF7880FD4
:101970009695879597F90895990F0008550FAA0B2A
:10198000E0E8FEEF16161706E807F907C0F0121692
:101990001306E407F50798F0621B730B840B950B95
:1019A00039F40A2661F0232B242B252B21F40895EA
:1019B0000A2609F4A140A6958FEF811D811D089587
:1019C00097F99F6780E870E060E008959FEF80ECF2
:1019D000089500240A941616170618060906089595
:1019E00000240A9412161306140605060895092EFB
:1019F0000394000C11F4882352F0BB0F40F4BF2B6A
:101A000011F460FF04C06F5F7F4F8F4F9F4F0895A9
:101A100057FD9058440F551F59F05F3F71F047959F
:101A2000880F97FB991F61F09F3F79F08795089584
:101A3000121613061406551FF2CF4695F1DF08C0A3
:101A4000161617061806991FF1CF869571056105C0
:101A500008940895E894BB2766277727CB0197F968
:101A600008950E94BC0C08F48FEF08950E94490D60
:101A70000C94F70C0E94E90C38F00E94F00C20F056
:101A8000952311F00C94E00C0C94E60C11240C94AA
:101A90002B0D0E94080D70F3959FC1F3950F50E038
:101AA000551F629FF001729FBB27F00DB11D639F10
:101AB000AA27F00DB11DAA1F649F6627B00DA11DB6
:101AC000661F829F2227B00DA11D621F739FB00D5C
:101AD000A11D621F839FA00D611D221F749F3327CC
:101AE000A00D611D231F849F600D211D822F762F65
:101AF0006A2F11249F5750409AF0F1F088234AF042
:101B0000EE0FFF1FBB1F661F771F881F91505040AD
:101B1000A9F79E3F510580F00C94E00C0C942B0D1E
:101B20005F3FE4F3983ED4F3869577956795B79534
:101B3000F795E7959F5FC1F7FE2B880F911D96954E
:101B4000879597F908950E94BC0C880B990B08950E
:101B5000A1E21A2EAA1BBB1BFD010DC0AA1FBB1FB1
:101B6000EE1FFF1FA217B307E407F50720F0A21B23
:101B7000B30BE40BF50B661F771F881F991F1A9490
:101B800069F760957095809590959B01AC01BD01BA
:101B9000CF010895EE0FFF1F0590F491E02D0994F9
:041BA000F894FFCFE7
:101BA4000000CA4300004A4300807C45000080BF17
:101BB400000001000000004D01AD00DA009A010BA5
:101BC40001E900FD00000000000504D8033904B554
:101BD400038700C503B6036E616E00696E66006F0D
:101BE4007666007B2274223A5B002C305D2C002246
:101BF40068223A5B002C315D2C002270223A5B0093
:101C04002C325D2C00226C223A5B002C335D2C00BC
:101C14002262223A002273223A5B0022424D45326C
:101C24003830222C22424D45323830222C22424D6B
:101C340045323830222C00225348543231222C228F
:101C44005348543231222C222D2D222C002244536D
:101C54003138423230222C222D2D222C222D2D22BD
:101C64002C00222D2D222C222D2D222C222D2D2212
:101C74002C00224D415834343030392200222D2D8D
:081C840022005D7D000D0A0045
:00000001FF
