:100000000C9462000C948A000C948A000C948A0070
:100010000C948A000C948A000C948A000C948A0038
:100020000C948A000C948A000C948A000C948A0028
:100030000C948A000C948A000C948A000C948A0018
:100040000C942C060C948A000C94FA050C94D4059C
:100050000C948A000C948A000C948A000C948A00F8
:100060000C948A000C948A000000000024002700F1
:100070002A0000000000250028002B0000000000DE
:1000800023002600290004040404040404040202DA
:100090000202020203030303030301020408102007
:1000A0004080010204081020010204081020000012
:1000B0000008000201000003040700000000000027
:1000C0000000760611241FBECFEFD8E0DEBFCDBF03
:1000D00011E0A0E0B1E0E4E5F4E102C005900D928A
:1000E000A63DB107D9F722E0A6EDB1E001C01D920F
:1000F000A638B207E1F710E0C2E6D0E004C02197CD
:10010000FE010E94220AC136D107C9F70E94B20639
:100110000C94280A0C940000AF92BF92CF92DF9209
:10012000EF92FF920F931F93CF93DF936C017B01AC
:100130008B01040F151FEB015E01AE18BF08C0173D
:10014000D10759F06991D601ED91FC910190F081B0
:10015000E02DC6010995892B79F7C501DF91CF9173
:100160001F910F91FF90EF90DF90CF90BF90AF90D5
:100170000895FC01538D448D252F30E0842F90E0AD
:10018000821B930B541710F0CF9608950197089592
:10019000FC01918D828D981761F0A28DAE0FBF2F5B
:1001A000B11D5D968C91928D9F5F9F73928F90E0B1
:1001B00008958FEF9FEF0895FC01918D828D981720
:1001C00031F0828DE80FF11D858D90E008958FEF5D
:1001D0009FEF0895FC01918D228D892F90E0805C26
:1001E0009F4F821B91098F739927089583EE91E0A9
:1001F0000E94EA0021E0892B09F420E0822F089573
:1002000080E090E0892B29F00E94F60081110C9487
:1002100000000895FC01A48DA80FB92FB11DA35AA9
:10022000BF4F2C91848D90E001968F739927848F16
:10023000A689B7892C93A089B1898C918370806439
:100240008C93938D848D981306C00288F389E02DDA
:1002500080818F7D80830895EF92FF920F931F938B
:10026000CF93DF93EC0181E0888F9B8D8C8D981369
:100270001AC0E889F989808185FF15C09FB7F89475
:10028000EE89FF896083E889F989808183708064C1
:1002900080839FBF81E090E0DF91CF911F910F910C
:1002A000FF90EF900895F62E0B8D10E00F5F1F4F1B
:1002B0000F731127E02E8C8D8E110CC00FB607FC2A
:1002C000FACFE889F989808185FFF5CFCE010E94B8
:1002D0000A01F1CFEB8DEC0FFD2FF11DE35AFF4F1B
:1002E000F0829FB7F8940B8FEA89FB898081806246
:1002F000CFCFCF93DF93EC01888D8823B9F0AA8903
:10030000BB89E889F9898C9185FD03C0808186FDD0
:100310000DC00FB607FCF7CF8C9185FFF2CF80811F
:1003200085FFEDCFCE010E940A01E9CFDF91CF9189
:100330000895833081F028F4813099F08230A9F05B
:1003400008958730A9F08830C9F08430B1F48091E5
:1003500080008F7D03C0809180008F778093800024
:10036000089584B58F7784BD089584B58F7DFBCFC4
:100370008091B0008F778093B00008958091B00095
:100380008F7DF9CFCF93DF93E5EBF0E08491E1EA45
:10039000F0E0D491EDE8F0E0C491CC23A1F081111C
:1003A0000E949901EC2FF0E0EE0FFF1FE458FF4F81
:1003B000A591B491EC91ED2381E090E009F480E007
:1003C000DF91CF91089580E090E0FACF1F93CF9313
:1003D000DF93282F30E0F901E255FF4F8491F901B6
:1003E000E656FF4FD491F901EA57FF4FC491CC2351
:1003F000A9F0162F81110E949901EC2FF0E0EE0F69
:10040000FF1FEE58FF4FA591B4918FB7F894EC9170
:10041000111108C0D095DE23DC938FBFDF91CF91FF
:100420001F910895DE2BF8CFCF93DF9390E0FC016E
:10043000E656FF4F24918A579F4FFC0184918823F1
:10044000D1F090E0880F991FFC01E859FF4FA5916A
:10045000B491FC01EE58FF4FC591D49161110EC0CB
:100460009FB7F8948C91E22FE0958E238C9328818E
:10047000E223E8839FBFDF91CF9108958FB7F8946F
:10048000EC91E22BEC938FBFF6CFBF92CF92DF922D
:10049000EF92FF920F931F93CF93DF93D82FC8E073
:1004A0009BEEE92EF12C2FE0C22ED12CBFB6F89492
:1004B00061E087E00E9414020D2F10E0D0FF1AC007
:1004C000C6010197F1F760E087E00E941402C701BE
:1004D0000197F1F7BFBE15950795D02FC15031F7A1
:1004E000DF91CF911F910F91FF90EF90DF90CF9010
:1004F000BF900895C7010197F1F760E087E00E947F
:100500001402C601E5CF3FB7F8948091DF019091C6
:10051000E001A091E101B091E20126B5A89B05C0E0
:100520002F3F19F00196A11DB11D3FBFBA2FA92F72
:10053000982F8827BC01CD01620F711D811D911D6F
:1005400042E0660F771F881F991F4A95D1F70895DB
:100550008F929F92AF92BF92CF92DF92EF92FF92D3
:100560004B015C010E9483026B017C010E948302AB
:100570006C197D098E099F09683E734081059105BC
:10058000A8F321E0821A9108A108B10888EEC80EEC
:1005900083E0D81EE11CF11C81149104A104B10474
:1005A00029F7FF90EF90DF90CF90BF90AF909F9092
:1005B0008F900895CF93DF9361E087E00E9414024B
:1005C0008BE198E00197F1F7DFB7F89460E087E0FE
:1005D0000E94140283E090E00197F1F7C0E50E94C9
:1005E000C201892B51F4DFBFC9EC0E94C201892BE3
:1005F00011F4C150D1F780E004C0C15081F7DFBFD2
:1006000081E0DF91CF9108950E94DA0281110FC03D
:100610008CEC0E9445028EE40E9445028FEF0E94FE
:10062000450280E00E9445028FE30C944502089544
:10063000109281020E94DA02811106C08CEC0E94A5
:10064000450284E40C94450208952F923F924F9204
:100650005F926F927F928F929F92AF92BF92CF9252
:10066000DF92EF92FF920F931F93CF93DF93CDB75B
:10067000DEB729970FB6F894DEBF0FBECDBF81E07D
:10068000809381020E94DA02482E81117FC08CEC97
:100690000E9445028EEB0E94450210928002CE011C
:1006A00001967C015E019AE0A90EB11C10E000E009
:1006B00023E0622E712C3BEE832E912C98E0392E94
:1006C000512CC52CD12CD594C7945C2C2FB6F89402
:1006D00061E087E00E941402C3010197F1F760E036
:1006E00087E00E9414028BE190E00197F1F70E94ED
:1006F000C201892B11F0689457F8C4010197F1F7F2
:100700002FBE3A943110DDCFF70151927F01050DD4
:10071000111D80918002852598E02CE8869508F4CB
:1007200082279A95D9F780938002EA15FB0509F094
:10073000C5CF29813A812F3F320771F0012B61F03B
:1007400081110AC0203585E0380721F030938502F9
:100750002093840244244394842D29960FB6F89460
:10076000DEBF0FBECDBFDF91CF911F910F91FF90E4
:10077000EF90DF90CF90BF90AF909F908F907F9041
:100780006F905F904F903F902F900895412CE4CF51
:10079000FC0101900020E9F73197AF01481B590B8C
:1007A000BC0183EE91E00C948C008F929F92AF92EB
:1007B000BF920F931F93CF93DF93CDB7DEB7A1976F
:1007C0000FB6F894DEBF0FBECDBF19A2423008F4B9
:1007D0004AE08E010F5D1F4F842E912CB12CA12C6D
:1007E000A50194010E94000AE62FB901CA01EA306E
:1007F000F4F4E05DD801EE938D01232B242B252BFF
:1008000079F790E080E0109719F0CD010E94C803BD
:10081000A1960FB6F894DEBF0FBECDBFDF91CF918A
:100820001F910F91BF90AF909F908F900895E95CBA
:10083000E1CF0C94C8034F925F926F927F928F9298
:100840009F92AF92BF92CF92DF92EF92FF920F935F
:100850001F93CF936B017C01742EAC019B010E940E
:10086000FB09882399F085E291E0CF911F910F91C8
:10087000FF90EF90DF90CF90BF90AF909F908F90C0
:100880007F906F905F904F900C94C8034601570182
:10089000E894B7F82FEF3FEF4FE75FE7C501B401EA
:1008A0000E94FB0981110DC02FEF3FEF4FE75FE77B
:1008B000C501B4010E94310818161CF489E291E0C8
:1008C000D4CF2FEF3FEF4FE75FE4C701B6010E949F
:1008D000890918161CF48DE291E0C7CF2FEF3FEF86
:1008E0004FE75FECC701B6010E94310887FDF3CFE7
:1008F00020E030E0A901C701B6010E94310810E0F4
:1009000000E087FF0AC06DE283EE91E00E942C01B7
:100910008C01F7FAF094F7F8F094C0E060E070E032
:1009200080E09FE37C1641F020E030E040E251E4BB
:100930000E943608CF5FF6CFA70196010E94C50737
:100940002B013C010E94A8084B015C014AE00E9477
:10095000D5037C01E00EF11ECC23C1F1C501B40129
:100960000E94D7089B01AC01C301B2010E94C407D9
:100970004B015C016EE283EE91E00E942C01E80ED7
:10098000F91EC15018F120E030E040E251E4C50109
:10099000B4010E948E092B013C010E94A8084B0162
:1009A000B12CA12C4AE0C501B4010E94D503E80E88
:1009B000F91EC501B4010E94D7089B01AC01C30117
:1009C000B2010E94C4074B015C01DBCFC701CF918C
:1009D0001F910F91FF90EF90DF90CF90BF90AF905D
:1009E0009F908F907F906F905F904F90089568ECEC
:1009F00070E080E090E00E94A8020E942503882316
:100A000019F081E08093D8018091D8018823F1F01A
:100A100080918102811102C00E94250360918402AD
:100A200070918502072E000C880B990B0E94D90843
:100A300020E030E040E85DE30E948E096093000111
:100A40007093010180930201909303018091120140
:100A500020E4829FC0011124826080937C008091F9
:100A60007A00806480937A0080917A0086FDFCCFC2
:100A70009091780080917900892798278927909311
:100A800011018093100181E391E00E9419046091AB
:100A9000000170910101809102019091030142E0F7
:100AA0000E941B0488E391E00E9419048DE391E009
:100AB0000E94190460910401709105018091060162
:100AC0009091070142E00E941B0483E491E00E94A0
:100AD000190488E491E00E94190460910801709162
:100AE000090180910A0190910B0142E00E941B04D0
:100AF0008EE491E00E94190483E591E00E941904BC
:100B000060910C0170910D0180910E0190910F0187
:100B100042E00E941B0489E591E00E9419048EE5E1
:100B200091E00E941904609110017091110190E010
:100B300080E04AE00E94D5038EEB91E00E94190408
:100B400083E691E00E9419048091D6018823C1F0C8
:100B500089E691E00E9419048091D901882309F166
:100B600080EC91E00E94190480ED91E00E94C8039E
:100B700083ED91E00E94C80383EE91E00C9479012B
:100B80008091D701882319F085E891E0E3CF809127
:100B9000D801882319F08BE991E0DCCF80EB91E05C
:100BA000D9CF8BEC91E0DECF1F920F920FB60F9250
:100BB00011242F933F934F935F936F937F938F9362
:100BC0009F93AF93BF93EF93FF9383EE91E00E94C7
:100BD0000A01FF91EF91BF91AF919F918F917F910A
:100BE0006F915F914F913F912F910F900FBE0F909A
:100BF0001F9018951F920F920FB60F9211242F93EA
:100C00008F939F93EF93FF93E091F301F091F401A1
:100C10008081E091F901F091FA0182FD1BC0908181
:100C20008091FC018F5F8F732091FD01821741F04D
:100C3000E091FC01F0E0ED51FE4F958F8093FC01B7
:100C4000FF91EF919F918F912F910F900FBE0F9079
:100C50001F9018958081F4CF1F920F920FB60F92BC
:100C600011242F933F938F939F93AF93BF938091C2
:100C7000DB019091DC01A091DD01B091DE013091AA
:100C8000DA0123E0230F2D3758F50196A11DB11D80
:100C90002093DA018093DB019093DC01A093DD01C6
:100CA000B093DE018091DF019091E001A091E1011C
:100CB000B091E2010196A11DB11D8093DF019093D7
:100CC000E001A093E101B093E201BF91AF919F9148
:100CD0008F913F912F910F900FBE0F901F901895FD
:100CE00026E8230F0296A11DB11DD2CFE3EEF1E05D
:100CF0001382128288EE93E0A0E0B0E084839583B3
:100D0000A683B78387E191E09183808385EC90E0AF
:100D10009587848784EC90E09787868780EC90E0C5
:100D2000918B808B81EC90E0938B828B82EC90E0B6
:100D3000958B848B86EC90E0978B868B118E128E30
:100D4000138E148EE0E8F2E0108211821382128278
:100D50001582148260E087E00E94140260E087E060
:100D60000C94E601789484B5826084BD84B581607A
:100D700084BD85B5826085BD85B5816085BD809166
:100D80006E00816080936E001092810080918100DE
:100D900082608093810080918100816080938100D6
:100DA000809180008160809380008091B100846098
:100DB0008093B1008091B00081608093B0008091F9
:100DC0007A00846080937A0080917A0082608093B8
:100DD0007A0080917A00816080937A0080917A0015
:100DE000806880937A001092C10060E083E00E94E6
:100DF000E60161E082E00E94140261E084E00E946A
:100E0000140261E086E00E94140261E087E00E9423
:100E1000140261E088E00E94140261E089E00E940F
:100E2000140261E08AE00E94140261E08BE00E94FB
:100E3000140261E08CE00E94140261E08DE00E94E7
:100E4000140261E08EE00E94140261E08FE00E94D3
:100E5000140261E081E10E94140261E085E00E94D9
:100E6000140261E085E00E94E60161E083E00E94F7
:100E7000140260E083E00E94E60183E080931201A7
:100E8000E091F301F091F40182E08083E091EF01C1
:100E9000F091F0011082E091F101F091F2018FECFC
:100EA00080831092FB01E091F701F091F80186E058
:100EB0008083E091F501F091F6018081806180836B
:100EC000E091F501F091F601808188608083E091E6
:100ED000F501F091F601808180688083E091F50151
:100EE000F091F60180818F7D80830E9404030E942F
:100EF00018030E94F7046EE170E080E090E00E9429
:100F0000A80261E083E00E94E60165E070E080E015
:100F100090E00E94A80260E083E00E94E60165E0A4
:100F200070E080E090E00E94A80261E083E00E940F
:100F3000E6016AE070E080E090E00E94A80268E8C4
:100F400073E180E090E00E94A8020E9404030E94E6
:100F500018030E94F70461E083E00E94E6016AE062
:100F600070E080E090E00E94A80260E083E00E94D0
:100F7000E6016AE070E080E090E00E94A80261E093
:100F800083E00E94E601DBCF5058BB27AA270E94CE
:100F9000DC070C944F090E94410938F00E9448096F
:100FA00020F039F49F3F19F426F40C943E090EF416
:100FB000E095E7FB0C943809E92F0E94600958F38B
:100FC000BA17620773078407950720F079F4A6F52E
:100FD0000C9482090EF4E0950B2EBA2FA02D0B0174
:100FE000B90190010C01CA01A0011124FF27591B6E
:100FF00099F0593F50F4503E68F11A16F040A22F74
:10100000232F342F4427585FF3CF469537952795E4
:10101000A795F0405395C9F77EF41F16BA0B620BE3
:10102000730B840BBAF09150A1F0FF0FBB1F661F2A
:10103000771F881FC2F70EC0BA0F621F731F841F6D
:1010400048F4879577956795B795F7959E3F08F093
:10105000B0CF9395880F08F09927EE0F9795879555
:1010600008950E94140908F481E008950E944A0836
:101070000C944F090E94480958F00E94410940F021
:1010800029F45F3F29F00C94380951110C9483091D
:101090000C943E090E94600968F39923B1F355232B
:1010A00091F3951B550BBB27AA276217730784077B
:1010B00038F09F5F5F4F220F331F441FAA1FA9F311
:1010C00035D00E2E3AF0E0E832D091505040E695FF
:1010D000001CCAF72BD0FE2F29D0660F771F881F60
:1010E000BB1F261737074807AB07B0E809F0BB0B53
:1010F000802DBF01FF2793585F4F3AF09E3F510567
:1011000078F00C9438090C9483095F3FE4F3983E1F
:10111000D4F3869577956795B795F7959F5FC9F74F
:10112000880F911D9695879597F90895E1E0660FD0
:10113000771F881FBB1F621773078407BA0720F049
:10114000621B730B840BBA0BEE1F88F7E0950895B2
:101150000E94680988F09F5798F0B92F9927B751D6
:10116000B0F0E1F0660F771F881F991F1AF0BA954B
:10117000C9F714C0B13091F00E948209B1E008951E
:101180000C948209672F782F8827B85F39F0B93F10
:10119000CCF3869577956795B395D9F73EF49095FE
:1011A0008095709561957F4F8F4F9F4F0895E8947C
:1011B00009C097FB3EF490958095709561957F4F9F
:1011C0008F4F9F4F9923A9F0F92F96E9BB2793954D
:1011D000F695879577956795B795F111F8CFFAF45D
:1011E000BB0F11F460FF1BC06F5F7F4F8F4F9F4F8E
:1011F00016C0882311F096E911C0772321F09EE8EC
:10120000872F762F05C0662371F096E8862F70E051
:1012100060E02AF09A95660F771F881FDAF7880F2B
:101220009695879597F90895990F0008550FAA0B81
:10123000E0E8FEEF16161706E807F907C0F01216E9
:101240001306E407F50798F0621B730B840B950BEC
:1012500039F40A2661F0232B242B252B21F4089541
:101260000A2609F4A140A6958FEF811D811D0895DE
:1012700097F99F6780E870E060E008959FEF80EC49
:10128000089500240A9416161706180609060895EC
:1012900000240A9412161306140605060895092E52
:1012A0000394000C11F4882352F0BB0F40F4BF2BC1
:1012B00011F460FF04C06F5F7F4F8F4F9F4F089501
:1012C00057FD9058440F551F59F05F3F71F04795F7
:1012D000880F97FB991F61F09F3F79F087950895DC
:1012E000121613061406551FF2CF4695F1DF08C0FB
:1012F000161617061806991FF1CF86957105610518
:1013000008940895E894BB2766277727CB0197F9BF
:1013100008950E94140908F48FEF08950E94A1090E
:101320000C944F090E94410938F00E94480920F0AE
:10133000952311F00C9438090C943E0911240C9457
:1013400083090E94600970F3959FC1F3950F50E0E7
:10135000551F629FF001729FBB27F00DB11D639F67
:10136000AA27F00DB11DAA1F649F6627B00DA11D0D
:10137000661F829F2227B00DA11D621F739FB00DB3
:10138000A11D621F839FA00D611D221F749F332723
:10139000A00D611D231F849F600D211D822F762FBC
:1013A0006A2F11249F5750409AF0F1F088234AF099
:1013B000EE0FFF1FBB1F661F771F881F9150504005
:1013C000A9F79E3F510580F00C9438090C948309CD
:1013D0005F3FE4F3983ED4F3869577956795B7958C
:1013E000F795E7959F5FC1F7FE2B880F911D9695A6
:1013F000879597F908950E941409880B990B089511
:10140000A1E21A2EAA1BBB1BFD010DC0AA1FBB1F08
:10141000EE1FFF1FA217B307E407F50720F0A21B7A
:10142000B30BE40BF50B661F771F881F991F1A94E7
:1014300069F760957095809590959B01AC01BD0111
:10144000CF010895EE0FFF1F0590F491E02D099450
:04145000F894FFCF3E
:101454000000CA4300004A4300807C45000080BF6E
:10146400000001000000002C018C00B9007901EAA1
:1014740000C800DC006E616E00696E66006F7666FF
:10148400007B2274223A5B002C305D2C00226822FF
:101494003A5B002C315D2C002270223A5B002C3226
:1014A4005D2C00226C223A5B002C335D2C002262FE
:1014B400223A002273223A5B0022424D45323830F0
:1014C400222C22424D45323830222C22424D4532C4
:1014D4003830222C00225348543231222C225348D3
:1014E400543231222C222D2D222C00224453313807
:1014F400423230222C222D2D222C222D2D222C0062
:10150400222D2D222C222D2D222C222D2D222C0079
:10151400224D415834343030392200222D2D2200FE
:061524005D7D000D0A00D0
:00000001FF
