:100000000C9462000C948A000C948A000C948A0070
:100010000C948A000C948A000C948A000C948A0038
:100020000C948A000C948A000C948A000C948A0028
:100030000C948A000C948A000C948A000C948A0018
:100040000C948E090C948A000C945C090C9436096B
:100050000C948A000C948A000C948A000C948A00F8
:100060000C94D8090C948A0000000000240027009A
:100070002A0000000000250028002B0000000000DE
:1000800023002600290004040404040404040202DA
:100090000202020203030303030301020408102007
:1000A0004080010204081020010204081020000012
:1000B0000008000201000003040700000000000027
:1000C0000000F30A11241FBECFEFD8E0DEBFCDBF82
:1000D00011E0A0E0B1E0EEE5FDE102C005900D9277
:1000E000A83EB107D9F723E0A8EEB1E001C01D9208
:1000F000AA35B207E1F710E0C2E6D0E004C02197CC
:10010000FE010E94A70EC136D107C9F70E943B0B22
:100110000C94AD0E0C940000AF92BF92CF92DF9280
:10012000EF92FF920F931F93CF93DF936C017B01AC
:100130008B01040F151FEB015E01AE18BF08C0173D
:10014000D10759F06991D601ED91FC910190F081B0
:10015000E02DC6010995892B79F7C501DF91CF9173
:100160001F910F91FF90EF90DF90CF90BF90AF90D5
:100170000895FC01538D448D252F30E0842F90E0AD
:10018000821B930B541710F0CF9608950197089592
:10019000FC01918D828D981761F0A28DAE0FBF2F5B
:1001A000B11D5D968C91928D9F5F9F73928F90E0B1
:1001B00008958FEF9FEF0895FC01918D828D981720
:1001C00031F0828DE80FF11D858D90E008958FEF5D
:1001D0009FEF0895FC01918D228D892F90E0805C26
:1001E0009F4F821B91098F73992708958BEA92E0A4
:1001F0000E94EA0021E0892B09F420E0822F089573
:1002000080E090E0892B29F00E94F60081110C9487
:1002100000000895FC01A48DA80FB92FB11DA35AA9
:10022000BF4F2C91848D90E001968F739927848F16
:10023000A689B7892C93A089B1898C918370806439
:100240008C93938D848D981306C00288F389E02DDA
:1002500080818F7D80830895EF92FF920F931F938B
:10026000CF93DF93EC0181E0888F9B8D8C8D981369
:100270001AC0E889F989808185FF15C09FB7F89475
:10028000EE89FF896083E889F989808183708064C1
:1002900080839FBF81E090E0DF91CF911F910F910C
:1002A000FF90EF900895F62E0B8D10E00F5F1F4F1B
:1002B0000F731127E02E8C8D8E110CC00FB607FC2A
:1002C000FACFE889F989808185FFF5CFCE010E94B8
:1002D0000A01F1CFEB8DEC0FFD2FF11DE35AFF4F1B
:1002E000F0829FB7F8940B8FEA89FB898081806246
:1002F000CFCFCF93DF93EC01888D8823B9F0AA8903
:10030000BB89E889F9898C9185FD03C0808186FDD0
:100310000DC00FB607FCF7CF8C9185FFF2CF80811F
:1003200085FFEDCFCE010E940A01E9CFDF91CF9189
:100330000895833081F028F4813099F08230A9F05B
:1003400008958730A9F08830C9F08430B1F48091E5
:1003500080008F7D03C0809180008F778093800024
:10036000089584B58F7784BD089584B58F7DFBCFC4
:100370008091B0008F778093B00008958091B00095
:100380008F7DF9CFCF93DF93E5EBF0E08491E1EA45
:10039000F0E0D491EDE8F0E0C491CC23A1F081111C
:1003A0000E949901EC2FF0E0EE0FFF1FE458FF4F81
:1003B000A591B491EC91ED2381E090E009F480E007
:1003C000DF91CF91089580E090E0FACF1F93CF9313
:1003D000DF93282F30E0F901E255FF4F8491F901B6
:1003E000E656FF4FD491F901EA57FF4FC491CC2351
:1003F000A9F0162F81110E949901EC2FF0E0EE0F69
:10040000FF1FEE58FF4FA591B4918FB7F894EC9170
:10041000111108C0D095DE23DC938FBFDF91CF91FF
:100420001F910895DE2BF8CFCF93DF9390E0FC016E
:10043000E656FF4F24918A579F4FFC0184918823F1
:10044000D1F090E0880F991FFC01E859FF4FA5916A
:10045000B491FC01EE58FF4FC591D49161110EC0CB
:100460009FB7F8948C91E22FE0958E238C9328818E
:10047000E223E8839FBFDF91CF9108958FB7F8946F
:10048000EC91E22BEC938FBFF6CFBF92CF92DF922D
:10049000EF92FF920F931F93CF93DF93D82FC8E073
:1004A0009BEEE92EF12C2FE0C22ED12CBFB6F89492
:1004B00061E087E00E9414020D2F10E0D0FF1AC007
:1004C000C6010197F1F760E087E00E941402C701BE
:1004D0000197F1F7BFBE15950795D02FC15031F7A1
:1004E000DF91CF911F910F91FF90EF90DF90CF9010
:1004F000BF900895C7010197F1F760E087E00E947F
:100500001402C601E5CF3FB7F8948091570290914D
:100510005802A0915902B0915A0226B5A89B05C075
:100520002F3F19F00196A11DB11D3FBFBA2FA92F72
:10053000982F8827BC01CD01620F711D811D911D6F
:1005400042E0660F771F881F991F4A95D1F70895DB
:100550008F929F92AF92BF92CF92DF92EF92FF92D3
:100560004B015C010E9483026B017C010E948302AB
:100570006C197D098E099F09683E734081059105BC
:10058000A8F321E0821A9108A108B10888EEC80EEC
:1005900083E0D81EE11CF11C81149104A104B10474
:1005A00029F7FF90EF90DF90CF90BF90AF909F9092
:1005B0008F9008951F93CF93DF93C1E0C0930E02F5
:1005C000882399F1D091B8001091BA008091BC00B5
:1005D0008A7B8093BC0060E082E10E94E60160E0DB
:1005E00083E10E94E60110928102C0938002109282
:1005F0005B0261E082E10E94E60161E083E10E942A
:10060000E6018091B9008E7F8093B9008091B90096
:100610008D7F8093B90088E48093B80085E480934F
:10062000BC001093BA00D093B800DF91CF911F9116
:1006300008958F929F92AF92BF92CF92DF92EF92E6
:10064000FF920F931F93CF93DF93D091AA02D132E1
:1006500008F0D7C0182FC091A9020E9483026B0135
:100660007C018091810281116BC082E080938102C4
:10067000109380028FEF80937F0210927E02D093BE
:100680007D02A9E8B2E0EDE5F2E080E0D81391C088
:1006900010925C0280915C02CC0FC82BC0935C026C
:1006A00080915B02813009F088C010925B020E9449
:1006B00083026B017C0180915C028093BB0080917E
:1006C000830290918402A0918502B0918602892BC9
:1006D0008A2B8B2BA1F00E94830200918302109140
:1006E000840220918502309186026C197D098E0961
:1006F0009F09061717072807390708F442C0809199
:10070000BC0083FDD8CF85EC8093BC000E9483029F
:100710006B017C0180918102823009F450C080918C
:100720007F028F3F09F46FC080917F02803209F40D
:100730006CC080917F02803309F469C084E026C0D8
:100740008091830290918402A0918502B0918602EB
:10075000892B8A2B8B2B09F484CF0E9483028090F3
:10076000830290908402A0908502B09086026C195A
:100770007D098E099F0986169706A806B90608F016
:1007800070CF809182020E94DA0285E01092880286
:100790001092AA0210928702DF91CF911F910F91C0
:1007A000FF90EF90DF90CF90BF90AF909F908F9091
:1007B00008959D9191938F5F69CF85EEA5CF80912C
:1007C000830290918402A0918502B0918602892BC8
:1007D0008A2B8B2B09F49ECF0E9483020091830207
:1007E0001091840220918502309186026C197D0956
:1007F0008E099F09061717072807390708F08ACFBF
:10080000C0CF81E0C3CF80E0C1CF82E0BFCF83E023
:10081000BDCF20912F02260F3327331F2132310500
:10082000ECF420918102FC0190E080E0243069F03A
:1008300082E00895A0912F022191AC01415F5D4FAC
:10084000A40FB52FB11D2C930196861798F38091B4
:100850002F02680F60932F0280E0089581E00895D1
:100860000895E0910D0280910C02E81730F4F0E059
:10087000E451FE4F808190E008958FEF9FEF08953F
:1008800090910D0280910C022FEF3FEF981748F4E2
:10089000E92FF0E0E451FE4F208130E09F5F90931C
:1008A0000D02C901089580910C0290910D02891BDF
:1008B000990B0895CF92DF92EF92FF920F931F93BF
:1008C000CF93DF937C01CB018A0120918702222301
:1008D00089F0EB016B01C40ED51ECC15DD0569F066
:1008E0006991D701ED91FC910190F081E02DC70154
:1008F0000995F3CF642F0E940904C801DF91CF91BD
:100900001F910F91FF90EF90DF90CF900895CF93BC
:10091000DF931F92CDB7DEB7698320918702222330
:10092000F9F02091AA02203258F021E030E0FC01D9
:100930003383228390E080E00F90DF91CF91089580
:1009400080918802E82FF0E0E757FD4F998190836E
:100950008F5F809388028093AA0281E090E0ECCFC1
:1009600061E0CE0101960E940904F7CF90E080E09B
:100970000895CF93DF9361E087E00E9414028BE13A
:1009800098E00197F1F7DFB7F89460E087E00E9404
:10099000140283E090E00197F1F7C0E50E94C201E4
:1009A000892B51F4DFBFC9EC0E94C201892B11F4DD
:1009B000C150D1F780E004C0C15081F7DFBF81E0B2
:1009C000DF91CF9108952F923F924F925F926F9255
:1009D0007F928F929F92AF92BF92CF92DF92EF92CF
:1009E000FF920F931F93CF93DF93CDB7DEB7299775
:1009F0000FB6F894DEBF0FBECDBF81E080935503E4
:100A00000E94B904482E81117FC08CEC0E944502DF
:100A10008EEB0E94450210925403CE0101967C0198
:100A20005E019AE0A90EB11C10E000E023E0622E06
:100A3000712C3BEE832E912C98E0392E512CC52C35
:100A4000D12CD594C7945C2C2FB6F89461E087E044
:100A50000E941402C3010197F1F760E087E00E9451
:100A600014028BE190E00197F1F70E94C201892BFB
:100A700011F0689457F8C4010197F1F72FBE3A942A
:100A80003110DDCFF70151927F01050D111D8091CD
:100A90005403852598E02CE8869508F482279A95DA
:100AA000D9F780935403EA15FB0509F0C5CF2981D6
:100AB0003A812F3F320771F0012B61F081110AC09A
:100AC000203585E0380721F03093590320935803EF
:100AD00044244394842D29960FB6F894DEBF0FBEAC
:100AE000CDBFDF91CF911F910F91FF90EF90DF90DD
:100AF000CF90BF90AF909F908F907F906F905F90BE
:100B00004F903F902F900895412CE4CFCF930E94B7
:100B1000B90481110FC08CEC0E9445028EE40E9442
:100B200045028FEF0E94450280E00E9445028FE35C
:100B30000E944502109255030E94B904811106C01B
:100B40008CEC0E94450284E40E944502C1E0C093FF
:100B500087028AE48093A902109288021092AA0266
:100B600062E088E493E00E94870460E488E493E014
:100B70000E94870481E00E941903811102C0C09382
:100B8000EB01CF910895FC0101900020E9F7319726
:100B9000AF01481B590BBC018BEA92E00C948C000E
:100BA0008F929F92AF92BF920F931F93CF93DF9339
:100BB000CDB7DEB7A1970FB6F894DEBF0FBECDBF9D
:100BC00019A2423008F44AE08E010F5D1F4F842EB7
:100BD000912CB12CA12CA50194010E94850EE62F29
:100BE000B901CA01EA30F4F4E05DD801EE938D0159
:100BF000232B242B252B79F790E080E0109719F018
:100C0000CD010E94C305A1960FB6F894DEBF0FBEBA
:100C1000CDBFDF91CF911F910F91BF90AF909F906B
:100C20008F900895E95CE1CF0C94C3054F925F92D9
:100C30006F927F928F929F92AF92BF92CF92DF92EC
:100C4000EF92FF920F931F93CF936B017C01742E51
:100C5000AC019B010E94800E882399F087E391E00C
:100C6000CF911F910F91FF90EF90DF90CF90BF90A9
:100C7000AF909F908F907F906F905F904F900C946B
:100C8000C30546015701E894B7F82FEF3FEF4FE750
:100C90005FE7C501B4010E94800E81110DC02FEFE6
:100CA0003FEF4FE75FE7C501B4010E94B60C18168D
:100CB0001CF48BE391E0D4CF2FEF3FEF4FE75FE4DD
:100CC000C701B6010E940E0E18161CF48FE391E0C6
:100CD000C7CF2FEF3FEF4FE75FECC701B6010E9490
:100CE000B60C87FDF3CF20E030E0A901C701B601C3
:100CF0000E94B60C10E000E087FF0AC06DE28BEAAC
:100D000092E00E942C018C01F7FAF094F7F8F0942D
:100D1000C0E060E070E080E09FE37C1641F020E0FE
:100D200030E040E251E40E94BB0CCF5FF6CFA70158
:100D300096010E944A0C2B013C010E942D0D4B0193
:100D40005C014AE00E94D0057C01E00EF11ECC233C
:100D5000C1F1C501B4010E945C0D9B01AC01C3014E
:100D6000B2010E94490C4B015C016EE28BEA92E0F9
:100D70000E942C01E80EF91EC15018F120E030E06D
:100D800040E251E4C501B4010E94130E2B013C0165
:100D90000E942D0D4B01B12CA12C4AE0C501B401DC
:100DA0000E94D005E80EF91EC501B4010E945C0D39
:100DB0009B01AC01C301B2010E94490C4B015C01D3
:100DC000DBCFC701CF911F910F91FF90EF90DF9084
:100DD000CF90BF90AF909F908F907F906F905F90DB
:100DE0004F9008958F929F92AF92BF92CF92DF92D1
:100DF000EF92FF920F931F93CF93DF9368EC70E015
:100E000080E090E00E94A8020E94E304882319F089
:100E100081E08093EA018091EA018823F1F08091DA
:100E20005503811102C00E94E30460915803709140
:100E30005903072E000C880B990B0E945E0D20E0D1
:100E400030E040E85DE30E94130E60930001709370
:100E5000010180930201909303018091EB018823AB
:100E600009F4EAC081E0809387028AE48093A902B2
:100E7000109288021092AA0263E088E493E00E9434
:100E8000870481E00E9419030E9483026B017C01A8
:100E900080918102811164C081E0809381028093FE
:100EA00080029FEF90937F0210927E0280937D02DA
:100EB00080935C0280915C02846980935C028091E3
:100EC0005B02813009F060C110925B020E948302D4
:100ED0006B017C0180915C028093BB008091830256
:100EE00090918402A0918502B0918602892B8A2B71
:100EF0008B2BA1F00E948302809083029090840249
:100F0000A0908502B09086026C197D098E099F0918
:100F100086169706A806B90608F443C08091BC005F
:100F200083FDD8CF85EC8093BC000E9483026B01C7
:100F30007C0180918102813009F428C180917E0278
:100F4000823008F045C180917E02EDE5F2E0ACEE22
:100F5000B1E090E0981751F121912D939F5FFACF66
:100F60008091830290918402A0918502B0918602C3
:100F7000892B8A2B8B2B09F48BCF0E9483028090C4
:100F8000830290908402A0908502B09086026C1932
:100F90007D098E099F0986169706A806B90608F0EE
:100FA00077CF809182020E94DA0280E010920D02D7
:100FB00080930C02823051F488E493E00E94400454
:100FC000EC0188E493E00E9440048C01BE0184E0BF
:100FD000660F771F8A95E1F777270F701127602B2F
:100FE000712B072E000C880B990B0E945E0D6B0174
:100FF0007C01C295CF7061E070E002C0660F771F80
:10100000CA95E2F7072E000C880B990B0E945E0D23
:101010009B01AC01C701B6010E94130E2CEE31E515
:1010200048E35DE30E94130E60930C0170930D0181
:1010300080930E0190930F018091120120E4829F12
:10104000C0011124826080937C0080917A008064CA
:1010500080937A0080917A0086FDFCCF9091780091
:10106000809179008927982789279093110180938F
:10107000100183E491E00E941406609100017091D8
:101080000101809102019091030142E00E94160645
:101090008AE491E00E9414068FE491E00E94140615
:1010A0006091040170910501809106019091070102
:1010B00042E00E94160685E591E00E9414068AE54A
:1010C00091E00E94140660910801709109018091DD
:1010D0000A0190910B0142E00E94160680E691E021
:1010E0000E94140685E691E00E94140660910C01AE
:1010F00070910D0180910E0190910F0142E00E94CC
:1011000016068BE691E00E94140680E791E00E94AB
:101110001406609110017091110190E080E04AE0A6
:101120000E94D00580ED91E00E94140685E791E0D1
:101130000E9414068091E801882309F44BC08BE7D4
:1011400091E00E9414068091EB01882309F453C0BA
:1011500082ED91E00E94140682EE91E00E94C305A8
:1011600085EE91E00E94C3058BEA92E0DF91CF917A
:101170001F910F91FF90EF90DF90CF90BF90AF90B5
:101180009F908F900C94790185EECDCE8091830253
:1011900090918402A0918502B0918602892B8A2BBE
:1011A0008B2B09F4C6CE0E9483028090830290901C
:1011B0008402A0908502B09086026C197D098E0988
:1011C0009F0986169706A806B90608F0B2CEE9CEA2
:1011D00082E0BBCE8091E901882319F087E991E094
:1011E000B0CF8091EA01882319F08DEA91E0A9CF70
:1011F00082EC91E0A6CF8DED91E0ACCF85ED8093B0
:10120000BC008091830290918402A0918502B091EC
:1012100086020796A11DB11D23E0B695A795979567
:1012200087952A95D1F72091BC0024FD03C0109228
:101230008102089540918302509184026091850259
:1012400070918602452B462B472B69F30097A10529
:10125000B10541F025E32A95F1F700000197A109B6
:10126000B109E1CF809182020C94DA021F920F92B1
:101270000FB60F9211242F933F934F935F936F9369
:101280007F938F939F93AF93BF93EF93FF938BEADB
:1012900092E00E940A01FF91EF91BF91AF919F915F
:1012A0008F917F916F915F914F913F912F910F900F
:1012B0000FBE0F901F9018951F920F920FB60F92AE
:1012C00011242F938F939F93EF93FF93E091BB0291
:1012D000F091BC028081E091C102F091C20282FDD6
:1012E0001BC090818091C4028F5F8F732091C502D3
:1012F000821741F0E091C402F0E0E555FD4F958F73
:101300008093C402FF91EF919F918F912F910F9045
:101310000FBE0F901F9018958081F4CF1F920F92EF
:101320000FB60F9211242F933F938F939F93AF93F8
:10133000BF938091530290915402A0915502B091B5
:1013400056023091520223E0230F2D3758F50196B3
:10135000A11DB11D20935202809353029093540219
:10136000A0935502B0935602809157029091580273
:10137000A0915902B0915A020196A11DB11D80930E
:10138000570290935802A0935902B0935A02BF910A
:10139000AF919F918F913F912F910F900FBE0F9022
:1013A0001F90189526E8230F0296A11DB11DD2CFDC
:1013B0001F920F920FB60F9211242F933F934F93CA
:1013C0005F936F937F938F939F93AF93BF93EF93AD
:1013D000FF938091B900887F803609F44AC0F0F508
:1013E000883209F4A5C018F5803109F499C0B8F421
:1013F000882309F4F5C0883009F492C0FF91EF9179
:10140000BF91AF919F918F917F916F915F914F911C
:101410003F912F910F900FBE0F901F90189588311C
:1014200009F486C0803251F780937F0214C0803463
:1014300009F49BC040F48033B9F38833F9F6809304
:101440007F0285ECAEC0803509F483C0883509F48D
:1014500094C0883499F60E94FE08D0CF883909F4E8
:101460008AC038F5883729F050F4883611F0803773
:1014700029F683E0809381021092510255C088388A
:1014800009F479C0803919F0803809F0B7CF80911C
:101490005102803208F06FC0E091510281E08E0F5E
:1014A000809351028091BB00F0E0EF5CFD4F8083A0
:1014B0003BC0803B39F0D0F4803A09F477C0883AD9
:1014C00009F09CCF84E08093810210923002109248
:1014D0002F02F0E0E0E0099580912F0281110FC00A
:1014E00081E080932F0210920F0209C0803C09F422
:1014F000A8CF883C09F4A5CF883B09F07FCFE091C5
:10150000300281E08E0F80933002F0E0E15FFD4F0A
:1015100080818093BB009091300280912F0229C07E
:1015200080915C028093BB0085EC8093BC0066CF09
:1015300090917E0280917D02981758F5E0917E028D
:1015400081E08E0F80937E02F0E0E35AFD4F8081B0
:10155000E9CFE0917E0281E08E0F80937E02809140
:10156000BB00F0E0E35AFD4F808390917E028091B2
:101570007D029817C8F285E8D8CFE0917E0281E01D
:101580008E0F80937E028091BB00F0E0E35AFD4F06
:1015900080838091800281115ECF81E080935B0225
:1015A00084EA8093BC001092810228CF85EC80935E
:1015B000BC001092810280915102803230F4E0919F
:1015C0005102F0E0EF5CFD4F10826091510270E03B
:1015D00081E392E0F0E0E0E00995109251020ECF35
:1015E00010927F0238CFEBEAF2E01382128288EE8B
:1015F00093E0A0E0B0E084839583A683B78327E1DE
:1016000031E03183208325EC30E03587248724ECDA
:1016100030E03787268720EC30E0318B208B21ECBF
:1016200030E0338B228B22EC30E0358B248B26ECA0
:1016300030E0378B268B118E128E138E148EE8E4D9
:10164000F3E01382128284839583A683B78389E2B1
:1016500091E091838083E4E5F3E0108211821382AC
:1016600012821582148260E087E00E94140260E01A
:1016700087E00C94E601789484B5826084BD84B5DB
:10168000816084BD85B5826085BD85B5816085BD7D
:1016900080916E00816080936E0010928100809135
:1016A00081008260809381008091810081608093BD
:1016B0008100809180008160809380008091B100E2
:1016C00084608093B1008091B00081608093B0000D
:1016D00080917A00846080937A0080917A008260A1
:1016E00080937A0080917A00816080937A00809163
:1016F0007A00806880937A001092C10060E083E0F5
:101700000E94E60161E082E00E94140261E084E050
:101710000E94140261E086E00E94140261E087E00A
:101720000E94140261E088E00E94140261E089E0F6
:101730000E94140261E08AE00E94140261E08BE0E2
:101740000E94140261E08CE00E94140261E08DE0CE
:101750000E94140261E08EE00E94140261E08FE0BA
:101760000E94140261E081E10E94140261E085E0C0
:101770000E94140261E085E00E94E60161E083E0DE
:101780000E94140260E083E00E94E60183E08093FF
:101790001201E091BB02F091BC0282E08083E091F3
:1017A000B702F091B8021082E091B902F091BA024A
:1017B0008FEC80831092C302E091BF02F091C002CF
:1017C00086E08083E091BD02F091BE02808180615D
:1017D0008083E091BD02F091BE02808188608083A9
:1017E000E091BD02F091BE02808180688083E0912B
:1017F000BD02F091BE0280818F7D80830E948605AC
:101800000E94F2066EE170E080E090E00E94A80283
:1018100061E083E00E94E60165E070E080E090E036
:101820000E94A80260E083E00E94E60165E070E0AB
:1018300080E090E00E94A80261E083E00E94E6015F
:101840006AE070E080E090E00E94A80268E873E13E
:1018500080E090E00E94A8020E9486050E94F206A5
:1018600061E083E00E94E6016AE070E080E090E0E1
:101870000E94A80260E083E00E94E6016AE070E056
:1018800080E090E00E94A80261E083E00E94E6010F
:10189000DDCF5058BB27AA270E94610C0C94D40DB1
:1018A0000E94C60D38F00E94CD0D20F039F49F3F04
:1018B00019F426F40C94C30D0EF4E095E7FB0C9498
:1018C000BD0DE92F0E94E50D58F3BA1762077307A3
:1018D0008407950720F079F4A6F50C94070E0EF412
:1018E000E0950B2EBA2FA02D0B01B90190010C0130
:1018F000CA01A0011124FF27591B99F0593F50F448
:10190000503E68F11A16F040A22F232F342F44279F
:10191000585FF3CF469537952795A795F040539597
:10192000C9F77EF41F16BA0B620B730B840BBAF067
:101930009150A1F0FF0FBB1F661F771F881FC2F7D2
:101940000EC0BA0F621F731F841F48F487957795E6
:101950006795B795F7959E3F08F0B0CF9395880FA0
:1019600008F09927EE0F9795879508950E94990D95
:1019700008F481E008950E94CF0C0C94D40D0E94CD
:10198000CD0D58F00E94C60D40F029F45F3F29F0BC
:101990000C94BD0D51110C94080E0C94C30D0E94B3
:1019A000E50D68F39923B1F3552391F3951B550B7E
:1019B000BB27AA2762177307840738F09F5F5F4F22
:1019C000220F331F441FAA1FA9F335D00E2E3AF061
:1019D000E0E832D091505040E695001CCAF72BD079
:1019E000FE2F29D0660F771F881FBB1F26173707CA
:1019F0004807AB07B0E809F0BB0B802DBF01FF27FC
:101A000093585F4F3AF09E3F510578F00C94BD0D0E
:101A10000C94080E5F3FE4F3983ED4F386957795D7
:101A20006795B795F7959F5FC9F7880F911D9695B4
:101A3000879597F90895E1E0660F771F881FBB1F10
:101A4000621773078407BA0720F0621B730B840BBD
:101A5000BA0BEE1F88F7E09508950E94ED0D88F00F
:101A60009F5798F0B92F9927B751B0F0E1F0660F62
:101A7000771F881F991F1AF0BA95C9F714C0B130A3
:101A800091F00E94070EB1E008950C94070E672FA5
:101A9000782F8827B85F39F0B93FCCF386957795D2
:101AA0006795B395D9F73EF49095809570956195BB
:101AB0007F4F8F4F9F4F0895E89409C097FB3EF4E6
:101AC00090958095709561957F4F8F4F9F4F99238B
:101AD000A9F0F92F96E9BB279395F6958795779509
:101AE0006795B795F111F8CFFAF4BB0F11F460FFC9
:101AF0001BC06F5F7F4F8F4F9F4F16C0882311F021
:101B000096E911C0772321F09EE8872F762F05C034
:101B1000662371F096E8862F70E060E02AF09A95CF
:101B2000660F771F881FDAF7880F9695879597F9C4
:101B30000895990F0008550FAA0BE0E8FEEF16165E
:101B40001706E807F907C0F012161306E407F507B1
:101B500098F0621B730B840B950B39F40A2661F025
:101B6000232B242B252B21F408950A2609F4A140C8
:101B7000A6958FEF811D811D089597F99F6780E8D5
:101B800070E060E008959FEF80EC089500240A94CF
:101B90001616170618060906089500240A94121648
:101BA0001306140605060895092E0394000C11F47B
:101BB000882352F0BB0F40F4BF2B11F460FF04C028
:101BC0006F5F7F4F8F4F9F4F089557FD9058440F81
:101BD000551F59F05F3F71F04795880F97FB991F8C
:101BE00061F09F3F79F08795089512161306140649
:101BF000551FF2CF4695F1DF08C0161617061806D6
:101C0000991FF1CF86957105610508940895E894B0
:101C1000BB2766277727CB0197F908950E94990D76
:101C200008F48FEF08950E94260E0C94D40D0E94A4
:101C3000C60D38F00E94CD0D20F0952311F00C94C4
:101C4000BD0D0C94C30D11240C94080E0E94E50DDB
:101C500070F3959FC1F3950F50E0551F629FF001FF
:101C6000729FBB27F00DB11D639FAA27F00DB11D18
:101C7000AA1F649F6627B00DA11D661F829F2227A1
:101C8000B00DA11D621F739FB00DA11D621F839F28
:101C9000A00D611D221F749F3327A00D611D231FFE
:101CA000849F600D211D822F762F6A2F11249F574C
:101CB00050409AF0F1F088234AF0EE0FFF1FBB1F4F
:101CC000661F771F881F91505040A9F79E3F51050E
:101CD00080F00C94BD0D0C94080E5F3FE4F3983E29
:101CE000D4F3869577956795B795F795E7959F5FB8
:101CF000C1F7FE2B880F911D9695879597F908954A
:101D00000E94990D880B990B0895A1E21A2EAA1B27
:101D1000BB1BFD010DC0AA1FBB1FEE1FFF1FA2179B
:101D2000B307E407F50720F0A21BB30BE40BF50B98
:101D3000661F771F881F991F1A9469F76095709521
:101D4000809590959B01AC01BD01CF010895EE0FE8
:0E1D5000FF1F0590F491E02D0994F894FFCF49
:101D5E000000CA4300004A4300807C45000080BF5B
:101D6E00000001000000002C018C00B9007901EA8E
:101D7E0000C800DC000000000087045A04B60430DE
:101D8E00045304400431046E616E00696E66006F88
:101D9E007666007B2274223A5B002C305D2C00228A
:101DAE0068223A5B002C315D2C002270223A5B00D7
:101DBE002C325D2C00226C223A5B002C335D2C0001
:101DCE002262223A002273223A5B0022424D4532B1
:101DDE003830222C22424D45323830222C22424DB0
:101DEE0045323830222C00225348543231222C22D4
:101DFE005348543231222C222D2D222C00224453B2
:101E0E003138423230222C222D2D222C222D2D2201
:101E1E002C00222D2D222C222D2D222C222D2D2256
:101E2E002C00224D415834343030392200222D2DD1
:081E3E0022005D7D000D0A0089
:00000001FF
