:100000000C9463000C948B000C948B000C948B006C
:100010000C948B000C948B000C948B000C948B0034
:100020000C948B000C948B000C948B000C948B0024
:100030000C948B000C948B000C948B000C948B0014
:100040000C94650F0C948B000C94330F0C940D0FD3
:100050000C948B000C948B000C948B000C948B00F4
:100060000C94AF0F0C948B000000000025002800BA
:100070002B0000000000240027002A0000000000E0
:1000800023002600290004040404040404040202DA
:100090000202020203030303030301020408102007
:1000A0004080010204081020010204081020000012
:1000B0000008000201000003040700000000000027
:1000C0000000CE10221211241FBECFEFD8E0DEBFF9
:1000D000CDBF11E0A0E0B1E0E8E8FDE202C005908C
:1000E0000D92A83EB107D9F723E0A8EEB1E001C018
:1000F0001D92A439B207E1F710E0C2E6D0E004C0D7
:100100002197FE010E94A216C136D107C9F70E94AD
:1001100014110C94B7160C9400008CBD9DBD08956D
:1001200008950895AF92BF92CF92DF92EF92FF921F
:100130000F931F93CF93DF936C017B018B01040F0F
:10014000151FEB015E01AE18BF08C017D10759F0AB
:100150006991D601ED91FC910190F081E02DC601ED
:100160000995892B79F7C501DF91CF911F910F91E7
:10017000FF90EF90DF90CF90BF90AF900895FC017B
:10018000538D448D252F30E0842F90E0821B930BFC
:10019000541710F0CF96089501970895FC01918DA2
:1001A000828D981761F0A28DAE0FBF2FB11D5D96A5
:1001B0008C91928D9F5F9F73928F90E008958FEF47
:1001C0009FEF0895FC01918D828D981731F0828DFB
:1001D000E80FF11D858D90E008958FEF9FEF089552
:1001E000FC01918D228D892F90E0805C9F4F821BB6
:1001F00091098F739927089580EB92E00E94F00097
:1002000021E0892B09F420E0822F089580E090E01E
:10021000892B29F00E94FC0081110C9400000895A4
:10022000FC01A48DA80FB92FB11DA35ABF4F2C916B
:10023000848D90E001968F739927848FA689B78962
:100240002C93A089B1898C91837080648C93938D59
:10025000848D981306C00288F389E02D80818F7DFC
:1002600080830895EF92FF920F931F93CF93DF93B4
:10027000EC0181E0888F9B8D8C8D98131AC0E889E2
:10028000F989808185FF15C09FB7F894EE89FF89B1
:100290006083E889F98980818370806480839FBF4F
:1002A00081E090E0DF91CF911F910F91FF90EF904F
:1002B0000895F62E0B8D10E00F5F1F4F0F7311275F
:1002C000E02E8C8D8E110CC00FB607FCFACFE8899A
:1002D000F989808185FFF5CFCE010E941001F1CF11
:1002E000EB8DEC0FFD2FF11DE35AFF4FF0829FB70E
:1002F000F8940B8FEA89FB8980818062CFCFCF93FE
:10030000DF93EC01888D8823B9F0AA89BB89E8893D
:10031000F9898C9185FD03C0808186FD0DC00FB6E3
:1003200007FCF7CF8C9185FFF2CF808185FFEDCF61
:10033000CE010E941001E9CFDF91CF910895833063
:1003400081F028F4813099F08230A9F00895873047
:10035000A9F08830C9F08430B1F4809180008F7D9D
:1003600003C0809180008F7780938000089584B5CA
:100370008F7784BD089584B58F7DFBCF8091B000C9
:100380008F778093B00008958091B0008F7DF9CF72
:100390001F93CF93DF93282F30E0F901E255FF4FF1
:1003A0008491F901E656FF4FD491F901EA57FF4FC6
:1003B000C491CC23A9F0162F81110E949F01EC2F2C
:1003C000F0E0EE0FFF1FE859FF4FA591B4918FB7F2
:1003D000F894EC91111108C0D095DE23DC938FBF07
:1003E000DF91CF911F910895DE2BF8CFCF92DF924E
:1003F000EF92FF920F931F93CF93DF9390916F0330
:100400009F3F81F48EBD00000DB407FEFDCFFEB40A
:100410008F2DDF91CF911F910F91FF90EF90DF9083
:10042000CF900895D82EF12CC7E0D0E001E010E085
:10043000FF0C60E080916F030E94C801B8010C2E90
:1004400001C0660F0A94EAF76D2180916D030E9446
:10045000C80161E080916F030E94C80120916E0382
:1004600030E0F901E255FF4F8491F901E656FF4F64
:10047000E490F901EA57FF4FC490CC2081F081113C
:100480000E949F01EC2DF0E0EE0FFF1FE458FF4F9C
:10049000A591B491EC91EE2211F06894F0F82197B7
:1004A00008F0C6CFB5CFCF93DF9390E0FC01E656BE
:1004B000FF4F24918A579F4FFC0184918823D1F0EC
:1004C00090E0880F991FFC01EE58FF4FA591B49161
:1004D000FC01E859FF4FC591D49161110EC09FB73F
:1004E000F8948C91E22FE0958E238C932881E2235F
:1004F000E8839FBFDF91CF9108958FB7F894EC9177
:10050000E22BEC938FBFF6CF3FB7F8948091550262
:1005100090915602A0915702B091580226B5A89B1F
:1005200005C02F3F19F00196A11DB11D3FBFBA2F85
:10053000A92F982F8827BC01CD01620F711D811D45
:10054000911D42E0660F771F881F991F4A95D1F7CA
:1005500008958F929F92AF92BF92CF92DF92EF92C7
:10056000FF924B015C010E9484026B017C010E949E
:1005700084026C197D098E099F09683E73408105CC
:100580009105A8F321E0821A9108A108B10888EE2C
:10059000C80E83E0D81EE11CF11C81149104A10453
:1005A000B10429F7FF90EF90DF90CF90BF90AF900C
:1005B0009F908F90089520912D02260F3327331F8F
:1005C00021323105ECF42091A602FC0190E080E09C
:1005D000243069F082E00895A0912D022191AC01B0
:1005E000435F5D4FA40FB52FB11D2C930196861765
:1005F00098F380912D02680F60932D0280E008959A
:1006000081E008951092A60281E080938502109205
:10061000800261E082E10E94C80161E083E10E9402
:10062000C801E9EBF0E080818E7F808380818D7F3F
:10063000808388E48093B80085E48093BC000895AB
:10064000CF93DF9391E090930C028823B9F0C0918F
:10065000B800D091BA008091BC008A7B8093BC0026
:1006600060E082E10E94C80160E083E10E94C8016D
:100670000E940203D093BA00C093B800DF91CF91DB
:100680000895CF92DF92EF92FF920F931F93CF9333
:10069000DF93D82FC62F613208F098C00E948402E1
:1006A0006B017C018091A60281116BC081E0809377
:1006B000A602809385029FEF90938402109283029A
:1006C0009C0F909382028093810280918102DD0FC2
:1006D000D82BD093810280918002813009F078C0BC
:1006E000109280020E9484026B017C018091810241
:1006F0008093BB008091A8029091A902A091AA02C8
:10070000B091AB02892B8A2B8B2BA1F00E94840223
:100710000091A8021091A9022091AA023091AB0287
:100720006C197D098E099F090617170728073907D5
:1007300008F448C08091BC0083FDD8CF85EC80933D
:10074000BC000E9484026B017C018091A602813072
:1007500009F440C0809183028C1710F4C091830289
:10076000E0E6F2E0A6E8B2E080E08C1355C08C2F02
:10077000DF91CF911F910F91FF90EF90DF90CF907D
:1007800008958091A8029091A902A091AA02B09127
:10079000AB02892B8A2B8B2B09F484CF0E94840215
:1007A0000091A8021091A9022091AA023091AB02F7
:1007B0006C197D098E099F09061717072807390745
:1007C00008F070CF8091A7020E942003C0E0CFCF35
:1007D00085EEB5CF8091A8029091A902A091AA02BE
:1007E000B091AB02892B8A2B8B2B09F4AECF0E94E0
:1007F00084020091A8021091A9022091AA023091CE
:10080000AB026C197D098E099F0906171707280787
:10081000390708F09ACFD6CF91919D938F5FA5CFDE
:100820000895E0915F0280915E02E81730F4F0E0F5
:10083000EA57FD4F808190E008958FEF9FEF089574
:1008400090915F0280915E022FEF3FEF981748F47E
:10085000E92FF0E0EA57FD4F208130E09F5F909351
:100860005F02C901089580915E0290915F02891B29
:10087000990B0895CF92DF92EF92FF920F931F93FF
:10088000CF93DF937C01CB018A012091AF02222319
:1008900089F0EB016B01C40ED51ECC15DD0569F0A6
:1008A0006991D701ED91FC910190F081E02DC70194
:1008B0000995F3CF642F0E94DB02C801DF91CF912D
:1008C0001F910F91FF90EF90DF90CF900895CF93FD
:1008D000DF931F92CDB7DEB769832091AF02222349
:1008E000F9F02091AC02203258F021E030E0FC0118
:1008F0003383228390E080E00F90DF91CF910895C1
:100900008091AD02E82FF0E0E451FE4F9981908391
:100910008F5F8093AD028093AC0281E090E0ECCFDA
:1009200061E0CE0101960E94DB02F7CFCF92DF9209
:10093000EF92FF920F931F93CF93DF93D091AC026E
:1009400081E0D13208F09CC0C091AE020E948402C6
:100950006B017C018091A60281116CC082E08093C2
:10096000A60281E0809385028FEF8093840210922B
:100970008302D0938202ACEEB1E0E0E6F2E080E0E8
:10098000D8138DC01092810280918102CC0FC82BA8
:10099000C093810280918002813009F084C010925E
:1009A00080020E9484026B017C018091810280930D
:1009B000BB008091A8029091A902A091AA02B091D7
:1009C000AB02892B8A2B8B2BA1F00E948402009111
:1009D000A8021091A9022091AA023091AB026C19D1
:1009E0007D098E099F09061717072807390708F49C
:1009F00042C08091BC0083FDD8CF85EC8093BC00C1
:100A00000E9484026B017C018091A602823009F46D
:100A10004CC0809184028F3F09F469C080918402A8
:100A2000803209F466C080918402803309F463C087
:100A300084E026C08091A8029091A902A091AA0208
:100A4000B091AB02892B8A2B8B2B09F483CF0E94A8
:100A500084020091A8021091A9022091AA0230916B
:100A6000AB026C197D098E099F0906171707280725
:100A7000390708F06FCF8091A7020E94200385E01C
:100A80001092AD021092AC021092AF02DF91CF91A2
:100A90001F910F91FF90EF90DF90CF9008959D915F
:100AA00091938F5F6DCF85EEA9CF8091A802909131
:100AB000A902A091AA02B091AB02892B8A2B8B2BA1
:100AC00009F4A2CF0E9484020091A8021091A90209
:100AD0002091AA023091AB026C197D098E099F0901
:100AE000061717072807390708F08ECFC4CF80E014
:100AF000C7CF82E0C5CF83E0C3CF90E080E0089508
:100B00000895CF93DF93D82FC62F80916C038F3F2A
:100B100059F58091590390915A032091630331E074
:100B20003093AF022093AE021092AD021092AC024D
:100B3000DC01ED91FC910190F081E02D6D2F099584
:100B40008091590390915A03DC01ED91FC91019041
:100B5000F081E02D6C2F09958091590390915A03F3
:100B6000DF91CF910C94960480916F038F3F21F415
:100B700082E591E00E948D0060E080916C030E940C
:100B8000C8018D2F8F770E94F6018C2F0E94F601ED
:100B900061E080916C03DF91CF910C94C8018F923A
:100BA0009F92AF92BF92CF92DF92EF92FF92F82E78
:100BB00080916C038F3F09F070C080915903909130
:100BC0005A032091630331E03093AF022093AE02C9
:100BD0001092AD021092AC02DC01ED91FC910190FB
:100BE000F081E02D6F2D09958091590390915A0362
:100BF0000E94960463E0809163030E944103109277
:100C00005F0280935E028091590390915A03DC0148
:100C1000ED91FC910284F385E02D09954C01990F2B
:100C2000AA08BB08BA2CA92C982C882480915903B7
:100C300090915A03DC01ED91FC910284F385E02D43
:100C40000995092E000CAA0BBB0B882A992AAA2AFF
:100C5000BB2ABA2CA92C982C8824809159039091F6
:100C60005A03DC01ED91FC910284F385E02D099596
:100C7000092E000CAA0BBB0B6C017D01C828D928DA
:100C8000EA28FB28C701B601FF90EF90DF90CF90D4
:100C9000BF90AF909F908F90089580916F038F3F8A
:100CA00021F482E591E00E948D0060E080916C0368
:100CB0000E94C8018F2D0E94F60180E00E94F6017B
:100CC00090E0B0E0A0E0CC24D82EE92EFA2E80E00F
:100CD0000E94F601C82AFE2CED2CDC2CCC2480E0EE
:100CE0000E94F601C82A61E080916C030E94C8014D
:100CF000C9CF8F929F92AF92BF92CF92DF92EF9225
:100D0000FF920F931F938AEF0E94CF056115710523
:100D100020E88207910509F47DC0009170031091CD
:100D2000710330E020E0C72ED82EE92EFF24E7FC27
:100D3000FA94C01AD10AE20AF30A57E0959587950A
:100D4000779567955A95D1F7000F111F221F331F12
:100D50004B015C01801A910AA20AB30AA501940111
:100D6000A0917203B09173030E9417154B015C01AF
:100D7000FBE0B594A79497948794FA95D1F7A701CF
:100D80009601C701B6010E94DA149B01AC01ACE0E8
:100D90005595479537952795AA95D1F7A091740356
:100DA000B09175030E9417159B01AC01BEE05595EB
:100DB000479537952795BA95D1F7280D391D4A1DC6
:100DC0005B1D209368033093690340936A0350933B
:100DD0006B03A5E0B0E00E940C1560587F4F8F4F69
:100DE0009F4F672F782F892F992787FD9A950E940B
:100DF000651320E030E048EC52E40E94BC121F91E1
:100E00000F91FF90EF90DF90CF90BF90AF909F90A9
:100E10008F90089560E070E080EC9FE7F0CFCF9373
:100E2000C82F80916C038F3FA9F580915903909151
:100E30005A032091630331E03093AF022093AE0256
:100E40001092AD021092AC02DC01ED91FC91019088
:100E5000F081E02D6C2F09958091590390915A03F0
:100E60000E94960461E0809163030E944103109206
:100E70005F0280935E028091590390915A03DC01D6
:100E8000ED91FC910284F385E02D0995C82F8C2FFC
:100E9000CF91089580916F038F3F21F482E591E017
:100EA0000E948D0060E080916C030E94C8018C2F2D
:100EB0000E94F60180E00E94F601C82F61E0809157
:100EC0006C030E94C801E3CFCF93DF93C82F8091BA
:100ED0006C038F3F09F046C08091590390915A03EB
:100EE0002091630331E03093AF022093AE02109261
:100EF000AD021092AC02DC01ED91FC910190F08109
:100F0000E02D6C2F09958091590390915A030E940E
:100F1000960462E0809163030E94410310925F0295
:100F200080935E028091590390915A03DC01ED9108
:100F3000FC910284F385E02D0995C82F8091590317
:100F400090915A03DC01ED91FC910284F385E02D30
:100F5000099520E03C2FE901C82BD92BCE01DF9168
:100F6000CF91089580916F038F3F21F482E591E046
:100F70000E948D0060E080916C030E94C8018C2F5C
:100F80000E94F60180E00E94F601C82F80E00E94D6
:100F9000F601DC2FC82F61E080916C030E94C8012C
:100FA000DDCF0E9464079827892798270895CF935B
:100FB000DF9380916C038F3F09F022C110925F0292
:100FC00010925E021092AD021092AC020E940203D7
:100FD00080E990E090935D0280935C0281E990E06B
:100FE00090935B0280935A0280ED0E940F0790E07D
:100FF000B0E0A0E08093640390936503A093660340
:10100000B093670380369105A105B10509F047C18A
:1010100066EB80EE0E9481056AE070E080E090E07F
:101020000E94A90283EF0E940F0780FDF5CF88E898
:101030000E94D10790937103809370038AE80E9405
:10104000D10790937303809372038CE80E94D107B9
:1010500090937503809374038EE80E94D107909358
:1010600077038093760380E90E94D10790937903F8
:101070008093780382E90E94D10790937B03809349
:101080007A0384E90E94D10790937D0380937C03C7
:1010900086E90E94D10790937F0380937E0388E9BD
:1010A0000E94D10790938103809380038AE90E9474
:1010B000D10790938303809382038CE90E94D10728
:1010C00090938503809384038EE90E94D1079093C7
:1010D00087038093860381EA0E940F078093880329
:1010E00081EE0E94D10790938A038093890383EE57
:1010F0000E940F0780938B0384EE0E940F07C82F76
:1011000085EE0E940F0790E1C902900111248F70B3
:10111000282B30938D0320938C0386EE0E940F07BB
:10112000C82F85EE0E940F0790E1C902E00111244B
:1011300090E024E0959587952A95E1F78C2B9D2BDF
:1011400090938F0380938E0387EE0E940F07809306
:1011500090038DEE80939203809193038F71806A48
:101160008093930380919103807C8093910360E04E
:1011700084EF0E9481056091930362956695677084
:1011800082EF0E94810580919103682F677090E241
:10119000699FB0011124282F269526952695277042
:1011A00094E0299F90011124622B87FB882780F906
:1011B000682B85EF0E94810580919203682F6770EC
:1011C00090E2699FB0011124282F26952695269537
:1011D000277094E0299F90011124622B82958695B7
:1011E00086958370682B84EF0E94810564E670E029
:1011F00080E090E00E94A90281E0DF91CF91089504
:1012000061E00E94C80161E080916C030E9453027A
:1012100080916F038F3F09F034C0CFB7F89480916D
:101220005902811127C0E0E9F0E08491E4EAF0E09E
:101230009491E82FF0E0EE0FFF1FEE58FF4FA591BD
:10124000B491EC91E92321F461E08AE00E94C801A5
:1012500061E08AE00E9453028CB580618CBD8CB540
:1012600080648CBD61E08DE00E94530261E08BE000
:101270000E945302809159028F5F80935902CFBF21
:10128000B3CE61E00E94530261E080916D030E9441
:10129000530260E080916E030E945302A5CE80E06D
:1012A000ACCFCF93DF9387E780936303CDE4D3E0A4
:1012B000D0935A03C09359030E94D707882311F192
:1012C00081E08093E801C1E0C093AF028AE480939B
:1012D000AE021092AD021092AC0262E08DE493E097
:1012E0000E94670460E48DE493E00E9467048DE44B
:1012F00093E00E949604811102C0C093EB01DF913C
:10130000CF91089586E780936303D0935A03C093E7
:1013100059030E94D7078111D3CFD5CFFC0101908B
:101320000020E9F73197AF01481B590BBC0180EB56
:1013300092E00C9492008F929F92AF92BF920F9383
:101340001F93CF93DF93CDB7DEB7A1970FB6F89475
:10135000DEBF0FBECDBF19A2423008F44AE08E01B5
:101360000F5D1F4F842E912CB12CA12CA50194014F
:101370000E94EA14E62FB901CA01EA30F4F4E05DF4
:10138000D801EE938D01232B242B252B79F790E0A8
:1013900080E0109719F0CD010E948E09A1960FB63A
:1013A000F894DEBF0FBECDBFDF91CF911F910F919B
:1013B000BF90AF909F908F900895E95CE1CF0C941F
:1013C0008E094F925F926F927F928F929F92AF920F
:1013D000BF92CF92DF92EF92FF920F931F93CF9322
:1013E0006B017C01742EAC019B010E94D5148823F3
:1013F00099F087E391E0CF911F910F91FF90EF90CB
:10140000DF90CF90BF90AF909F908F907F906F9024
:101410005F904F900C948E0946015701E894B7F8FD
:101420002FEF3FEF4FE75FE7C501B4010E94D514EE
:1014300081110DC02FEF3FEF4FE75FE7C501B4010A
:101440000E94B71218161CF48BE391E0D4CF2FEF53
:101450003FEF4FE75FE4C701B6010E94631418161F
:101460001CF48FE391E0C7CF2FEF3FEF4FE75FEC26
:10147000C701B6010E94B71287FDF3CF20E030E02C
:10148000A901C701B6010E94B71210E000E087FF72
:101490000AC06DE280EB92E00E9432018C01F7FA03
:1014A000F094F7F8F094C0E060E070E080E09FE333
:1014B0007C1641F020E030E040E251E40E94BC1292
:1014C000CF5FF6CFA70196010E944B122B013C0182
:1014D0000E942E134B015C014AE00E949B097C0193
:1014E000E00EF11ECC23C1F1C501B4010E946313CB
:1014F0009B01AC01C301B2010E944A124B015C0185
:101500006EE280EB92E00E943201E80EF91EC150BB
:1015100018F120E030E040E251E4C501B4010E943E
:1015200068142B013C010E942E134B01B12CA12CFD
:101530004AE0C501B4010E949B09E80EF91EC501ED
:10154000B4010E9463139B01AC01C301B2010E946C
:101550004A124B015C01DBCFC701CF911F910F9164
:10156000FF90EF90DF90CF90BF90AF909F908F90C3
:101570007F906F905F904F9008952F923F924F927F
:101580005F926F927F928F929F92AF92BF92CF9213
:10159000DF92EF92FF920F931F93CF93DF93CDB71C
:1015A000DEB76F970FB6F894DEBF0FBECDBF809148
:1015B000E801882309F4BBC20E9479066093000108
:1015C0007093010180930201909303010E947906B8
:1015D0008DEF0E946407B0E0A0E0811500E890075D
:1015E000A105B10509F4BFC3809068039090690319
:1015F000A0906A03B0906B031CE2911A11E0A10A5B
:10160000B1086C017D018EE0CC0CDD1CEE1CFF1CD2
:101610008A95D1F780918C0390918D03092E000C4F
:10162000AA0BBB0B24E1880F991FAA1FBB1F2A9589
:10163000D1F7C81AD90AEA0AFB0AA0918E03B09121
:101640008F03A50194010E941715C61AD70AE80A4C
:10165000F90A20E4D20EE11CF11C3FE0F594E79476
:10166000D794C7943A95D1F7A0918B03B0E0940139
:101670000E940C152B013C016BE075946794579404
:1016800047946A95D1F780E8580E611C711CA091AF
:1016900090030A2E000CBB0B0E941715EAE09595EB
:1016A000879577956795EA95D1F7A30192010E94F6
:1016B000DA149B01AC01FAE05595479537952795CB
:1016C000FA95D1F7405E5F4FA0918903B0918A03EC
:1016D0000E941715705E8F4F9F4FAEE095958795CE
:1016E00077956795AA95D1F7A70196010E94DA141C
:1016F0006B017C01BFE09595879577956795BA95C5
:10170000D1F79B01AC010E94DA149B01AC0117E0F8
:1017100055954795379527951A95D1F7A091880348
:10172000B0E00E940C1504E0959587957795679534
:101730000A95D1F7C61AD70AE80AF90AF7FE03C0D4
:10174000C12CD12C7601C701B6016130710581052C
:10175000A9E19A0724F060E070E080E099E10CE0F4
:1017600095958795779567950A95D1F70E946513AA
:1017700020E030E040E85AE30E94681460930401DE
:101780007093050180930601909307010E947906EA
:1017900087EF0E94CF056D877E878F87988B6115B5
:1017A00071058048910509F4E3C280916803909126
:1017B0006903A0916A03B0916B036C017D01FF0C7A
:1017C000CC08DC2C76019C01AD016C2D7C2D8C2D80
:1017D0009C2D345F414051096109710981099109CA
:1017E0002E8F332E2A013B014C01A22EB32E6A010B
:1017F0007B018C010E941F15222E3B8B4C8B5D8B35
:101800006E8B7F8B888F998F30917903209178032D
:10181000932F990F990B492F592F692F792F892FC2
:101820000E941F150CE00E944E16298339874A87B3
:101830005B876C87798B8A8B9F8F30917B0320919C
:101840007A03932F990F990BA22CBB88CC88DD8843
:10185000EE88FF88088D198D492F592F692F792F10
:10186000892F0E941F1508E00E946716A980B9847D
:10187000CA84DB84EC84F9880A891F8D0E9484164F
:1018800070588F4F9F4FE0917603F09177035F017F
:10189000D12CC12CE12CF12C8701E983BA82CB82B7
:1018A000DC82ED82FE820F831887C12CD12CE12CC3
:1018B000F12C00E010E00E941F1501E20E94671663
:1018C000298339874A875B876C87798B8F8F9A8BBF
:1018D000A0E00E94961609F450C230918103209135
:1018E0008003932F990F990BA22CBB88CC88DD889D
:1018F000EE88FF88088D198D492F592F692F792F70
:10190000892F0E941F15222E3B8B4C8B5D8B6E8B7B
:101910007F8B888F998F30917F0320917E03932F47
:10192000990F990BAE8CB32C620173018401492F7E
:10193000592F692F792F892F0E941F1501E10E94CD
:101940004E16A22CBB88CC88DD88EE88FF88088DD7
:10195000198D0E94841659016A017B01382E192FB6
:101960004D855E856F85788994E075956795579567
:1019700047959A95D1F780E090E0A0E1B0E0841B14
:10198000950BA60BB70B2C013D01770C4408542C8A
:1019900032019C01AD01642D742D842D942D0FE135
:1019A0000E944E16722E832E942E5D87B62FA72F7F
:1019B000F82FE92F30917D0320917C03932F990F0D
:1019C000990B492F592F692F792F892F03E20E94F4
:1019D0004E16032D0E94841659016A017B018C0169
:1019E000272D382D492D5D856B2F7A2F8F2F9E2F18
:1019F0000E948D16E5E3AE2EFCE0BF2EC12CD12C4B
:101A0000E12CF12C00E010E00E941F15A980B984A0
:101A1000CA84DB84EC84F9880F8D1A890E947915B9
:101A20002A8B398B4D87598369877A878B879C8767
:101A30000DE00E946716922E832E742E652E562E70
:101A4000472E382E292E3091870320918603932F1D
:101A5000990F990BA92CB82CC72CD62CE52CF42C5B
:101A6000032D122D492F592F692F792F892F0E946D
:101A70001F150E941F1509E10E946716AA88B988E0
:101A8000CD84D980E984FA840B851C850E94841654
:101A900019012A013B014C013091850320918403F7
:101AA000932F990F990B492F592F692F792F892F30
:101AB0000E941F1503E10E94671659016A017B010C
:101AC0008C019101A201B301C4010E94841608E0B7
:101AD0000E94671659016A017B01E82F192F309186
:101AE000830320918203932F990F990B492F592F2C
:101AF000692F792F892F04E00E944E160E2F0E9425
:101B000084160E945D1320E030E040E85BE30E9411
:101B1000681420E030E048EC52E40E94BC1260936C
:101B200008017093090180930A0190930B01809141
:101B3000EB01882309F463C081E08093AF028AE45B
:101B40008093AE021092AD021092AC0263E08DE47D
:101B500093E00E9467048DE493E00E94960462E0A3
:101B60008AE40E94410310925F0280935E028230F9
:101B700061F48DE493E00E9420049B8F8A8F8DE4B2
:101B800093E00E9420049D8F8C8F6A8D7B8D84E072
:101B9000660F771F8A95E1F777278C8D9D8D8F7063
:101BA0009927682B792B072E000C880B990B0E9424
:101BB00065136B017C018A8D82958F7061E070E006
:101BC00002C0660F771F8A95E2F7072E000C880B7C
:101BD000990B0E9465139B01AC01C701B6010E94DD
:101BE00068142CEE31E548E35DE30E9468146093CD
:101BF0000C0170930D0180930E0190930F01809161
:101C0000120100E4809FC0011124826080937C0057
:101C100080917A00806480937A0080917A0086FDBA
:101C2000FCCF9091780080917900892798278927A7
:101C3000909311018093100183E491E00E94DF09E9
:101C40006091000170910101809102019091030166
:101C500042E00E94E1098AE491E00E94DF098FE4FA
:101C600091E00E94DF09609104017091050180916B
:101C700006019091070142E00E94E10985E591E0AB
:101C80000E94DF098AE591E00E94DF096091080166
:101C90007091090180910A0190910B0142E00E942C
:101CA000E10980E691E00E94DF0985E691E00E946B
:101CB000DF0960910C0170910D0180910E019091EE
:101CC0000F0142E00E94E1098BE691E00E94DF09EA
:101CD00080E791E00E94DF0960911001709111018D
:101CE00090E080E04AE00E949B0980ED91E00E9434
:101CF000DF0985E791E00E94DF098091E8018823F0
:101D000009F43FC08BE791E00E94DF098091EB016D
:101D1000882309F447C082ED91E00E94DF0982EE3A
:101D200091E00E948E0985EE91E00E948E0980EB81
:101D300092E06F960FB6F894DEBF0FBECDBFDF9175
:101D4000CF911F910F91FF90EF90DF90CF90BF90B8
:101D5000AF909F908F907F906F905F904F903F904B
:101D60002F900C947F0160E070E080EC9FE706CD3F
:101D700060E070E080EC9FE7CCCE60E070E0CB01EB
:101D8000C8CE8091E901882319F087E991E0BCCFA2
:101D90008091EA01882319F08DEA91E0B5CF82ECB9
:101DA00091E0B2CF8DED91E0B8CF85ED8093BC008E
:101DB0008091A8029091A902A091AA02B091AB02D1
:101DC0000796A11DB11D23E0B695A7959795879518
:101DD0002A95D1F72091BC0024FD03C01092A602E1
:101DE00008954091A8025091A9026091AA027091B1
:101DF000AB02452B462B472B69F30097A105B10594
:101E000041F025E32A95F1F700000197A109B109F6
:101E1000E1CF8091A7020C9420031F920F920FB67E
:101E20000F9211242F933F934F935F936F937F9360
:101E30008F939F93AF93BF93EF93FF9380EB92E0C9
:101E40000E941001FF91EF91BF91AF919F918F91EF
:101E50007F916F915F914F913F912F910F900FBEA6
:101E60000F901F9018951F920F920FB60F9211248A
:101E70002F938F939F93EF93FF93E091C002F09184
:101E8000C1028081E091C602F091C70282FD1BC0B1
:101E900090818091C9028F5F8F732091CA0282174F
:101EA00041F0E091C902F0E0E055FD4F958F80933D
:101EB000C902FF91EF919F918F912F910F900FBECB
:101EC0000F901F9018958081F4CF1F920F920FB63C
:101ED0000F9211242F933F938F939F93AF93BF93B0
:101EE0008091510290915202A0915302B0915402FC
:101EF0003091500223E0230F2D3758F50196A11D94
:101F0000B11D209350028093510290935202A093EE
:101F10005302B09354028091550290915602A091C1
:101F20005702B09158020196A11DB11D8093550230
:101F300090935602A0935702B0935802BF91AF916D
:101F40009F918F913F912F910F900FBE0F901F90F7
:101F5000189526E8230F0296A11DB11DD2CF1F921E
:101F60000F920FB60F9211242F933F934F935F93CD
:101F70006F937F938F939F93AF93BF93EF93FF9351
:101F80008091B900887F803609F44AC0F0F5883224
:101F900009F4A7C018F5803109F49BC0B8F4882370
:101FA00009F4F9C0883009F494C0FF91EF91BF9112
:101FB000AF919F918F917F916F915F914F913F91E1
:101FC0002F910F900FBE0F901F901895883109F434
:101FD00088C0803251F78093840214C0803409F4A1
:101FE0009DC040F48033B9F38833F9F680938402BE
:101FF00085ECB0C0803509F485C0883509F496C0F9
:10200000883499F60E94D50ED0CF883909F48CC057
:1020100038F5883729F050F4883611F0803729F6E2
:1020200083E08093A60210924F0257C0883809F4CB
:102030007BC0803919F0803809F0B7CF80914F020A
:10204000803208F071C0E0914F0281E08E0F8093E2
:102050004F028091BB00F0E0E15DFD4F80833DC009
:10206000803B39F0E0F4803A09F479C0883A09F00D
:102070009CCF84E08093A60210922E0210922D0233
:10208000E0915C02F0915D02099580912D02811131
:102090000FC081E080932D0210920D0209C0803C98
:1020A00009F4A6CF883C09F4A3CF883B09F07DCF83
:1020B000E0912E0281E08E0F80932E02F0E0E35F2C
:1020C000FD4F80818093BB0090912E0280912D0264
:1020D00029C0809181028093BB0085EC8093BC0075
:1020E00064CF9091830280918202981758F5E09115
:1020F000830281E08E0F80938302F0E0E05AFD4F6F
:102100008081E9CFE091830281E08E0F809383028A
:102110008091BB00F0E0E05AFD4F808390918302F4
:10212000809182029817C8F285E8D8CFE0918302A7
:1021300081E08E0F809383028091BB00F0E0E05A33
:10214000FD4F80838091850281115CCF81E0809377
:10215000800284EA8093BC001092A60226CF85EC10
:102160008093BC001092A60280914F02803230F41E
:10217000E0914F02F0E0E15DFD4F108260914F026F
:1021800070E0E0915A02F0915B028FE292E00995D3
:1021900010924F020ACF1092840234CFE0EBF2E0AB
:1021A0001382128288EE93E0A0E0B0E084839583EE
:1021B000A683B78327E131E03183208325EC30E02B
:1021C0003587248724EC30E03787268720EC30E001
:1021D000318B208B21EC30E0338B228B22EC30E0F2
:1021E000358B248B26EC30E0378B268B118E128EAC
:1021F000138E148EEDE4F3E01382128284839583B0
:10220000A683B78389E291E091838083E9E5F3E0D7
:102210001582148217821682118610868FEF838BA7
:10222000848B858B868B0895789484B5826084BD79
:1022300084B5816084BD85B5826085BD85B58160CA
:1022400085BD80916E00816080936E001092810048
:102250008091810082608093810080918100816003
:1022600080938100809180008160809380008091C4
:10227000B10084608093B1008091B0008160809350
:10228000B00080917A00846080937A0080917A0017
:10229000826080937A0080917A00816080937A00D6
:1022A00080917A00806880937A001092C10060E08B
:1022B00083E00E94C80161E082E00E94530261E075
:1022C00084E00E94530261E086E00E94530261E0D4
:1022D00087E00E94530261E088E00E94530261E0BF
:1022E00089E00E94530261E08AE00E94530261E0AB
:1022F0008BE00E94530261E08CE00E94530261E097
:102300008DE00E94530261E08EE00E94530261E082
:102310008FE00E94530261E081E10E94530261E07C
:1023200085E00E94530261E085E00E94C80161E0FF
:1023300083E00E94530260E083E00E94C80183E0D2
:1023400080931201E091C002F091C10282E080838B
:10235000E091BC02F091BD021082E091BE02F091CA
:10236000BF028FEC80831092C802E091C402F0910A
:10237000C50286E08083E091C202F091C3028081B1
:1023800080618083E091C202F091C3028081886005
:102390008083E091C202F091C302808180688083D3
:1023A000E091C202F091C30280818F7D80830E9400
:1023B00051090E94BD0A6EE170E080E090E00E9449
:1023C000A90261E083E00E94C80165E070E080E05E
:1023D00090E00E94A90260E083E00E94C80165E0ED
:1023E00070E080E090E00E94A90261E083E00E943A
:1023F000C8016AE070E080E090E00E94A90268E80D
:1024000073E180E090E00E94A9020E9451090E94BD
:10241000BD0A61E083E00E94C8016AE070E080E0EC
:1024200090E00E94A90260E083E00E94C8016AE097
:1024300070E080E090E00E94A90261E083E00E94E9
:10244000C801DDCF80915D0390915E03009739F064
:10245000DC01ED91FC910280F381E02D09958091E2
:102460005F0390916003009739F0DC01ED91FC91DE
:102470000280F381E02D09958091610390916203C0
:10248000009739F0DC01ED91FC910280F381E02DA1
:10249000099408955058BB27AA270E9462120C94F1
:1024A00029140E941B1438F00E94221420F039F4E1
:1024B0009F3F19F426F40C9408140EF4E095E7FB02
:1024C0000C940214E92F0E943A1458F3BA176207C9
:1024D00073078407950720F079F4A6F50C945C1433
:1024E0000EF4E0950B2EBA2FA02D0B01B90190012F
:1024F0000C01CA01A0011124FF27591B99F0593F73
:1025000050F4503E68F11A16F040A22F232F342FBA
:102510004427585FF3CF469537952795A795F04008
:102520005395C9F77EF41F16BA0B620B730B840B1D
:10253000BAF09150A1F0FF0FBB1F661F771F881FD5
:10254000C2F70EC0BA0F621F731F841F48F487952D
:1025500077956795B795F7959E3F08F0B0CF93951F
:10256000880F08F09927EE0F9795879508950E9498
:10257000DE1308F481E008950E94D0120C9429140F
:102580000E94221458F00E941B1440F029F45F3F6F
:1025900029F00C94021451110C945D140C9408143D
:1025A0000E943A1468F39923B1F3552391F3951BD4
:1025B000550BBB27AA2762177307840738F09F5F64
:1025C0005F4F220F331F441FAA1FA9F335D00E2ED1
:1025D0003AF0E0E832D091505040E695001CCAF73E
:1025E0002BD0FE2F29D0660F771F881FBB1F261701
:1025F00037074807AB07B0E809F0BB0B802DBF01D8
:10260000FF2793585F4F3AF09E3F510578F00C94A6
:1026100002140C945D145F3FE4F3983ED4F3869566
:1026200077956795B795F7959F5FC9F7880F911DC7
:102630009695879597F90895E1E0660F771F881FB3
:10264000BB1F621773078407BA0720F0621B730B66
:10265000840BBA0BEE1F88F7E09508950E94421490
:1026600088F09F5798F0B92F9927B751B0F0E1F053
:10267000660F771F881F991F1AF0BA95C9F714C003
:10268000B13091F00E945C14B1E008950C945C1498
:10269000672F782F8827B85F39F0B93FCCF386953C
:1026A00077956795B395D9F73EF490958095709599
:1026B00061957F4F8F4F9F4F089597FB16F40E94AF
:1026C0000B140C94A113E89409C097FB3EF4909569
:1026D0008095709561957F4F8F4F9F4F9923A9F0FB
:1026E000F92F96E9BB279395F6958795779567958A
:1026F000B795F111F8CFFAF4BB0F11F460FF1BC0CE
:102700006F5F7F4F8F4F9F4F16C0882311F096E960
:1027100011C0772321F09EE8872F762F05C066230E
:1027200071F096E8862F70E060E02AF09A95660FC7
:10273000771F881FDAF7880F9695879597F9089580
:10274000E894F92F96EBFF2381F012161306140676
:10275000440B9395F69587957795679557954040E7
:10276000FF23B9F71BC099270895882351F4985087
:10277000D2F7872B762F652F542F432F322F20E04F
:10278000B1F3121613061406440B88233AF09A95F7
:10279000440F551F661F771F881FCAF755234AF439
:1027A000440F551F11F460FF04C06F5F7F4F8F4FC0
:1027B0009F4F880F9695879597F90895990F000870
:1027C000550FAA0BE0E8FEEF16161706E807F90703
:1027D000C0F012161306E407F50798F0621B730B9E
:1027E000840B950B39F40A2661F0232B242B252B1F
:1027F00021F408950A2609F4A140A6958FEF811DC2
:10280000811D089597F99F6780E870E060E0089562
:102810009FEF80EC08959095809570956095509508
:102820004095309521953F4F4F4F5F4F6F4F7F4FF2
:102830008F4F9F4F089500240A9416161706180606
:102840000906089500240A941216130614060506B4
:102850000895092E0394000C11F4882352F0BB0F45
:1028600040F4BF2B11F460FF04C06F5F7F4F8F4FA8
:102870009F4F089557FD9058440F551F59F05F3FE3
:1028800071F04795880F97FB991F61F09F3F79F092
:1028900087950895121613061406551FF2CF469514
:1028A000F1DF08C0161617061806991FF1CF869596
:1028B0007105610508940895E894BB27662777277A
:1028C000CB0197F908950E94DE1308F48FEF089565
:1028D0000E947B140C9429140E941B1438F00E944F
:1028E000221420F0952311F00C9402140C94081477
:1028F00011240C945D140E943A1470F3959FC1F357
:10290000950F50E0551F629FF001729FBB27F00D9D
:10291000B11D639FAA27F00DB11DAA1F649F6627F2
:10292000B00DA11D661F829F2227B00DA11D621F41
:10293000739FB00DA11D621F839FA00D611D221FFB
:10294000749F3327A00D611D231F849F600D211DDF
:10295000822F762F6A2F11249F5750409AF0F1F062
:1029600088234AF0EE0FFF1FBB1F661F771F881FCB
:1029700091505040A9F79E3F510580F00C940214ED
:102980000C945D145F3FE4F3983ED4F386957795FD
:102990006795B795F795E7959F5FC1F7FE2B880F71
:1029A000911D9695879597F908950E94DE13880BDF
:1029B000990B0895DB018F939F930E940C15BF9193
:1029C000AF91A29F800D911DA39F900DB29F900D7E
:1029D00011240895A1E21A2EAA1BBB1BFD010DC0F4
:1029E000AA1FBB1FEE1FFF1FA217B307E407F507BF
:1029F00020F0A21BB30BE40BF50B661F771F881F9B
:102A0000991F1A9469F760957095809590959B0130
:102A1000AC01BD01CF0108950E94A816A59F900D9D
:102A2000B49F900DA49F800D911D11240895B7FFB0
:102A30000C940C150E940C15821B930B0895DF93C8
:102A4000CF931F930F939A9DF02D219FF00D8B9D97
:102A5000F00D8A9DE02DF10D039FF00D029FE00D1A
:102A6000F11D4E9DE00DF11D5E9DF00D4F9DF00D91
:102A70007F936F93BF92AF925F934F93D5010E9464
:102A8000A8168B01AC01D7010E94A816EB01E80F34
:102A9000F91FD6010E946E152F913F91D6010E9419
:102AA000A816C60FD71FE81FF91FAF91BF910E944C
:102AB0006E152F913F910E94A816C60FD71FE81FD1
:102AC000F91FD6010E94A816E60FF71F9801BE0154
:102AD000CF010F911F91CF91DF9108950E94A81609
:102AE000460F571FC81FD91F08F4319608956894E0
:102AF00001C0E894F92FF12B12F00C94AB15A0E073
:102B0000B0E0E5E8F5E10C941D16092E059422F4D9
:102B10000E940716112392F4F0E80F26FFEFE094CD
:102B2000F09400951095B094C094D094A194BF0AED
:102B3000CF0ADF0AEF0AFF0A0F0B1F0B0E94B61520
:102B400007FC0E940716CDB7DEB7ECE00C943916EF
:102B5000689401C0E8948F929F92CF93DF930E9474
:102B6000B615DF91CF919F908F9008958824992476
:102B7000F401E401B0E49F93AA279A158B049C0406
:102B8000ED05FE05CF05D007A10798F4AD2FDC2F8A
:102B9000CF2FFE2FE92D982C892E982F872F762F57
:102BA000652F542F432F322F2227B85031F7BF9172
:102BB00027C01B2EBF91BB27220F331F441F551F59
:102BC000661F771F881F991F881C991CEE1FFF1F07
:102BD000CC1FDD1FAA1FBB1F8A149B04EC05FD053B
:102BE000CE05DF05A007B10748F08A189B08EC095D
:102BF000FD09CE09DF09A00BB10B21601A94E1F6A3
:102C00002EF49401AF01BE01CD01000C0895609532
:102C100070958095909530954095509521953F4FB2
:102C20004F4F5F4F6F4F7F4F8F4F9F4F08952F92A2
:102C30003F924F925F926F927F928F929F92AF924C
:102C4000BF92CF92DF92EF92FF920F931F93CF9399
:102C5000DF93CDB7DEB7CA1BDB0B0FB6F894DEBF30
:102C60000FBECDBF09942A88398848885F846E8456
:102C70007D848C849B84AA84B984C884DF80EE80A0
:102C8000FD800C811B81AA81B981CE0FD11D0FB6A9
:102C9000F894DEBF0FBECDBFED010895002E0830C1
:102CA00090F0982F872F762F652F542F432F322F98
:102CB00022270850F4CF220F331F441F551F661FD1
:102CC000771F881F991F0A95B2F7002D089597FD69
:102CD0001094002E083098F00850232F342F452FE1
:102CE000562F672F782F892F912DF4CF1594979514
:102CF00087957795679557954795379527950A95C1
:102D0000AAF71124002D08952A0D3B1D4C1D5D1DB1
:102D10006E1D7F1D801F911F08952A193B094C09C4
:102D20005D096E097F09800B910B08950024A7FDB2
:102D300000942A1730054005500560057005800590
:102D400090050895EE0FFF1F0590F491E02D099472
:102D5000A29FB001B39FC001A39F700D811D1124DC
:102D6000911DB29F700D811D1124911D089510E0D9
:102D7000C2E6D0E004C0FE010E94A2162196C3362E
:082D8000D107C9F7F894FFCF59
:102D88000000CA4300004A4300807C45000080BF21
:102D98000000010000000032019200BF007F01F036
:102DA80000CE00E2000000000067043A047D051030
:102DB800043304200411046E616E00696E66006FAE
:102DC8007666007B2274223A5B002C305D2C002250
:102DD80068223A5B002C315D2C002270223A5B009D
:102DE8002C325D2C00226C223A5B002C335D2C00C7
:102DF8002262223A002273223A5B0022424D453277
:102E08003830222C22424D45323830222C22424D75
:102E180045323830222C00225348543231222C2299
:102E28005348543231222C222D2D222C0022445377
:102E38003138423230222C222D2D222C222D2D22C7
:102E48002C00222D2D222C222D2D222C222D2D221C
:102E58002C00224D415834343030392200222D2D97
:082E680022005D7D000D0A004F
:00000001FF
